:100000000C9437010C9468010C9468010C946801FD
:100010000C9468010C9468010C9468010C946801BC
:100020000C9468010C9468010C9468010C946801AC
:100030000C9468010C9468010C9468010C9468019C
:100040000C9468010C9468010C9468010C9468018C
:100050000C9463050C9468010C9468010C94B90429
:100060000C9468010C942D050C9403050C94680104
:100070000C9468010C9468010C9468010C9468015C
:100080000C9468010C9468010C9468010C9468014C
:100090000C9468010C9468010C9468010C9468013C
:1000A0000C9468010C9468010C9468010C9468012C
:1000B0000C9468010C9468010C9468010C9468011C
:1000C0000C9468010C9468010C9468010C9468010C
:1000D0000C9468010C9468010C9468010C946801FC
:1000E0000C9468010C949A010C9496010C94A7014D
:1000F0000C94A3010C945B030C94BB010C94BF0102
:100100000C9488010C949D010C94240B0C94C80150
:100110000C94F2020C94B1010C94C9010C94B50139
:100120000C94C3010C948E010C9415030C94A80339
:100130000C94AD010C94CD010C94B1020C9401030C
:100140000C94DE020C9423030C9492010000210015
:10015000240027002A002D00300033000101000098
:10016000040107010A0100002200250028002B00DD
:100170002E003100340002010000050108010B01CE
:10018000000020002300260029002C002F00320050
:100190000001000003010601090105050505070529
:1001A00008080808020202020A0A080804040404F3
:1001B000010101010101010103030303030303031F
:1001C000040707070C0C0C0C0C0C0C0C02020202AE
:1001D00006060606060606060B0B0B0B0B0B0B0B97
:1001E0000102102020080810204010204080020149
:1001F000020108040201010204081020408080402E
:10020000201008040201800402018040201008042C
:1002100002010804020101020408102040800102CA
:1002200004081020408000000A0B02090C0D0E0883
:1002300007030401000000000000000000000000AF
:1002400000000000000000000000000000000000AE
:10025000000012111000000000000000000000006B
:10026000000000000000000000000000240B11242A
:100270001FBECFEFD1E2DEBFCDBF00E00CBF14E068
:10028000A0E0B2E0E4ECF8E100E00BBF02C00790B0
:100290000D92A234B107D9F725E0A2E4B4E001C081
:1002A0001D92A634B207E1F711E0C7E3D1E000E008
:1002B00006C021970109802FFE010E94580CC63309
:1002C000D10780E00807A9F70E948E050C94600C06
:1002D0000C9400008150823108F05AC0E82FF0E001
:1002E0008827EA58FE4F8F4F0C94580C96019A01BC
:1002F00088018E019201C8019D01A301A701AD01F2
:10030000B101B501BB01BF01C801C301C901CD01E4
:10031000809180008F778093800008958091800085
:100320008F7DF9CF80918000877FF5CF84B58F775F
:1003300084BD089584B58F7DFBCF8091B0008F7709
:100340008093B00008958091B0008F7DF9CF8091A7
:1003500090008F77809390000895809190008F7D1A
:10036000F9CF80919000877FF5CF8091A0008F77A3
:100370008093A00008958091A0008F7DF9CF809197
:10038000A000877FF5CF809120018F778093200197
:100390000895809120018F7DF9CF80912001877F82
:1003A000F5CFCF93DF93282F30E0F901EA5DFD4FC1
:1003B0008491F901E052FE4FD491F901E656FE4FC7
:1003C000C491CC23A1F081110E946A01EC2FF0E0CE
:1003D000EE0FFF1FE058FE4FA591B491EC91ED2375
:1003E00081E090E009F480E0DF91CF91089580E012
:1003F00090E0FACF1F93CF93DF93282F30E0F901DD
:10040000EA5DFD4F8491F901E052FE4FD491F9016C
:10041000E656FE4FC491CC23A9F0162F81110E94FD
:100420006A01EC2FF0E0EE0FFF1FEA59FE4FA59195
:10043000B4918FB7F894EC91111108C0D095DE23D8
:10044000DC938FBFDF91CF911F910895DE2BF8CF02
:10045000CF93DF9390E0FC01E052FE4F249186564B
:100460009E4FFC0184918823D1F090E0880F991F62
:10047000FC01E45BFE4FA591B491FC01EA59FE4FEB
:10048000C591D491623071F49FB7F8943C91822F5A
:10049000809583238C93E8812E2B28839FBFDF9147
:1004A000CF9108958FB7F894EC912E2B2C938FBF9A
:1004B000F6CF3FB7F8948091A5049091A604A0913F
:1004C000A704B091A80426B5A89B05C02F3F19F03A
:1004D0000196A11DB11D3FBFBA2FA92F982F8827C4
:1004E000BC01CD01620F711D811D911D42E0660F9F
:1004F000771F881F991F4A95D1F708958F929F9271
:10050000AF92BF92CF92DF92EF92FF926B017C018C
:100510000E9459024B015C01C114D104E104F104B1
:10052000B9F00E945902681979098A099B09683E45
:1005300073408105910580F321E0C21AD108E108DA
:10054000F10888EE880E83E0981EA11CB11CE4CF50
:10055000FF90EF90DF90CF90BF90AF909F908F90E3
:100560000895AF92BF92CF92DF92EF92FF920F93D6
:100570001F93CF93DF936C017B018B01040F151F39
:10058000EB015E01AE18BF08C017D10759F06991A1
:10059000D601ED91FC910190F081E02DC6011995F5
:1005A000892B79F7C501DF91CF911F910F91FF90B2
:1005B000EF90DF90CF90BF90AF900895809142046C
:1005C00090914304A0914404B09145040196A11D6B
:1005D000B11D8093420490934304A0934404B093CC
:1005E00045040895FC01538D448D252F30E0842F60
:1005F00090E0821B930B541710F0CF96089501974B
:100600000895FC01918D828D981761F0A28DAE0F37
:10061000BF2FB11D5D968C91928D9F5F9F73928FBE
:1006200090E008958FEF9FEF0895FC01918D828DEA
:10063000981731F0828DE80FF11D858D90E00895B7
:100640008FEF9FEF0895FC01918D228D892F90E00F
:10065000805C9F4F821B91098F739927089589EAC7
:1006600094E00E94230321E0892B09F420E0822FEB
:100670000895FC01A48DA80FB92FB11DA35ABF4F37
:100680002C91848D90E001968F739927848FA68991
:10069000B7892C93A089B1898C91837080648C93E5
:1006A000938D848D981306C00288F389E02D808194
:1006B0008F7D80830895EF92FF920F931F93CF93C6
:1006C000DF93EC0181E0888F9B8D8C8D98131AC08D
:1006D000E889F989808185FF15C09FB7F894EE8974
:1006E000FF896083E889F9898081837080648083D1
:1006F0009FBF81E090E0DF91CF911F910F91FF901C
:10070000EF900895F62E0B8D10E00F5F1F4F0F73C3
:100710001127E02E8C8D8E110CC00FB607FCFACF7E
:10072000E889F989808185FFF5CFCE010E943903E0
:10073000F1CFEB8DEC0FFD2FF11DE35AFF4FF0824F
:100740009FB7F8940B8FEA89FB8980818062CFCFB5
:10075000CF93DF93EC01888D8823B9F0AA89BB89F8
:10076000E889F9898C9185FD03C0808186FD0DC0E3
:100770000FB607FCF7CF8C9185FFF2CF808185FF04
:10078000EDCFCE010E943903E9CFDF91CF910895DB
:1007900080E090E0892B29F00E942F0381110E94B4
:1007A000000080E090E0892B49F080E090E0892B08
:1007B00029F00E94000081110E94000080E090E07A
:1007C000892B49F080E090E0892B29F00E940000FD
:1007D00081110E94000080E090E0892B49F080E0C8
:1007E00090E0892B29F00E94000081110C940000F8
:1007F0000895BF92CF92DF92EF92FF920F931F93D3
:10080000CF93DF931092490486E0B82E01E09BE37A
:10081000E92E96E0F92E109149041E3018F5B19E8C
:10082000E0011124C65BDB4F8A818823B9F06A811D
:10083000C8808C2D0E94FA016A81D98060278D2D95
:100840000E94FA01C7010197F1F76A8160278C2D98
:100850000E94FA016A818D2D0E94FA011F5F109398
:100860004904D9CFDF91CF911F910F91FF90EF9065
:10087000DF90CF90BF900895FC0101900020E9F730
:100880003197AF01481B590BBC0189EA94E00C94E5
:10089000B1028CE492E00C943C048F929F92AF9250
:1008A000BF920F931F93CF93DF93CDB7DEB7A1977E
:1008B0000FB6F894DEBF0FBECDBF19A2423008F4C8
:1008C0004AE08E010F5D1F4F842E912CB12CA12C7C
:1008D000A50194010E94270CE62FB901CA01EA3054
:1008E000F4F4E05DD801EE938D01232B242B252B0E
:1008F00079F790E080E0109719F0CD010E943C0458
:10090000A1960FB6F894DEBF0FBECDBFDF91CF9199
:100910001F910F91BF90AF909F908F900895E95CC9
:10092000E1CFCF93DF93D0E0C0E0009719F00E94B1
:100930003C04EC010E9449048C0F9D1FDF91CF9174
:100940000895009711F00C943C0490E080E0089525
:10095000CF93DF93682F70E090E080E04AE00E9440
:100960004D04EC010E9449048C0F9D1FDF91CF9133
:1009700008951F920F920FB60F9211242F933F9359
:100980008F939F93AF93BF938091A1049091A20402
:10099000A091A304B091A4043091A00423E0230FFC
:1009A0002D3758F50196A11DB11D2093A004809309
:1009B000A1049093A204A093A304B093A4048091F3
:1009C000A5049091A604A091A704B091A804019653
:1009D000A11DB11D8093A5049093A604A093A70424
:1009E000B093A804BF91AF919F918F913F912F91A8
:1009F0000F900FBE0F901F90189526E8230F0296B8
:100A0000A11DB11DD2CF1F920F920FB60F921124CC
:100A10000BB60F922F933F934F935F936F937F93F8
:100A20008F939F93AF93BF93EF93FF9389EA94E0E3
:100A30000E943903FF91EF91BF91AF919F918F91E8
:100A40007F916F915F914F913F912F910F900BBECE
:100A50000F900FBE0F901F9018951F920F920FB618
:100A60000F9211240BB60F922F938F939F93EF93B6
:100A7000FF93E091B904F091BA048081E091BF0442
:100A8000F091C00482FD1DC090818091C2048F5FEF
:100A90008F732091C304821741F0E091C204F0E00B
:100AA000E755FB4F958F8093C204FF91EF919F9183
:100AB0008F912F910F900BBE0F900FBE0F901F9034
:100AC00018958081F2CF1F920F920FB60F921124CA
:100AD0000BB60F922F933F934F935F936F937F9338
:100AE0008F939F93AF93BF93EF93FF93E09146044F
:100AF000F09147041995FF91EF91BF91AF919F91AC
:100B00008F917F916F915F914F913F912F910F90B6
:100B10000BBE0F900FBE0F901F901895CF93DF93D1
:100B2000CDB7DEB762970FB6F894DEBF0FBECDBF6C
:100B3000789484B5826084BD84B5816084BD85B5B8
:100B4000826085BD85B5816085BD80916E008160C4
:100B500080936E001092810080918100826080936A
:100B6000810080918100816080938100809180006C
:100B70008160809380008091B10084608093B10097
:100B80008091B00081608093B0008091910082607C
:100B90008093910080919100816080939100809179
:100BA00090008160809390008091A100826080938A
:100BB000A1008091A10081608093A1008091A0009C
:100BC00081608093A0008091210182608093210147
:100BD00080912101816080932101809120018160B9
:100BE0008093200180917A00846080937A008091C4
:100BF0007A00826080937A0080917A00816080938D
:100C00007A0080917A00806880937A001092C10007
:100C1000E091B904F091BA0482E08083E091B504D8
:100C2000F091B6041082E091B704F091B80490E11D
:100C300090831092C104E091BD04F091BE0486E05F
:100C40008083E091BB04F091BC048081806180834B
:100C5000E091BB04F091BC04808188608083E091C6
:100C6000BB04F091BC04808180688083E091BB0468
:100C7000F091BC0480818F7D80832EED32E0309333
:100C800047042093460481E080936F009093810095
:100C90001092800080E293E090938700809386001A
:100CA00081E1809381008FE492E00E94910489E7C2
:100CB00092E00E94A1044AE063E070E080E090E0EE
:100CC0000E944D0489E892E00E94A1044AE066E097
:100CD00070E080E090E00E944D040E944904109270
:100CE0009E0416E080919E04863008F048C00E9461
:100CF000490410929F0480919F048330D0F58CE9C1
:100D000092E00E94A10460919F0470E090E080E076
:100D10004AE00E944D0481EB92E00E94A1046091A0
:100D20009E0470E090E080E04AE00E944D048AEB6F
:100D300092E00E94A10480919F04E0919E04189F7C
:100D4000C0011124E80FF92FF11DEE0FFF1FE15E26
:100D5000FD4F808191810E94910464E170E080E008
:100D600090E00E947E0280919F048F5F80939F0499
:100D7000C2CF80919E048F5F80939E04B3CF0E9468
:100D8000490410929E0480919E048E3080F484EC7D
:100D900092E00E94A1046AE070E080E090E00E948E
:100DA0007E0280919E048F5F80939E04ECCF86EC40
:100DB00092E00E94A10410929E0480919E048930CA
:100DC00080F484EC92E00E94A1046AE070E080E08C
:100DD00090E00E947E0280919E048F5F80939E042B
:100DE000ECCF84EC92E00E94910410929E048091DA
:100DF0009E04883080F484EC92E00E94A1046AE0B2
:100E000070E080E090E00E947E0280919E048F5FFF
:100E100080939E04ECCF85ED92E00E94A104109295
:100E20009E0480919E04883080F484EC92E00E94BD
:100E3000A1046AE070E080E090E00E947E02809170
:100E40009E048F5F80939E04ECCF84EC92E00E941E
:100E500091040E949D0B26E930E040E050E00E94A2
:100E6000F50B6E5C7F4F8F4F9F4F0E947E0210925A
:100E70009E0480919E04843050F48EE492E00E949F
:100E8000910480919E048F5F80939E04F2CF6AE06C
:100E900070E080E090E00E947E0284EF92E00E9489
:100EA000A10410929E0480919E048A3080F489E906
:100EB00093E00E94A1046AE070E080E090E00E946C
:100EC0007E0280919E048F5F80939E04ECCF89E91F
:100ED00093E00E9491040E949D0B26E930E040E0DF
:100EE00050E00E94F50B6E5C7F4F8F4F9F4F0E942A
:100EF0007E0210929E0480919E04833000F582E66B
:100F000093E00E94A104E0919E04F0E0ED5BFD4FB0
:100F100080810E94A80410919E04E12FF0E0ED5B17
:100F2000FD4F62E080810E94280264E170E080E071
:100F300090E00E947E021F5F10939E04DCCF10920F
:100F40009E0480919E04823040F40E944904809166
:100F50009E048F5F80939E04F4CF89E193E00E940A
:100F6000A10410929E0436E0832E912CA12CB12C6A
:100F7000C0909E04D12CF12CE12C0E949D0BA50168
:100F800094010E94F50B6C5F7F4F8F4F9F4FC616E9
:100F9000D706E806F90684F489E993E00E94A104E3
:100FA0006AE070E080E090E00E947E0280919E0402
:100FB0008F5F80939E04DCCF89E993E00E949104C7
:100FC0006AE070E080E090E00E947E0210929E0451
:100FD00080919E04863028F582E693E00E94A10469
:100FE000E0919E04F0E0EA5BFD4F80810E94A8043E
:100FF00010919E04E12FF0E0EA5BFD4F008161E07B
:10100000802F0E94280264E170E080E090E00E945E
:101010007E0260E0802F0E94FA011F5F10939E0401
:10102000D7CF10929E0480919E04823050F48EE4BB
:1010300092E00E94910480919E048F5F80939E04B1
:10104000F2CF8FE393E00E94910410929E041092DD
:101050009F041092490425E0F22E02E0EE24E3946E
:1010600016E0E0914904EE3008F092C0E63009F055
:101070007FC0E0929E0410929F0420919E0430E075
:101080001E9FF0011124E65BFB4FD901A45EBD4F0A
:101090008C918083A0919F048A2F90E0DC01AA5E4E
:1010A000BD4F4C9141831282129FD001139FB00D0E
:1010B0001124A80FB91FAA0FBB1FA15EBD4F8D91B0
:1010C0009C919483838380E693E00E94A104E09145
:1010D00049041E9FF0011124E65BFB4F838194813C
:1010E0000E94A1048BE693E00E94A104E0914904D0
:1010F0001E9FF0011124E65BFB4F608170E090E0E1
:1011000080E04AE00E944D0487E793E00E94A1043A
:10111000E09149041E9FF0011124E65BFB4F8181A1
:101120000E94A804D09049041D9DC00111249C0177
:10113000265B3B4F5901F901908061E0892D0E94A7
:101140002802F501C18061E08C2D0E94280260E038
:10115000892D0E94FA0161E08C2D0E94FA01809194
:101160009F048F5F80939F04D394D092490479CFDA
:10117000EB3019F400939E047ECFEC3019F4009309
:101180009F047BCFED3009F078CFF0929F0475CFAC
:1011900085E893E00E94910410929E0406E0D02E10
:1011A0008EE0C82E00919E04023008F060C01092BC
:1011B0004904109149041E3028F5D19EC001112424
:1011C0009C01265B3B4F7901F901B08061E08B2DDA
:1011D0000E94FA01F701F18060E08F2D0E94FA0170
:1011E0006EE170E080E090E00E947E0260E08B2D76
:1011F0000E94FA0161E08F2D0E94FA011F5F109397
:101200004904D7CF6EE170E080E090E00E947E025A
:10121000C092490410914904112329F1D19EC001C3
:1012200011249C01265B3B4F7901F901B08061E0FC
:101230008B2D0E94FA01F701F18060E08F2D0E9452
:10124000FA016EE170E080E090E00E947E0260E0D2
:101250008B2D0E94FA0161E08F2D0E94FA0111503E
:1012600010934904D7CF0F5F00939E049BCF109239
:101270009E0416E0D12E00919E04023008F046C074
:101280006AEF70E080E090E00E947E0210924904D4
:10129000109149041E30A8F4D19EC00111249C0174
:1012A000265B3B4F790161E0F90180810E94FA01E0
:1012B00060E0F70181810E94FA011F5F10934904E9
:1012C000E7CF6AEF70E080E090E00E947E0210922B
:1012D0004904109149041E30A8F4D19EC001112484
:1012E0009C01265B3B4F790160E0F90180810E94FF
:1012F000FA0161E0F70181810E94FA011F5F1093FA
:101300004904E7CF0F5F00939E04B5CF8BE993E0CC
:101310000E94A10410929E04B4E18B2E912CA12C6A
:10132000B12CC0909E04D12CF12CE12C0E949D0B7D
:10133000A50194010E94F50B665F7F4F8F4F9F4F71
:10134000C616D706E806F90684F489E993E00E94F8
:10135000A10464E170E080E090E00E947E02809150
:101360009E048F5F80939E04DCCF84EB93E00E9409
:10137000A10489E993E00E94910464E170E080E0B7
:1013800090E00E947E028AEB93E00E94A1041092FA
:101390009E04A6E08A2E912CA12CB12CC0909E0414
:1013A000D12CF12CE12C0E949D0BA50194010E94EF
:1013B000F50B6C5F7F4F8F4F9F4FC616D706E80621
:1013C000F90684F489E993E00E94A10464E170E0E5
:1013D00080E090E00E947E0280919E048F5F809367
:1013E0009E04DCCF10929E0480919E04833040F4D2
:1013F0000E94490480919E048F5F80939E04F4CFE5
:1014000085ED93E00E94A104E6E0FE2E6E01FDE072
:10141000CF0ED11C44244A94F6E05F2E0E94F903BB
:1014200010929F046CE0662E7DE0772E10919F0451
:10143000163008F006C110924804009148040630A6
:1014400060F4E02FF0E0EA5BFD4F61E080810E94F4
:10145000FA010F5F00934804F0CFE12FF0E0EA5B60
:10146000FD4F60E080810E94FA0110929E049BE093
:10147000E92E2AE0B22E39E0A32E48E0942E57E060
:10148000852E00919E0430909F04033008F0D4C054
:1014900010E0F801ED5BFD4F80810E94D101892BA6
:1014A00009F0C4C0F09EF001F19EF00D1124E30D8F
:1014B000F11DEE0FFF1FE15EFD4F00811181F6016E
:1014C0002F2D11922A95E9F7198B088BF601DE0171
:1014D00017968F2D01900D928A95E1F7C8010E9411
:1014E000910433E00D3D130731F083E0013E18070E
:1014F00041F581E08C8786E0FE013796DE0111968A
:1015000001900D928A95E1F70E810F3F09F463C0B7
:10151000F09E80011124065B1B4FF801928181E04F
:10152000982792839281992309F451C06281682798
:1015300081810E94FA01F801628180810E94FA0192
:101540004AC0E3E0073E1E0711F482E0D3CF83E0F8
:10155000F3E00D3E1F0771F284E023E0023F120723
:1015600049F285E033E0063F130721F283E00B3FA9
:10157000180711F45C86BFCFE3E00F3F1E0711F49C
:101580008C86B9CFF4E004301F0711F49C86B3CFEA
:1015900024E00930120711F4AC86ADCF34E00F30EF
:1015A000130711F4BC86A7CF84E00531180711F4A6
:1015B000EC86A1CFE4E00B311E0711F46C869BCFC3
:1015C0000F51144011F47C8696CF4C8694CF9281B3
:1015D000992309F4ABCF1092490430904904FDE0FF
:1015E000F31598F0F39C80011124065B1B4F60E01B
:1015F000F80180810E94FA0161E0F80181810E9476
:10160000FA01339430924904E8CF89EA94E00E94C9
:10161000A803E0919E04F0E0ED5BFD4F80810E9405
:10162000D101892B19F40E94F903F3CF80919E0414
:101630008F5F80939E0425CFE1E0E30DE0939F044C
:10164000F5CE0E94C803EACEE9EAF4E013821282E2
:1016500088EE93E0A0E0B0E084839583A683B7830F
:1016600088E092E09183808385EC90E09587848781
:1016700084EC90E09787868780EC90E0918B808B5C
:1016800081EC90E0938B828B82EC90E0958B848B45
:1016900086EC90E0978B868B118E128E138E148EB3
:1016A00008958F929F92AF92BF92CF92DF92EF9266
:1016B000FF92CF93DF93EC01688179818A819B81CE
:1016C000611571058105910521F464E279ED8BE5E1
:1016D00097E02DE133EF41E050E00E94F50B490126
:1016E0005A019B01AC01A7EAB1E40E94140C6B0102
:1016F0007C01ACEEB4EFA50194010E94220CC60E51
:10170000D71EE81EF91EF7FE06C081E0C81AD108F0
:10171000E10880E8F80AC882D982EA82FB82C70120
:10172000B6019F77DF91CF91FF90EF90DF90CF9040
:10173000BF90AF909F908F9008958F929F92AF929D
:10174000BF92CF92DF92EF92FF9260910002709170
:1017500001028091020290910302611571058105D9
:10176000910521F464E279ED8BE597E02DE133EF0B
:1017700041E050E00E94F50B49015A019B01AC0188
:10178000A7EAB1E40E94140C6B017C01ACEEB4EF4B
:10179000A50194010E94220CC60ED71EE81EF91E58
:1017A000F7FE06C081E0C81AD108E10880E8F80A0F
:1017B000C0920002D0920102E0920202F092030273
:1017C000C701B6019F77FF90EF90DF90CF90BF9059
:1017D000AF909F908F9008956093000270930102E4
:1017E00080930202909303020895052E97FB1EF446
:1017F00000940E940C0C57FD07D00E94270C07FC98
:1018000003D04EF40C940C0C5095409530952195D6
:101810003F4F4F4F5F4F089590958095709561951C
:101820007F4F8F4F9F4F08950E94490CA59F900DA9
:10183000B49F900DA49F800D911D11240895B7FFB2
:101840000C94140C0E94140C821B930B0895A1E2BB
:101850001A2EAA1BBB1BFD010DC0AA1FBB1FEE1F2A
:10186000FF1FA217B307E407F50720F0A21BB30B75
:10187000E40BF50B661F771F881F991F1A9469F7F1
:1018800060957095809590959B01AC01BD01CF014D
:101890000895A29FB001B39FC001A39F700D811D49
:1018A0001124911DB29F700D811D1124911D089569
:1018B000EE0FFF1F881F8BBF0790F691E02D199444
:0418C000F894FFCFCA
:1018C40001000000000000005B03B102F202A80363
:1018D40023030103150329272523211F17191BDDC2
:1018E40003E103E703ED03F203F603FB03FF030441
:1018F4000409040F042504150429041B04330437C4
:10190400041F041A18161C1E202224260D0A002D5A
:101914003E204B6579626F617264206172726179F5
:101924002077617320636F6E666967757261746591
:101934006420746875733A20002153697A65206FB6
:101944006620726F77733A20002053697A65206F9E
:101954006620636F6C756D6E733A200023204B65AF
:101964007920706F736974696F6E3A20526F7720B3
:101974000020436F6C756D6E200020427574746F87
:101984006E3A20002300204D41494E4B4559424FA9
:101994004152442000204D434455204145524F5369
:1019A4004F465420413332302053494D554C415415
:1019B4004F5220002320436F6E6669677572696E0B
:1019C4006720746865207075736820627574746F1D
:1019D4006E20696E70757473002320436F6E6669A0
:1019E400677572696E672074686520707573682006
:1019F400627574746F6E206F757470757473000AF9
:101A04000D202320536574206C6564732070696E07
:101A140073206173206F7574707574732E2E2E008D
:101A24000A205365742070696E200020416E6F6433
:101A3400652070696E200020436174686F646520BE
:101A440070696E20000A0A0A2054657374696E670F
:101A5400206C6564732E2E2E2E2E000A0A205374D9
:101A6400617274696E67204D61696E4B6579626F4E
:101A740061726400446F6E6521000A0A2052656138
:101A8400647920666F722070726573732062757456
:101A9400746F6E21000A202D3E200A0D00454E472A
:101AA40000424C45454400505245535300454C4573
:101AB4004300485944004655454C004150550043A5
:101AC4004F4E4400444F4F52005748454C4C00463B
:101AD4002F43544C00434C525F4C00535953004322
:101AE4004C525F5200414C4C00544F20434F4E46E1
:101AF40049470052434C00454D45522F43414E4304
:021B04000000DF
:00000001FF
