:100000000C9437010C9468010C9468010C946801FD
:100010000C9468010C9468010C9468010C946801BC
:100020000C9468010C9468010C9468010C946801AC
:100030000C9468010C9468010C9468010C9468019C
:100040000C9468010C9468010C9468010C9468018C
:100050000C9459050C9468010C9468010C94AF043D
:100060000C9468010C9423050C94F9040C94680119
:100070000C9468010C9468010C9468010C9468015C
:100080000C9468010C9468010C9468010C9468014C
:100090000C9468010C9468010C9468010C9468013C
:1000A0000C9468010C9468010C9468010C9468012C
:1000B0000C9468010C9468010C9468010C9468011C
:1000C0000C9468010C9468010C9468010C9468010C
:1000D0000C9468010C9468010C9468010C946801FC
:1000E0000C9468010C94AD010C949A010C94B1012C
:1000F0000C94A7010C94F2020C9488010C94CD018D
:100100000C9423030C9415030C9492010C94DE02BE
:100110000C948E010C94C9010C94C8010C94BB0181
:100120000C9496010C9401030C94B5010C94BF013E
:100130000C94B1020C94A3010C94C3010C94A80379
:100140000C94A30D0C949D010C945B030000210002
:10015000240027002A002D00300033000101000098
:10016000040107010A0100002200250028002B00DD
:100170002E003100340002010000050108010B01CE
:10018000000020002300260029002C002F00320050
:100190000001000003010601090105050505070529
:1001A00008080808020202020A0A080804040404F3
:1001B000010101010101010103030303030303031F
:1001C000040707070C0C0C0C0C0C0C0C02020202AE
:1001D00006060606060606060B0B0B0B0B0B0B0B97
:1001E0000102102020080810204010204080020149
:1001F000020108040201010204081020408080402E
:10020000201008040201800402018040201008042C
:1002100002010804020101020408102040800102CA
:1002200004081020408000000A0B02090C0D0E0883
:1002300007030401000000000000000000000000AF
:1002400000000000000000000000000000000000AE
:10025000000012111000000000000000000000006B
:10026000000000000000000000000000A30D1124A9
:100270001FBECFEFD1E2DEBFCDBF00E00CBF19E063
:10028000A0E0B2E0E4EDFDE100E00BBF02C00790AA
:100290000D92A031B107D9F72AE0A0E1B9E001C081
:1002A0001D92AC3DB207E1F711E0C7E3D1E000E0F9
:1002B00006C021970109802FFE010E94D70EC63388
:1002C000D10780E00807A9F70E9484050C94E80E86
:1002D0000C9400008150823108F05AC0E82FF0E001
:1002E0008827EA58FE4F8F4F0C94D70E96019A013B
:1002F00088018E019201C8019D01A301A701AD01F2
:10030000B101B501BB01BF01C801C301C901CD01E4
:10031000809180008F778093800008958091800085
:100320008F7DF9CF80918000877FF5CF84B58F775F
:1003300084BD089584B58F7DFBCF8091B0008F7709
:100340008093B00008958091B0008F7DF9CF8091A7
:1003500090008F77809390000895809190008F7D1A
:10036000F9CF80919000877FF5CF8091A0008F77A3
:100370008093A00008958091A0008F7DF9CF809197
:10038000A000877FF5CF809120018F778093200197
:100390000895809120018F7DF9CF80912001877F82
:1003A000F5CFCF93DF93282F30E0F901EA5DFD4FC1
:1003B0008491F901E052FE4FD491F901E656FE4FC7
:1003C000C491CC23A1F081110E946A01EC2FF0E0CE
:1003D000EE0FFF1FE058FE4FA591B491EC91ED2375
:1003E00081E090E009F480E0DF91CF91089580E012
:1003F00090E0FACF1F93CF93DF93282F30E0F901DD
:10040000EA5DFD4F8491F901E052FE4FD491F9016C
:10041000E656FE4FC491CC23A9F0162F81110E94FD
:100420006A01EC2FF0E0EE0FFF1FEA59FE4FA59195
:10043000B4918FB7F894EC91111108C0D095DE23D8
:10044000DC938FBFDF91CF911F910895DE2BF8CF02
:10045000CF93DF9390E0FC01E052FE4F249186564B
:100460009E4FFC0184918823D1F090E0880F991F62
:10047000FC01E45BFE4FA591B491FC01EA59FE4FEB
:10048000C591D491623071F49FB7F8943C91822F5A
:10049000809583238C93E8812E2B28839FBFDF9147
:1004A000CF9108958FB7F894EC912E2B2C938FBF9A
:1004B000F6CF3FB7F89480913B0A90913C0AA09107
:1004C0003D0AB0913E0A26B5A89B05C02F3F19F002
:1004D0000196A11DB11D3FBFBA2FA92F982F8827C4
:1004E000BC01CD01620F711D811D911D42E0660F9F
:1004F000771F881F991F4A95D1F708958F929F9271
:10050000AF92BF92CF92DF92EF92FF926B017C018C
:100510000E9459024B015C01C114D104E104F104B1
:10052000B9F00E945902681979098A099B09683E45
:1005300073408105910580F321E0C21AD108E108DA
:10054000F10888EE880E83E0981EA11CB11CE4CF50
:10055000FF90EF90DF90CF90BF90AF909F908F90E3
:100560000895AF92BF92CF92DF92EF92FF920F93D6
:100570001F93CF93DF936C017B018B01040F151F39
:10058000EB015E01AE18BF08C017D10759F06991A1
:10059000D601ED91FC910190F081E02DC6011995F5
:1005A000892B79F7C501DF91CF911F910F91FF90B2
:1005B000EF90DF90CF90BF90AF9008958091100999
:1005C00090911109A0911209B09113090196A11DF2
:1005D000B11D8093100990931109A0931209B09353
:1005E00013090895FC01538D448D252F30E0842F8D
:1005F00090E0821B930B541710F0CF96089501974B
:100600000895FC01918D828D981761F0A28DAE0F37
:10061000BF2FB11D5D968C91928D9F5F9F73928FBE
:1006200090E008958FEF9FEF0895FC01918D828DEA
:10063000981731F0828DE80FF11D858D90E00895B7
:100640008FEF9FEF0895FC01918D228D892F90E00F
:10065000805C9F4F821B91098F73992708958FE3C8
:100660009AE00E94230321E0892B09F420E0822FE5
:100670000895FC01A48DA80FB92FB11DA35ABF4F37
:100680002C91848D90E001968F739927848FA68991
:10069000B7892C93A089B1898C91837080648C93E5
:1006A000938D848D981306C00288F389E02D808194
:1006B0008F7D80830895EF92FF920F931F93CF93C6
:1006C000DF93EC0181E0888F9B8D8C8D98131AC08D
:1006D000E889F989808185FF15C09FB7F894EE8974
:1006E000FF896083E889F9898081837080648083D1
:1006F0009FBF81E090E0DF91CF911F910F91FF901C
:10070000EF900895F62E0B8D10E00F5F1F4F0F73C3
:100710001127E02E8C8D8E110CC00FB607FCFACF7E
:10072000E889F989808185FFF5CFCE010E943903E0
:10073000F1CFEB8DEC0FFD2FF11DE35AFF4FF0824F
:100740009FB7F8940B8FEA89FB8980818062CFCFB5
:10075000CF93DF93EC01888D8823B9F0AA89BB89F8
:10076000E889F9898C9185FD03C0808186FD0DC0E3
:100770000FB607FCF7CF8C9185FFF2CF808185FF04
:10078000EDCFCE010E943903E9CFDF91CF910895DB
:1007900080E090E0892B29F00E942F0381110E94B4
:1007A000000080E090E0892B49F080E090E0892B08
:1007B00029F00E94000081110E94000080E090E07A
:1007C000892B49F080E090E0892B29F00E940000FD
:1007D00081110E94000080E090E0892B49F080E0C8
:1007E00090E0892B29F00E94000081110C940000F8
:1007F0000895BF92CF92DF92EF92FF920F931F93D3
:10080000CF93DF931092140A86E0B82E01E09BE1AB
:10081000C92E93E0D92E1091140A1C3128F5B19EEF
:10082000E0011124C459D64F8A81F9806A81882356
:10083000C9F0E8808E2D0E94FA016A8160278F2D11
:100840000E94FA01C6010197F1F76A8160278E2D97
:100850000E94FA016A818F2D0E94FA011F5F109396
:10086000140AD9CF6027F7CFDF91CF911F910F9155
:10087000FF90EF90DF90CF90BF900895FC01019022
:100880000020E9F73197AF01481B590BBC018FE3FA
:100890009AE00C94B1028F929F92AF92BF920F9305
:1008A0001F93CF93DF93CDB7DEB7A1970FB6F89420
:1008B000DEBF0FBECDBF19A2423008F44AE08E0160
:1008C0000F5D1F4F842E912CB12CA12CA5019401FA
:1008D0000E94A60EE62FB901CA01EA30F4F4E05DE9
:1008E000D801EE938D01232B242B252B79F790E053
:1008F00080E0109719F0CD010E943E04A1960FB63A
:10090000F894DEBF0FBECDBFDF91CF911F910F9145
:10091000BF90AF909F908F900895E95CE1CFCF9307
:10092000DF93D0E0C0E0009719F00E943E04EC0194
:100930008BE195E00E943E048C0F9D1FDF91CF91CB
:100940000895009711F00C943E0490E080E0089523
:10095000682F70E090E080E04AE00C944B041F9216
:100960000F920FB60F9211242F933F938F939F9363
:10097000AF93BF938091370A9091380AA091390ABA
:10098000B0913A0A3091360A23E0230F2D3758F5FB
:100990000196A11DB11D2093360A8093370A9093CA
:1009A000380AA093390AB0933A0A80913B0A909191
:1009B0003C0AA0913D0AB0913E0A0196A11DB11DCD
:1009C00080933B0A90933C0AA0933D0AB0933E0A61
:1009D000BF91AF919F918F913F912F910F900FBE3B
:1009E0000F901F90189526E8230F0296A11DB11DA8
:1009F000D2CF1F920F920FB60F9211240BB60F9207
:100A00002F933F934F935F936F937F938F939F9316
:100A1000AF93BF93EF93FF938FE39AE00E94390364
:100A2000FF91EF91BF91AF919F918F917F916F91C6
:100A30005F914F913F912F910F900BBE0F900FBE82
:100A40000F901F9018951F920F920FB60F921124BE
:100A50000BB60F922F938F939F93EF93FF93E09199
:100A60004F0AF091500A8081E091550AF091560AA0
:100A700082FD1DC090818091580A8F5F8F732091F5
:100A8000590A821741F0E091580AF0E0E15CF54F15
:100A9000958F8093580AFF91EF919F918F912F919D
:100AA0000F900BBE0F900FBE0F901F901895808176
:100AB000F2CF1F920F920FB60F9211240BB60F9226
:100AC0002F933F934F935F936F937F938F939F9356
:100AD000AF93BF93EF93FF93E0916709F09168099B
:100AE0001995FF91EF91BF91AF919F918F917F9158
:100AF0006F915F914F913F912F910F900BBE0F908F
:100B00000FBE0F901F901895CF93DF93CDB7DEB730
:100B100062970FB6F894DEBF0FBECDBF789484B550
:100B2000826084BD84B5816084BD85B5826085BDE9
:100B300085B5816085BD80916E00816080936E0077
:100B40001092810080918100826080938100809169
:100B5000810081608093810080918000816080931A
:100B600080008091B10084608093B1008091B000DA
:100B700081608093B00080919100826080939100A9
:100B800080919100816080939100809190008160BC
:100B9000809390008091A10082608093A100809159
:100BA000A10081608093A1008091A000816080936A
:100BB000A000809121018260809321018091210118
:100BC00081608093210180912001816080932001C8
:100BD00080917A00846080937A0080917A008260AC
:100BE00080937A0080917A00816080937A0080916E
:100BF0007A00806880937A001092C100E0914F0AD9
:100C0000F091500A82E08083E0914B0AF0914C0A07
:100C10001082E0914D0AF0914E0A90E1908310927B
:100C2000570AE091530AF091540A86E08083E091DC
:100C3000510AF091520A808180618083E091510ACB
:100C4000F091520A808188608083E091510AF0918E
:100C5000520A808180688083E091510AF091520AA3
:100C600080818F7D80832EED32E030936809209360
:100C7000670981E080936F0090938100109280005B
:100C80008093160980E49FE19093150980931409DD
:100C9000909387008093860081E1809381008CE9A6
:100CA00092E00E948F0486EC92E00E94A1044AE048
:100CB00065E070E080E090E00E944B0486ED92E0F9
:100CC0000E94A1044AE067E070E080E090E00E94AA
:100CD0004B048BE195E00E943E0410926B0917E0F3
:100CE00080916B09853008F042C08BE195E00E944D
:100CF0003E0410926A0980916A09873090F589EE66
:100D000092E00E94A10480916A090E94A8048EEFDB
:100D100092E00E94A10480916B090E94A80487E0E0
:100D200093E00E94A10480916B09E0916A09189FE9
:100D3000C0011124E80FF92FF11DEE0FFF1FEA5E2D
:100D4000FD4F808191810E948F046AE070E080E015
:100D500090E00E947E0280916A098F5F80936A0909
:100D6000CACF80916B098F5F80936B09B9CF8EE8F2
:100D700093E00E94A10410926B0980916B098E3060
:100D800080F481E193E00E94A1046AE070E080E0D9
:100D900090E00E947E0280916B098F5F80936B09C7
:100DA000ECCF83E193E00E94A10410926B09809143
:100DB0006B09893080F481E193E00E94A1046AE02C
:100DC00070E080E090E00E947E0280916B098F5F6E
:100DD00080936B09ECCF81E193E00E948F04109225
:100DE0006B0980916B09883080F481E193E00E9467
:100DF000A1046AE070E080E090E00E947E028091B1
:100E00006B098F5F80936B09ECCF82E293E00E94C5
:100E1000A10410926B0980916B09883080F481E104
:100E200093E00E94A1046AE070E080E090E00E94FC
:100E30007E0280916B098F5F80936B09ECCF81E11B
:100E400093E00E948F040E941C0E26E930E040E0EF
:100E500050E00E94740E6E5C7F4F8F4F9F4F0E9438
:100E60007E0210926B0980916B09843050F48DE101
:100E700095E00E948F0480916B098F5F80936B09CE
:100E8000F2CF6AE070E080E090E00E947E0281E4B0
:100E900093E00E94A10410926B0980916B098A3043
:100EA00080F48EE494E00E94A1046AE070E080E0A7
:100EB00090E00E947E0280916B098F5F80936B09A6
:100EC000ECCF8EE494E00E948F040E941C0E26E971
:100ED00030E040E050E00E94740E6E5C7F4F8F4F18
:100EE0009F4F0E947E0286E693E00E94A10484E761
:100EF00094E00E94A10410926B0910926A0910926A
:100F0000140A02E0FF24F39417E08091140A84315C
:100F100008F096C0863009F089C010926B09F092F3
:100F20006A0982E993E00E94A10481ED93E00E94A6
:100F3000A104E091140A24E0E29FF0011124E95E8B
:100F4000F64FA0916B09B0E0AE56BD4F8C918083F7
:100F50008FED93E00E94A104E091140A34E0E39F36
:100F6000F0011124E95EF64F80810E94A804E0910F
:100F7000140A84E0E89FF0011124E95EF64FA09185
:100F80006A09B0E0A756BD4F8C91818383EF93E04F
:100F90000E94A104E091140A24E0E29FF0011124D0
:100FA000E95EF64F81810E94A804A091140A34E002
:100FB000A39FD0011124A95EB64F80916A09E091E8
:100FC0006B09189FC0011124E80FF92FF11DEE0FD6
:100FD000FF1FE859FD4F8081918113969C938E935A
:100FE00012978FEF93E00E94A104E091140A84E02D
:100FF000E89FF0011124E95EF64F828193810E94FF
:10100000A1048FE893E00E94A10480916B098F5F97
:1010100080936B096AE070E080E090E00E947E02BD
:101020008091140A8F5F8093140A6FCF8D3009F07E
:101030007CCF10926B0900936A0982EB93E073CF27
:1010400010926B0910916B09173060F4E12FF0E0FA
:10105000EE56FD4F62E080810E9428021F5F1093D0
:101060006B09F0CF10926B0910916B09133088F463
:10107000E12FF0E0E756FD4F008161E0802F0E94F4
:10108000280261E0802F0E94FA011F5F10936B0914
:10109000EBCF8DE094E00E94A1048FE294E00E94E7
:1010A0008F046AE070E080E090E00E947E0280E5BC
:1010B00094E00E948F0483E794E00E94A1041092C0
:1010C0006B0910926A091092140A94E0F92E23E039
:1010D000E22E32E0D32ECC24C39416E007E08091B8
:1010E000140A8C3108F0B1C0863009F092C0C09269
:1010F0006B0910926A0982E993E00E94A104209191
:101100006B0930E0E091140A1E9FF0011124E459AC
:10111000F64FD901AD59BD4F8C918083A0916A09DA
:101120008A2F90E0DC01A45ABD4F4C91418312827A
:10113000029FD001039FB00D1124A80FB91FAA0F61
:10114000BB1FAA5EBD4F8D919C919483838381EEDA
:1011500094E00E94A104E091140A1E9FF001112462
:10116000E459F64F838194810E94A1048CEE94E0AF
:101170000E94A104E091140A1E9FF0011124E45979
:10118000F64F80810E94A80488EF94E00E94A10499
:10119000E091140A1E9FF0011124E459F64F818159
:1011A0000E94A8048BE195E00E943E049090140AEE
:1011B000199DC0011124FC01E459F64F5F018080A4
:1011C00061E0882D0E942802F501B18061E08B2D3D
:1011D0000E94280261E0882D0E94FA0160E08B2DB8
:1011E0000E94FA016EE170E080E090E00E947E02D1
:1011F00060E0882D0E94FA0161E08B2D0E94FA01C7
:1012000080916A098F5F80936A0993949092140A7F
:1012100066CF8D3039F4D0926B0910926A0982EB57
:1012200093E06BCF843139F4E0926B0910926A0934
:1012300083E994E062CF883109F061CFF0926B09C5
:1012400010926A098AEB94E058CF1092140A16E0C3
:10125000E091140AEC3178F41E9FF0011124E45956
:10126000F64F838194810E948F048091140A8F5FCE
:101270008093140AEDCF86E095E00E94A1041092BD
:101280006B0906E0BCE1CB2E80916B09811160C037
:101290001092140A1091140A1C3128F5019FC00104
:1012A00011249C012459364F7901F901D08061E065
:1012B0008D2D0E94FA01F701F18060E08F2D0E94D0
:1012C000FA0168E270E080E090E00E947E0260E057
:1012D0008D2D0E94FA0161E08F2D0E94FA011F5F9F
:1012E0001093140AD7CF68E270E080E090E00E948B
:1012F0007E02C092140A1091140A112329F1019F51
:10130000C00111249C012459364F7901F901D08084
:1013100061E08D2D0E94FA01F701F18060E08F2DD0
:101320000E94FA0168E270E080E090E00E947E0294
:1013300060E08D2D0E94FA0161E08F2D0E94FA017C
:1013400011501093140AD7CF81E080936B099CCF82
:1013500010926B09A6E0DA2E00916B09023008F0BA
:1013600046C066E970E080E090E00E947E02109244
:10137000140A1091140A1C31A8F4D19EC001112442
:101380009C012459364F790161E0F90180810E9466
:10139000FA0160E0F70181810E94FA011F5F10935A
:1013A000140AE7CF66E970E080E090E00E947E02D8
:1013B0001092140A1091140A1C31A8F4D19EC00195
:1013C00011249C012459364F790160E0F901808194
:1013D0000E94FA0161E0F70181810E94FA011F5F1A
:1013E0001093140AE7CF0F5F00936B09B5CF8EE11E
:1013F00095E00E94A10410926B09F4E08F2E912CCD
:10140000A12CB12CC0906B09D12CF12CE12C0E94A5
:101410001C0EA50194010E94740E6E5F7F4F8F4FCA
:101420009F4FC616D706E806F90684F48EE494E0CA
:101430000E94A10464E170E080E090E00E947E02DE
:1014400080916B098F5F80936B09DCCF87E395E018
:101450000E94A1048EE494E00E948F0464E170E095
:1014600080E090E00E947E028DE395E00E94A1045E
:1014700010926B09E4E08E2E912CA12CB12CC0901F
:101480006B09D12CF12CE12C0E941C0EA5019401BA
:101490000E94740E6E5F7F4F8F4F9F4FC616D70608
:1014A000E806F90684F48EE494E00E94A10464E165
:1014B00070E080E090E00E947E0280916B098F5F77
:1014C00080936B09DCCF10926B0980916B0982309D
:1014D00050F48BE195E00E943E0480916B098F5F90
:1014E00080936B09F2CF88E595E00E94A10497E014
:1014F000592E27E0622E36E1C32E3AE0D32E4EE17C
:10150000442E5BE1852E53E0952EFF24F39466E094
:10151000E62E5E01FDE0AF0EB11C7CE1772E0E944D
:10152000F90310926A0910916A09133008F053C048
:101530001092690900916909033060F4E02FF0E02E
:10154000E756FD4F61E080810E94FA010F5F009332
:101550006909F0CFE12FF0E0E756FD4F60E08081B0
:101560000E94FA0110926B0900916B0930906A0990
:10157000073068F510E0F801EE56FD4F80810E94BB
:10158000D101892BF1F4F801539CE00DF11D1124D8
:10159000EE0FFF1FE859FD4F808191810E948F045B
:1015A000E0916B09F0E0EE56FD4F80810E94D10181
:1015B000892B19F40E94F903F3CF8FE39AE00E947C
:1015C000A80380916B098F5F80936B09CDCF339413
:1015D00030926A09A8CF10926B098FE39AE00E94BB
:1015E0002303181619060CF5F601242D11922A95DD
:1015F000E9F78FE39AE00E942303892BB1F0C4013D
:101600000197F1F78FE39AE00E94010390916B0933
:10161000E92FF0E0EA5EF54F80838A3011F4F09212
:10162000150A9F5F90936B09E4CF8091150A882378
:1016300009F456C0D092350AC092340A1092150AA5
:101640008FE893E00E94A1048091340A9091350ABA
:101650000E94A1048FE893E00E94A1040091340A43
:101660001091350AF5012E2D11922A95E9F7198B63
:10167000088BF501DE0117968E2D01900D928A954B
:10168000E1F70115110509F459C260E675E0C801DA
:101690000E94DF0E892B39F5F98686E0FE01379628
:1016A000DE01119601900D928A95E1F7EE8183E0BB
:1016B00098E0EF3F09F444C2EC3109F037C290E002
:1016C00080E02B81E89EF001E99EF00D1124E459A1
:1016D000F64F228301968C31910599F77092140A86
:1016E0000E94C8031CCF68E675E0C8010E94DF0EA7
:1016F000892B11F41986D1CF61E775E0C8010E94EA
:10170000DF0E892B19F4F986FC86C7CF69E775E0EF
:10171000C8010E94DF0E892B11F41986F5CF62E80B
:1017200075E0C8010E94DF0E892B21F4F98682E062
:101730008C87B3CF6CE875E0C8010E94DF0E892B5F
:1017400011F41986F4CF67E975E0C8010E94DF0E35
:10175000892B19F4F98683E0EBCF6FE975E0C801B6
:101760000E94DF0E892B11F41986F5CF68EA75E027
:10177000C8010E94DF0E892B19F4F98684E0D8CFC6
:1017800062EB75E0C8010E94DF0E892B11F4198607
:10179000F5CF6DEB75E0C8010E94DF0E892B19F4BF
:1017A000F98685E0C5CF66EC75E0C8010E94DF0EC2
:1017B000892B11F41986F5CF60ED75E0C8010E9400
:1017C000DF0E892B19F4F986EC8667CF69ED75E099
:1017D000C8010E94DF0E892B11F41986F5CF63EE44
:1017E00075E0C8010E94DF0E892B19F4F9866C861A
:1017F00054CF6CEE75E0C8010E94DF0E892B11F406
:101800001986F5CF66EF75E0C8010E94DF0E892BBF
:1018100019F4F98688E08CCF61E076E0C8010E9477
:10182000DF0E892B11F41986F5CF6DE076E0C80143
:101830000E94DF0E892B19F4F98689E079CF67E1E0
:1018400076E0C8010E94DF0E892B11F41986F5CFCE
:1018500062E276E0C8010E94DF0E892B19F4F98656
:101860008AE066CF6EE276E0C8010E94DF0E892B27
:1018700011F41986F5CF6BE376E0C8010E94DF0E04
:10188000892B19F4F9868BE053CF65E476E0C80123
:101890000E94DF0E892B11F41986F5CF60E576E002
:1018A000C8010E94DF0E892B19F4F9868CE040CF25
:1018B0006BE576E0C8010E94DF0E892B11F41986D2
:1018C000F5CF67E676E0C8010E94DF0E892B19F498
:1018D000F9868DE02DCF60E776E0C8010E94DF0E2B
:1018E000892B11F41986F5CF6AE776E0C8010E94CA
:1018F000DF0E892B19F4F9868EE01ACF63E876E0C3
:10190000C8010E94DF0E892B11F41986F5CF6DE80E
:1019100076E0C8010E94DF0E892B19F4F9868FE06A
:1019200007CF68E976E0C8010E94DF0E892B11F429
:101930001986F5CF64EA76E0C8010E94DF0E892B94
:1019400019F4F98680E1F4CE6EEA76E0C8010E94CF
:10195000DF0E892B11F41986F5CF69EB76E0C8010B
:101960000E94DF0E892B19F4F98681E1E1CE65EC46
:1019700076E0C8010E94DF0E892B11F41986F5CF9D
:1019800062ED76E0C8010E94DF0E892B19F4F9861A
:1019900082E1CECE6CED76E0C8010E94DF0E892B8D
:1019A00011F41986F5CF67EE76E0C8010E94DF0ECC
:1019B000892B19F4F98683E1BBCE62EF76E0C8018A
:1019C0000E94DF0E892B11F41986F5CF6EEF76E0B9
:1019D000C8010E94DF0E892B19F4F98688E1A8CE90
:1019E00069E077E0C8010E94DF0E892B11F41986A7
:1019F000F5CF65E177E0C8010E94DF0E892B19F46D
:101A0000F98689E195CE60E277E0C8010E94DF0E99
:101A1000892B11F41986F5CF6CE277E0C8010E949A
:101A2000DF0E892B19F4F9868AE182CE6EE377E026
:101A3000C8010E94DF0E892B11F41986F5CF61E5EC
:101A400077E0C8010E94DF0E892B19F4F9868BE13B
:101A50006FCE63E677E0C8010E94DF0E892B11F498
:101A60001986F5CF66E777E0C8010E94DF0E892B63
:101A700019F4F98684E15CCE61E877E0C8010E9440
:101A8000DF0E892B11F41986F5CF6DE877E0C801D8
:101A90000E94DF0E892B19F4F98685E149CE68E9A9
:101AA00077E0C8010E94DF0E892B11F41986F5CF6B
:101AB00064EA77E0C8010E94DF0E892B19F4F986E9
:101AC00086E136CE66EB77E0C8010E94DF0E892BF7
:101AD00011F41986F5CF69EC77E0C8010E94DF0E9A
:101AE000892B19F4F98687E123CE6BED77E0C801E5
:101AF0000E94DF0E892B11F41986F5CF6EEE77E088
:101B0000C8010E94DF0E892B19F4F9867C86C5CDA9
:101B100068EF77E0C8010E94DF0E892B11F4198667
:101B2000F5CF8FEF8C871B861A86B7CD8B81EE9E03
:101B3000F0011124E459F64F8283D2CD80E298E07F
:101B40000E948F04CDCDEFE3FAE01382128288EE7B
:101B500093E0A0E0B0E084839583A683B78388E018
:101B600092E09183808385EC90E09587848784EC74
:101B700090E09787868780EC90E0918B808B81EC5A
:101B800090E0938B828B82EC90E0958B848B86EC3B
:101B900090E0978B868B118E128E138E148E089583
:101BA0008F929F92AF92BF92CF92DF92EF92FF926D
:101BB000CF93DF93EC01688179818A819B816115E4
:101BC00071058105910521F464E279ED8BE597E0DB
:101BD0002DE133EF41E050E00E94740E49015A01BB
:101BE0009B01AC01A7EAB1E40E94930E6B017C015A
:101BF000ACEEB4EFA50194010E94A10EC60ED71E53
:101C0000E81EF91EF7FE06C081E0C81AD108E108F7
:101C100080E8F80AC882D982EA82FB82C701B6014D
:101C20009F77DF91CF91FF90EF90DF90CF90BF90A3
:101C3000AF909F908F9008958F929F92AF92BF9296
:101C4000CF92DF92EF92FF926091000270910102B9
:101C50008091020290910302611571058105910541
:101C600021F464E279ED8BE597E02DE133EF41E07B
:101C700050E00E94740E49015A019B01AC01A7EA91
:101C8000B1E40E94930E6B017C01ACEEB4EFA501B0
:101C900094010E94A10EC60ED71EE81EF91EF7FE83
:101CA00006C081E0C81AD108E10880E8F80AC092AD
:101CB0000002D0920102E0920202F0920302C701F8
:101CC000B6019F77FF90EF90DF90CF90BF90AF90DD
:101CD0009F908F900895609300027093010280930B
:101CE0000202909303020895052E97FB1EF40094C0
:101CF0000E948B0E57FD07D00E94A60E07FC03D052
:101D00004EF40C948B0E50954095309521953F4F95
:101D10004F4F5F4F089590958095709561957F4FD7
:101D20008F4F9F4F08950E94C80EA59F900DB49F9E
:101D3000900DA49F800D911D11240895B7FF0C9460
:101D4000930E0E94930E821B930B0895A1E21A2E0C
:101D5000AA1BBB1BFD010DC0AA1FBB1FEE1FFF1F4F
:101D6000A217B307E407F50720F0A21BB30BE40B9F
:101D7000F50B661F771F881F991F1A9469F76095E6
:101D80007095809590959B01AC01BD01CF010895A0
:101D9000A29FB001B39FC001A39F700D811D1124AC
:101DA000911DB29F700D811D1124911D0895EE0F9C
:101DB000FF1F881F8BBF0790F691E02D1994FB0140
:101DC000DC018D91019080190110D9F3990B0895D0
:041DD000F894FFCFB5
:101DD40001000000000000005B03B102F202A8034E
:101DE40023030103150347084B084F0855085908F6
:101DF4005F080000640869086E0875087B0883089A
:101E04008908900895089A08A108A708AF08B5089A
:101E1400BC08C308CA08D808000000000000E6088F
:101E2400ED08F40802090000000000001F2123252A
:101E3400292D3135332F2B275F08590855084F08B2
:101E44004B084708000090089508B508AF08A70894
:101E5400A1089A08690864086E0875087B08830855
:101E64008908222426282A2C2E3432302D3E204B59
:101E74006579626F61726420617272617920776141
:101E84007320636F6E66696775726174656420742C
:101E94006875733A20002153697A65206F66207251
:101EA4006F77733A20002053697A65206F66206348
:101EB4006F6C756D6E733A200023204B657920702A
:101EC4006F736974696F6E3A20526F7720002043F4
:101ED4006F6C756D6E200020427574746F6E3A20BD
:101EE400002300204D41494E4B4559424F41524435
:101EF4002000204D434455204145524F534F4654F2
:101F040020413332302053494D554C41544F5220D7
:101F1400002320436F6E6669677572696E6720746B
:101F24006865207075736820627574746F6E2069BB
:101F34006E70757473000A0A0D2023204B65792096
:101F4400627574746F6E20696E646578206D656D5A
:101F54006F72792061737369676E656421200A0A60
:101F64000D000A0D2052696768742070616E656CFB
:101F740020636F6E66696775726174696F6E200A9B
:101F84000D000A0D204C6566742070616E656C202E
:101F9400636F6E66696775726174696F6E200A0D8E
:101FA400006B657920696E646578202D3E200020E1
:101FB40053657420627574746F6E20726F77202D70
:101FC4003E200020636F6C756D6E202D3E20002036
:101FD400536574206E616D65202D3E20000A0D202E
:101FE400427574746F6E20636F6E66696775726193
:101FF40074696F6E20646F6E6521200A0D20000ADB
:102004000D202320536574206C6564732070696E01
:1020140073206173206F7574707574732E2E2E0087
:102024000A0D204C65642773206E616D6573206D05
:10203400656D6F727920616C6C6F63617465642087
:102044000A0D000A0A0D204D61696E2070616E65EB
:102054006C20636F6E66696775726174696F6E2058
:102064000A0D000A0D2045787472656D2072696747
:1020740068742070616E656C20636F6E6669677545
:10208400726174696F6E200A0D000A0D2045787420
:1020940072656D206C6566742070616E656C20637A
:1020A4006F6E66696775726174696F6E200A0A0DD6
:1020B400000A205365742070696E200020416E6F01
:1020C40064652070696E200020436174686F6465E4
:1020D4002070696E20000A0A2054657374696E6763
:1020E400206C6564732E2E2E2E2E200D0A000A0AF3
:1020F400205374617274696E67204D61696E4B651B
:1021040079626F61726400446F6E6521000A0A206F
:10211400526561647920666F7220707265737320F2
:10212400627574746F6E21000A202D3E200A0D0022
:102134004C4F432C4F4E0A004C4F432C4F46460AFB
:10214400004150312C4F4E0A004150312C4F46462D
:102154000A00415F5448522C4F4E0A00415F5448D4
:10216400522C4F46460A004150322C4F4E0A004131
:1021740050322C4F46460A0045585045442C4F4E89
:102184000A0045585045442C4F46460A00415050D9
:10219400522C4F4E0A00415050522C4F46460A00D2
:1021A40046445F522C4F4E0A0046445F522C4F4621
:1021B400460A004C535F522C4F4E0A004C535F5258
:1021C4002C4F46460A00435354525F522C4F4E0A3A
:1021D40000435354525F522C4F46460A0057505402
:1021E4005F522C4F4E0A005750545F522C4F4646B4
:1021F4000A00564F522E445F522C4F4E0A00564F3F
:10220400522E445F522C4F46460A004E44425F52BF
:102214002C4F4E0A004E44425F522C4F46460A0051
:10222400415250545F522C4F4E0A00415250545F59
:10223400522C4F46460A0046445F4C2C4F4E0A002F
:1022440046445F4C2C4F46460A004C535F4C2C4F7F
:102254004E0A004C535F4C2C4F46460A00435354DD
:10226400525F4C2C4F4E0A00435354525F4C2C4F38
:1022740046460A005750545F4C2C4F4E0A005750A4
:10228400545F4C2C4F46460A00564F522E445F4C26
:102294002C4F4E0A00564F522E445F4C2C4F46464C
:1022A4000A004E44425F4C2C4F4E0A004E44425F9B
:1022B4004C2C4F46460A00415250545F4C2C4F4E12
:1022C4000A00415250545F4C2C4F46460A00462F98
:1022D4004F5F4C472C4F4E0A00462F4F5F4C472C04
:1022E4004F46460A00462F4F5F4C522C4F4E0A0071
:1022F400462F4F5F4C522C4F46460A004D415354D3
:1023040045525F5741524D5F4C2C4F4E0A004D4190
:10231400535445525F5741524D5F4C2C4F46460A29
:10232400004D41535445525F434155545F4C2C4F2B
:102334004E0A004D41535445525F434155545F4C3E
:102344002C4F46460A00462F4F5F52472C4F4E0AE9
:1023540000462F4F5F52472C4F46460A00462F4FE8
:102364005F52522C4F4E0A00462F4F5F52522C4F51
:1023740046460A004D41535445525F5741524D5F02
:10238400522C4F4E0A004D41535445525F5741520F
:102394004D5F522C4F46460A004D41535445525FFF
:1023A400434155545F522C4F4E0A004D41535445FE
:1023B400525F434155545F522C4F46460A004655DE
:1023C4004C4C592C4F4E0A0046554C4C592C4F46F8
:1023D400460A004552524F52202D20627574746F84
:1023E4006E206E616D65206E6F742061626C650095
:1023F4006572726F72202D2063616C6C20746F2083
:10240400627574746F6E206C656420646F657327E5
:102414007420776F726B004C4F4300415031004180
:102424002F54485200415032004558504544004111
:102434005050520046445F52004C535F5200435385
:1024440054525F52005750545F5200564F522E441C
:102454005F52004E44425F5200415250545F52005A
:1024640046445F4C004C535F4C00435354525F4C02
:10247400005750545F4C00564F522E445F4C004E50
:1024840044425F4C00415250545F4C00462F4F5F12
:10249400524700462F4F5F5252004D41535445520C
:1024A4005F5741524D5F52004D41535445525F4373
:1024B4004155545F5200462F4F5F4C4700462F4F03
:1024C4005F4C52004D41535445525F5741524D5F4A
:1024D4004C004D41535445525F434155545F4C00A9
:00000001FF
