:100000000C9462000C948A000C948A000C948A0070
:100010000C948A000C948A000C948A000C948A0038
:100020000C948A000C948A000C948A000C948A0028
:100030000C948A000C9410040C948A000C948A008E
:100040000C946E030C948A000C94DE030C94B80399
:100050000C948A000C948A000C948A000C948A00F8
:100060000C948A000C948A000000000024002700F1
:100070002A0000000000250028002B0000000000DE
:1000800023002600290004040404040404040202DA
:100090000202020203030303030301020408102007
:1000A0004080010204081020010204081020000012
:1000B0000008000201000003040700000000000027
:1000C0000000D60A11241FBECFEFD8E0DEBFCDBF9F
:1000D00014E0A0E0B1E0E6E3F8E102C005900D9283
:1000E000AA39B107D9F725E0AAE9B4E001C01D9209
:1000F000AA3FB207E1F710E0C2E6D0E004C02197C2
:10010000FE010E940A0CC136D107C9F70E943704CC
:100110000C94190C0C940000833081F028F4813089
:1001200099F08230A9F008958730A9F08830C9F09D
:100130008430B1F4809180008F7D03C08091800075
:100140008F7780938000089584B58F7784BD08955C
:1001500084B58F7DFBCF8091B0008F778093B00006
:1001600008958091B0008F7DF9CFCF93DF93282F32
:1001700030E0F901E255FF4F8491F901E656FF4F57
:10018000D491F901EA57FF4FC491CC23A1F081111A
:100190000E948C00EC2FF0E0EE0FFF1FE458FF4FA1
:1001A000A591B491EC91ED2381E090E009F480E019
:1001B000DF91CF91089580E090E0FACF1F93CF9325
:1001C000DF93282F30E0F901E255FF4F8491F901C8
:1001D000E656FF4FD491F901EA57FF4FC491CC2363
:1001E000A9F0162F81110E948C00EC2FF0E0EE0F89
:1001F000FF1FEE58FF4FA591B4918FB7F894EC9183
:10020000111108C0D095DE23DC938FBFDF91CF9111
:100210001F910895DE2BF8CFCF93DF9390E0FC0180
:10022000E656FF4F24918A579F4FFC018491882303
:10023000D1F090E0880F991FFC01E859FF4FA5917C
:10024000B491FC01EE58FF4FC591D491623071F426
:100250009FB7F8943C91822F809583238C93E881FB
:100260002E2B28839FBFDF91CF9108958FB7F894ED
:10027000EC912E2B2C938FBFF6CF3FB7F894809143
:10028000590590915A05A0915B05B0915C0526B582
:10029000A89B05C02F3F19F00196A11DB11D3FBFBE
:1002A000BA2FA92F982F8827BC01CD01620F711D8D
:1002B000811D911D42E0660F771F881F991F4A9587
:1002C000D1F708958F929F92AF92BF92CF92DF9213
:1002D000EF92FF926B017C010E943D014B015C019A
:1002E000C114D104E104F104B9F00E943D01681980
:1002F00079098A099B09683E73408105910580F35D
:1003000021E0C21AD108E108F10888EE880E83E0E6
:10031000981EA11CB11CE4CFFF90EF90DF90CF900E
:10032000BF90AF909F908F900895AF92BF92CF9261
:10033000DF92EF92FF920F931F93CF93DF936C01A5
:100340007B018B01040F151FEB015E01AE18BF0886
:10035000C017D10759F06991D601ED91FC91019038
:10036000F081E02DC6010995892B79F7C501DF9150
:10037000CF911F910F91FF90EF90DF90CF90BF90A2
:10038000AF90089580919A0490919B04A0919C0451
:10039000B0919D040196A11DB11D80939A04909384
:1003A0009B04A0939C04B0939D040895FC01538D7D
:1003B000448D252F30E0842F90E0821B930B54173F
:1003C00010F0CF96089501970895FC01918D828DCC
:1003D000981761F0A28DAE0FBF2FB11D5D968C9165
:1003E000928D9F5F9F73928F90E008958FEF9FEFA4
:1003F0000895FC01918D828D981731F0828DE80F60
:10040000F11D858D90E008958FEF9FEF0895FC0119
:10041000918D228D892F90E0805C9F4F821B9109E6
:100420008F73992708958DE595E00E94070221E0DA
:10043000892B09F420E0822F089580E090E0892B39
:1004400029F00E94130281110C9400000895FC0110
:10045000A48DA80FB92FB11DA35ABF4F2C91848D25
:1004600090E001968F739927848FA689B7892C9382
:10047000A089B1898C91837080648C93938D848DD5
:10048000981306C00288F389E02D80818F7D8083D8
:100490000895EF92FF920F931F93CF93DF93EC0198
:1004A00081E0888F9B8D8C8D98131AC0E889F9891B
:1004B000808185FF15C09FB7F894EE89FF8960831E
:1004C000E889F98980818370806480839FBF81E09F
:1004D00090E0DF91CF911F910F91FF90EF900895E1
:1004E000F62E0B8D10E00F5F1F4F0F731127E02EBC
:1004F0008C8D8E110CC00FB607FCFACFE889F989F4
:10050000808185FFF5CFCE010E942702F1CFEB8DD0
:10051000EC0FFD2FF11DE35AFF4FF0829FB7F894C7
:100520000B8FEA89FB8980818062CFCFCF93DF93E5
:10053000EC01888D8823B9F0AA89BB89E889F989FB
:100540008C9185FD03C0808186FD0DC00FB607FC30
:10055000F7CF8C9185FFF2CF808185FFEDCFCE0163
:100560000E942702E9CFDF91CF910895BF92CF92E9
:10057000DF92EF92FF920F931F93CF93DF9310922E
:100580003F0586E0B82E01E09BE1C92E93E0D92E0D
:1005900010913F051E3028F5B19EE0011124C55190
:1005A000DB4F8A81F9806A818823C9F0E8808E2D2B
:1005B0000E94DE006A8160278F2D0E94DE00C60146
:1005C0000197F1F76A8160278E2D0E94DE006A8113
:1005D0008F2D0E94DE001F5F10933F05D9CF60274B
:1005E000F7CFDF91CF911F910F91FF90EF90DF90A8
:1005F000CF90BF900895FC0101900020E9F731975A
:10060000AF01481B590BBC018DE595E00C94950199
:1006100080EB92E00C94FB028F929F92AF92BF927C
:100620000F931F93CF93DF93CDB7DEB7A1970FB68C
:10063000F894DEBF0FBECDBF19A2423008F44AE0E5
:100640008E010F5D1F4F842E912CB12CA12CA50182
:1006500094010E94D90BE62FB901CA01EA30F4F4E3
:10066000E05DD801EE938D01232B242B252B79F708
:1006700090E080E0109719F0CD010E94FB02A19656
:100680000FB6F894DEBF0FBECDBFDF91CF911F91A3
:100690000F91BF90AF909F908F900895E95CE1CF4C
:1006A000CF93DF93D0E0C0E0009719F00E94FB02E7
:1006B000EC010E9408038C0F9D1FDF91CF910895DC
:1006C000009711F00C94FB0290E080E00895682FF1
:1006D00070E090E080E04AE00C940C031F920F92CF
:1006E0000FB60F9211242F933F938F939F93AF9345
:1006F000BF938091550590915605A0915705B091F3
:1007000058053091540523E0230F2D3758F50196F5
:10071000A11DB11D20935405809355059093560556
:10072000A0935705B09358058091590590915A05AB
:10073000A0915B05B0915C050196A11DB11D809350
:10074000590590935A05A0935B05B0935C05BF9142
:10075000AF919F918F913F912F910F900FBE0F906E
:100760001F90189526E8230F0296A11DB11DD2CF28
:100770001F920F920FB60F9211242F933F934F9316
:100780005F936F937F938F939F93AF93BF93EF93F9
:10079000FF938DE595E00E942702FF91EF91BF91B5
:1007A000AF919F918F917F916F915F914F913F9109
:1007B0002F910F900FBE0F901F9018951F920F92C0
:1007C0000FB60F9211242F938F939F93EF93FF9364
:1007D000E0916D05F0916E058081E0917305F091D7
:1007E000740582FD1BC09081809176058F5F8F73A9
:1007F00020917705821741F0E0917605F0E0E35A09
:10080000FA4F958F80937605FF91EF919F918F918D
:100810002F910F900FBE0F901F9018958081F4CFED
:100820001F920F920FB60F9211242F933F934F9365
:100830005F936F937F938F939F93AF93BF93EF9348
:10084000FF93E091E904F091EA040995FF91EF919B
:10085000BF91AF919F918F917F916F915F914F91D8
:100860003F912F910F900FBE0F901F901895CF932F
:10087000DF93CDB7DEB762970FB6F894DEBF0FBE39
:10088000CDBF789484B5826084BD84B5816084BD19
:1008900085B5826085BD85B5816085BD80916E001E
:1008A000816080936E00109281008091810082604F
:1008B000809381008091810081608093810080918C
:1008C00080008160809380008091B100846080937B
:1008D000B1008091B00081608093B00080917A0077
:1008E000846080937A0080917A00826080937A009D
:1008F00080917A00816080937A0080917A0080688C
:1009000080937A001092C100E0916D05F0916E0520
:1009100082E08083E0916905F0916A051082E091A0
:100920006B05F0916C0590E1908310927505E09154
:100930007105F091720586E08083E0916F05F0917A
:100940007005808180618083E0916F05F091700572
:10095000808188608083E0916F05F09170058081CF
:1009600080688083E0916F05F091700580818F7DB4
:10097000808322EC31E03093EA042093E90481E0A3
:1009800080936F0090938100109280008093A00468
:1009900080E49FE190939F0480939E04909387004E
:1009A0008093860081E1809381008CE491E00E9435
:1009B000500386E791E00E9460034AE063E070E044
:1009C00080E090E00E940C0386E891E00E946003C2
:1009D0004AE066E070E080E090E00E940C030E9434
:1009E00008031092410516E080914105863008F019
:1009F00040C00E9408031092420580914205833056
:100A000090F589E991E00E946003809142050E947F
:100A100067038EEA91E00E946003809141050E9485
:100A2000670387EB91E00E94600380914205E091AB
:100A30004105189FC0011124E80FF92FF11DEE0F99
:100A4000FF1FE15EFE4F808191810E9450036AE0AA
:100A500070E080E090E00E946201809142058F5F2B
:100A600080934205CACF809141058F5F80934105F5
:100A7000BBCF0E94080310924105809141058E3042
:100A800080F481EC91E00E9460036AE070E080E015
:100A900090E00E946201809141058F5F8093410543
:100AA000ECCF83EC91E00E946003109241058091AD
:100AB0004105893080F481EC91E00E9460036AE096
:100AC00070E080E090E00E946201809141058F5FBC
:100AD00080934105ECCF81EC91E00E94500310928D
:100AE000410580914105883080F481EC91E00E94BD
:100AF00060036AE070E080E090E00E946201809113
:100B000041058F5F80934105ECCF82ED91E00E941B
:100B100060031092410580914105883080F481EC9A
:100B200091E00E9460036AE070E080E090E00E9443
:100B30006201809141058F5F80934105ECCF81EC8C
:100B400091E00E9450030E944F0B26E930E040E004
:100B500050E00E94A70B6E5C7F4F8F4F9F4F0E940B
:100B600062011092410580914105843050F482EB7E
:100B700092E00E945003809141058F5F8093410570
:100B8000F2CF6AE070E080E090E00E94620181EFC5
:100B900091E00E94600310924105809141058A30E6
:100BA00080F484E792E00E9460036AE070E080E0F5
:100BB00090E00E946201809141058F5F8093410522
:100BC000ECCF84E792E00E9450030E944F0B26E98D
:100BD00030E040E050E00E94A70B6E5C7F4F8F4FEB
:100BE0009F4F0E94620110923F05E091EB04F0914B
:100BF000EC0482E1DF011D928A95E9F7109241052C
:100C000016E080914105833008F090C010924205B3
:100C100080914205863008F083C086E192E00E9410
:100C2000600360913F0570E06F5F7F4F072E000CFF
:100C3000880B990B4AE00E940C03E0913F05B4E059
:100C4000EB9FF0011124EF55FB4FA0914105B0E05F
:100C5000AD5BBE4F8C9180838AE292E00E9460037C
:100C6000E0913F0524E0E29FF0011124EF55FB4F96
:100C700080810E946703E0913F0534E0E39FF0012B
:100C80001124EF55FB4FA0914205B0E0AA5BBE4F87
:100C90008C91818387E392E00E946003E0913F059D
:100CA00084E0E89FF0011124EF55FB4F81810E9401
:100CB0006703A0913F05E4E0AE9FD0011124AF553A
:100CC000BB4F80914105E0914205189FC00111245E
:100CD000E80FF92FF11DEE0FFF1FE15EFE4F80813F
:100CE000918113969C938E93129787E492E00E94D1
:100CF0006003E0913F0524E0E29FF0011124EF55ED
:100D0000FB4F828193810E94500380913F058F5F4A
:100D100080933F05809142058F5F8093420578CF95
:100D2000809141058F5F809341056BCF10923F0505
:100D300010913F05123108F534E0139FC0011124D2
:100D4000DC01AF55BB4F7D0162E08C910E940C012C
:100D500061E0F70181810E940C01E091400524E0EF
:100D6000E29FF0011124EF55FB4F61E081810E9469
:100D7000DE001F5F10933F05DBCFE0914205F0914D
:100D800043058EE0DF011D928A95E9F785E592E043
:100D90000E945003109241051092420510923F05A7
:100DA00095E0F92E02E0EE24E39416E0E0913F0591
:100DB000EE3008F090C0E63009F07DC0E0924105C9
:100DC000109242052091410530E01E9FF001112450
:100DD000E551FB4FD901A45EBE4F8C918083A09159
:100DE00042058A2F90E0DC01AA5EBE4F4C91418300
:100DF0001282129FD001139FB00D1124A80FB91FAA
:100E0000AA0FBB1FA15EBE4F8D919C9194838383DB
:100E100086E792E00E946003E0913F051E9FF0018B
:100E20001124E551FB4F838194810E94600381E886
:100E300092E00E946003E0913F051E9FF0011124A3
:100E4000E551FB4F80810E9467038DE892E00E948C
:100E50006003E0913F051E9FF0011124E551FB4F17
:100E600081810E9467030E940803D0903F051D9D69
:100E7000C0011124FC01E551FB4F5F01908061E04E
:100E8000892D0E940C01D5011196CC9061E08C2D2A
:100E90000E940C0160E0892D0E94DE0061E08C2D33
:100EA0000E94DE00809142058F5F80934205D394BB
:100EB000D0923F057BCFEB3019F40093410580CFF2
:100EC000EC3019F4009342057DCFED3009F07ACF74
:100ED000F092420577CF8BE992E00E946003109276
:100EE0004105B6E0DB2E1EE0C12E00914105023027
:100EF00008F060C010923F0510913F051E3028F5A4
:100F0000D19EC0011124FC01E551FB4F7F01B0804F
:100F100061E08B2D0E94DE00D7011196FC9060E00D
:100F20008F2D0E94DE006EE170E080E090E00E9474
:100F3000620160E08B2D0E94DE0061E08F2D0E9437
:100F4000DE001F5F10933F05D7CF6EE170E080E0B9
:100F500090E00E946201C0923F0510913F0511236D
:100F600029F1D19EC0011124FC01E551FB4F7F0105
:100F7000B08061E08B2D0E94DE00D7011196FC90BD
:100F800060E08F2D0E94DE006EE170E080E090E076
:100F90000E94620160E08B2D0E94DE0061E08F2DD7
:100FA0000E94DE00115010933F05D7CF0F5F0093D2
:100FB00041059BCF10924105A6E0DA2E0091410534
:100FC000023008F046C06AEF70E080E090E00E94D6
:100FD000620110923F0510913F051E30A8F4D19E8A
:100FE000C0011124FC01E551FB4F7F0161E08081CC
:100FF0000E94DE0060E0D70111968C910E94DE0015
:101000001F5F10933F05E7CF6AEF70E080E090E04C
:101010000E94620110923F0510913F051E30A8F416
:10102000D19EC0011124FC01E551FB4F7F0160E01E
:1010300080810E94DE0061E0D70111968C910E94B0
:10104000DE001F5F10933F05E7CF0F5F0093410560
:10105000B5CF83EB92E00E94600310924105F4E06B
:101060008F2E912CA12CB12CC0904105D12CF12CAC
:10107000E12C0E944F0BA50194010E94A70B6E5F0B
:101080007F4F8F4F9F4FC616D706E806F90684F4A8
:1010900084E792E00E94600364E170E080E090E009
:1010A0000E946201809141058F5F80934105DCCFF2
:1010B0008CEC92E00E94600384E792E00E9450036F
:1010C00064E170E080E090E00E94620182ED92E0D5
:1010D0000E94600310924105E4E08E2E912CA12C19
:1010E000B12CC0904105D12CF12CE12C0E944F0B6A
:1010F000A50194010E94A70B6E5F7F4F8F4F9F4FFA
:10110000C616D706E806F90684F484E792E00E9442
:10111000600364E170E080E090E00E9462018091F1
:1011200041058F5F80934105DCCF1092410580918E
:101130004105823040F40E940803809141058F5F91
:1011400080934105F4CF8DEE92E00E9460035BE155
:10115000C52E53E0D52E7E01BDE0EB0EF11C60E004
:10116000A62E60E0B62E74E4872E75E0972E36E04A
:10117000632E46E0442E90E1292E772473942EE0CE
:10118000522E109241058DE595E00E940702181637
:10119000190614F5E4E4F5E0222D11922A95E9F7F9
:1011A0008DE595E00E940702892BB1F0C6010197F9
:1011B000F1F78DE595E00E94E50190914105E92F59
:1011C000F0E0EC5BFA4F80838A3011F470924305B3
:1011D0009F5F90934105E4CF80914305882309F4F4
:1011E0007DC110924305D701E62D1D92EA95E9F7DE
:1011F000998A888AF701DE011796862D01900D9253
:101200008A95E1F765EF72E084E495E00E94100CA6
:10121000892BD1F4798686E0FE013796DE0111969E
:1012200001900D928A95E1F71E811F3F09F042C19E
:1012300088E194E00E9450038B81619EF0011124AB
:10124000E551FB4F82834AC16DEF72E084E495E083
:101250000E94100C892B11F41986DDCF66E073E033
:1012600084E495E00E94100C892B19F479867C8621
:10127000D2CF60E173E084E495E00E94100C892BEA
:1012800011F41986F4CF6BE173E084E495E00E94D9
:10129000100C892B21F4798682E08C87BCCF65E223
:1012A00073E084E495E00E94100C892B11F41986F8
:1012B000F3CF60E373E084E495E00E94100C892B87
:1012C00019F4798683E0E9CF69E373E084E495E07B
:1012D0000E94100C892B11F41986F4CF63E473E09B
:1012E00084E495E00E94100C892B19F4798684E03F
:1012F000D4CF6BE473E084E495E00E94100C892B5A
:1013000011F41986F4CF64E573E084E495E00E945B
:10131000100C892B19F4798685E0BFCF6DE573E059
:1013200084E495E00E94100C892B11F41986F4CF07
:1013300067E673E084E495E00E94100C892B19F4B1
:1013400079864C8668CF6FE673E084E495E00E946E
:10135000100C892B11F41986F4CF68E773E084E44C
:1013600095E00E94100C892B19F4798687E095CFBF
:1013700061E873E084E495E00E94100C892B11F47D
:101380001986F4CF6BE873E084E495E00E94100CBA
:10139000892B19F4798688E080CF64E973E084E4CE
:1013A00095E00E94100C892B11F41986F4CF6EE998
:1013B00073E084E495E00E94100C892B19F479867F
:1013C00089E06BCF68EA73E084E495E00E94100C3A
:1013D000892B11F41986F4CF63EB73E084E495E074
:1013E0000E94100C892B19F479868AE056CF6DEB98
:1013F00073E084E495E00E94100C892B11F41986A7
:10140000F4CF68EC73E084E495E00E94100C892B23
:1014100019F479868BE041CF62ED73E084E495E0C6
:101420000E94100C892B11F41986F4CF6DED73E036
:1014300084E495E00E94100C892B19F479868CE0E5
:101440002CCF65EE73E084E495E00E94100C892BAC
:1014500011F41986F4CF6EEE73E084E495E00E94F7
:10146000100C892B19F479868DE017CF68EF73E0A3
:1014700084E495E00E94100C892B11F41986F4CFB6
:1014800063E074E084E495E00E94100C892B19F469
:1014900079865C86C0CE6DE074E084E495E00E94BD
:1014A000100C892B11F41986F4CF8FEF8C871B86D3
:1014B0001A86B1CE1E3009F0BFCE90E080E02B81BD
:1014C000689EF001699EF00D1124E551FB4F2283C7
:1014D00001968E30910599F750923F050E94B60211
:1014E0001092420510914205163008F053C0109238
:1014F000400500914005063060F4E02FF0E0EA5B23
:10150000FE4F61E080810E94DE000F5F0093400586
:10151000F0CFE12FF0E0EA5BFE4F60E080810E94B7
:10152000DE001092410500914105033068F510E09E
:10153000F801ED5BFE4F3080832D0E94B500892BB2
:10154000E9F40E94B602832D0E94B500892BC9F3ED
:10155000E0914205609EC001619E900D1124E80F4C
:10156000F92FF11DEE0FFF1FE15EFE4F808191818B
:101570000E9450038DE595E00E94960280914105FE
:101580008F5F80934105CFCF809142058F5F80931D
:101590004205A8CFA114B10409F4F3CD0E941302AF
:1015A000882309F4E8CD0E940000E1CDEDE5F5E0E7
:1015B0001382128288EE93E0A0E0B0E084839583EA
:1015C000A683B78388E091E09183808385EC90E0E7
:1015D0009587848784EC90E09787868780EC90E0FD
:1015E000918B808B81EC90E0938B828B82EC90E0EE
:1015F000958B848B86EC90E0978B868B118E128E68
:10160000138E148E08958F929F92AF92BF92CF92B5
:10161000DF92EF92FF92CF93DF93EC0168817981A3
:101620008A819B81611571058105910521F464E230
:1016300079ED8BE597E02DE133EF41E050E00E943A
:10164000A70B49015A019B01AC01A7EAB1E40E9432
:10165000C60B6B017C01ACEEB4EFA50194010E94B6
:10166000D40BC60ED71EE81EF91EF7FE06C081E099
:10167000C81AD108E10880E8F80AC882D982EA824B
:10168000FB82C701B6019F77DF91CF91FF90EF906A
:10169000DF90CF90BF90AF909F908F9008958F92E2
:1016A0009F92AF92BF92CF92DF92EF92FF926091A2
:1016B0000001709101018091020190910301611577
:1016C00071058105910521F464E279ED8BE597E0E0
:1016D0002DE133EF41E050E00E94A70B49015A0190
:1016E0009B01AC01A7EAB1E40E94C60B6B017C012F
:1016F000ACEEB4EFA50194010E94D40BC60ED71E28
:10170000E81EF91EF7FE06C081E0C81AD108E108FC
:1017100080E8F80AC0920001D0920101E092020133
:10172000F0920301C701B6019F77FF90EF90DF9021
:10173000CF90BF90AF909F908F90089560930001DD
:101740007093010180930201909303010895052E87
:1017500097FB1EF400940E94BE0B57FD07D00E9419
:10176000D90B07FC03D04EF40C94BE0B509540955A
:10177000309521953F4F4F4F5F4F0895909580953D
:10178000709561957F4F8F4F9F4F08950E94FB0B7F
:10179000A59F900DB49F900DA49F800D911D1124C5
:1017A0000895B7FF0C94C60B0E94C60B821B930BC7
:1017B0000895A1E21A2EAA1BBB1BFD010DC0AA1F92
:1017C000BB1FEE1FFF1FA217B307E407F50720F0AA
:1017D000A21BB30BE40BF50B661F771F881F991F25
:1017E0001A9469F760957095809590959B01AC016E
:1017F000BD01CF010895A29FB001B39FC001A39F77
:10180000700D811D1124911DB29F700D811D112439
:10181000911D0895EE0FFF1F0590F491E02D09949E
:10182000FB01DC018D91019080190110D9F3990B16
:061830000895F894FFCFBB
:10183600010000000000000049029501D601960251
:101846000702E501F90129272523211F17191B3551
:101856000439043F0445044A044E04530457045C07
:1018660004610467046D04710477048104850489A6
:101876000493041A18161C1E202224262D3E204BE3
:101886006579626F61726420617272617920776135
:101896007320636F6E666967757261746564207420
:1018A6006875733A20002153697A65206F66207245
:1018B6006F77733A20002053697A65206F6620633C
:1018C6006F6C756D6E733A200023204B657920701E
:1018D6006F736974696F6E3A20526F7720002043E8
:1018E6006F6C756D6E200020427574746F6E3A20B1
:1018F600002300204D41494E4B4559424F41524429
:101906002000204D434455204145524F534F4654E5
:1019160020413332302053494D554C41544F5220CB
:10192600002320436F6E6669677572696E6720745F
:101936006865207075736820627574746F6E2069AF
:101946006E70757473000A0A0D2023206B6579206A
:10195600696E646578202D3E2000205365742072E0
:101966006F77202D3E20002053657420636F6C75C1
:101976006D6E202D3E200020536574206E616D65CE
:10198600202D3E20000A0D202320536574206C650F
:1019960064732070696E73206173206F757470753F
:1019A60074732E2E2E000A205365742070696E20E3
:1019B6000020416E6F64652070696E2000204361CF
:1019C60074686F64652070696E20000A0A20546589
:1019D6007374696E67206C6564732E2E2E2E2E200E
:1019E6000D0A000A0A205374617274696E67204DED
:1019F60061696E4B6579626F61726400446F6E65F2
:101A060021000A0A20526561647920666F7220708F
:101A16007265737320627574746F6E21000A202DCF
:101A26003E200A0D00454E472C4F4E0A00454E47B4
:101A36002C4F46460A00424C4545442C4F4E0A0060
:101A4600424C4545442C4F46460A00505245535396
:101A56002C4F4E0A0050524553532C4F46460A000F
:101A6600454C45432C4F4E0A00454C45432C4F46AA
:101A7600460A004859442C4F4E0A004859442C4FF8
:101A860046460A004655454C2C4F4E0A00465545DB
:101A96004C2C4F46460A004150552C4F4E0A0041E9
:101AA60050552C4F46460A00434F4E442C4F4E0A83
:101AB60000434F4E442C4F46460A00444F4F522C8B
:101AC6004F4E0A00444F4F522C4F46460A00574885
:101AD600454C4C2C4F4E0A005748454C4C2C4F4613
:101AE600460A00462F43544C2C4F4E0A00462F43BD
:101AF600544C2C4F46460A00434C525F4C2C4F4EDA
:101B06000A00434C525F4C2C4F46460A0053595329
:101B16002C4F4E0A005359532C4F46460A00434C4D
:101B2600525F522C4F4E0A00434C525F522C4F4686
:101B3600460A0046554C4C592C4F4E0A0046554C09
:101B46004C592C4F46460A004552524F52202D20E2
:101B5600627574746F6E206E616D65206E6F742091
:101B660061626C6500454E4700424C454544005055
:101B76005245535300454C45430048594400465589
:101B8600454C0041505500434F4E4400444F4F5280
:101B9600005748454C4C00462F43544C00414C4C92
:101BA60000434C525F4C00544F20434F4E4649472A
:101BB600005359530052434C00454D45522F434163
:0A1BC6004E4300434C525F520000F2
:00000001FF
