:100000000C9435010C9466010C9466010C94660105
:100010000C9466010C9466010C9466010C946601C4
:100020000C9466010C9466010C9466010C946601B4
:100030000C9466010C9466010C9466010C946601A4
:100040000C9466010C9466010C9466010C94660194
:100050000C9466010C9466010C9466010C94FD03EB
:100060000C9466010C9471040C9447040C94660182
:100070000C9466010C9466010C9466010C94660164
:100080000C9466010C9466010C9466010C94660154
:100090000C9466010C9466010C9466010C94660144
:1000A0000C9466010C9466010C9466010C94660134
:1000B0000C9466010C9466010C9466010C94660124
:1000C0000C9466010C9466010C9466010C94660114
:1000D0000C9466010C9466010C9466010C94660104
:1000E0000C9466010C9455020C9486010C94A502A4
:1000F0000C94B9010C9491020C94C6010C949801D3
:100100000C9438030C9494010C94CB010C94C7010B
:100110000C94E0070C94AF010C949B010C94C1016A
:100120000C94B3020C9482020C94AB010C94BD01AC
:100130000C94A1010C94B3010C94A5010C948C01B6
:100140000C9490010C94EB02000021002400270085
:100150002A002D00300033000101000004010701D6
:100160000A01000020002300260029002C002F0097
:100170003200000100000301060109010000220015
:10018000250028002B002E00310034000201000061
:10019000050108010B010505050507050808080804
:1001A000020202020A0A080804040404010101010F
:1001B000010101010303030303030303040707070A
:1001C0000C0C0C0C0C0C0C0C0202020206060606AF
:1001D000060606060B0B0B0B0B0B0B0B010210207C
:1001E000200808102040102040800201020108046D
:1001F0000201010204081020408080402010080401
:100200000201800402018040201008040201080459
:10021000020101020408102040800102040810209D
:10022000408000000A0B02090C0D0E0807030401B0
:1002300000000000000000000000000000000000BE
:10024000000000000000000000000000000012118B
:10025000100000000000000000000000000000008E
:100260000000000000000000E00711241FBECFEFD7
:10027000D1E2DEBFCDBF00E00CBF12E0A0E0B2E0F3
:10028000ECE3F2E100E00BBF02C007900D92A63D47
:10029000B107D9F723E0A6EDB2E001C01D92AF3758
:1002A000B207E1F711E0C5E3D1E000E006C0219715
:1002B0000109802FFE010E941409C433D10780E098
:1002C0000807A9F70E94A7040C941C090C940000CD
:1002D0008150823108F05AC0E82FF0E08827EC58AE
:1002E000FE4F8F4F0C9414099401980186018C01E4
:1002F0009001C6019B01A101A501AB01AF01B301B2
:10030000B901BD01C601C101C701CB0180918000C7
:100310008F77809380000895809180008F7DF9CF42
:1003200080918000877FF5CF84B58F7784BD089555
:1003300084B58F7DFBCF8091B0008F778093B00024
:1003400008958091B0008F7DF9CF809190008F77D4
:10035000809390000895809190008F7DF9CF8091D7
:100360009000877FF5CF8091A0008F778093A000C9
:1003700008958091A0008F7DF9CF8091A000877FA4
:10038000F5CF809120018F7780932001089580918F
:1003900020018F7DF9CF80912001877FF5CF1F93BA
:1003A000CF93DF93282F30E0F901EE5DFD4F84916C
:1003B000F901E452FE4FD491F901EA56FE4FC4917F
:1003C000CC23A9F0162F81110E946801EC2FF0E0D8
:1003D000EE0FFF1FE458FE4FA591B4918FB7F8942C
:1003E000EC91111108C0D095DE23DC938FBFDF9113
:1003F000CF911F910895DE2BF8CF3FB7F8948091ED
:10040000DE029091DF02A091E002B091E10226B5F8
:10041000A89B05C02F3F19F00196A11DB11D3FBF3C
:10042000BA2FA92F982F8827BC01CD01620F711D0B
:10043000811D911D42E0660F771F881F991F4A9505
:10044000D1F708958F929F92AF92BF92CF92DF9291
:10045000EF92FF926B017C010E94FD014B015C0158
:10046000C114D104E104F104B9F00E94FD0168193E
:1004700079098A099B09683E73408105910580F3DB
:1004800021E0C21AD108E108F10888EE880E83E065
:10049000981EA11CB11CE4CFFF90EF90DF90CF908D
:1004A000BF90AF909F908F900895AF92BF92CF92E0
:1004B000DF92EF92FF920F931F93CF93DF936C0124
:1004C0007B018B01040F151FEB015E01AE18BF0805
:1004D000C017D10759F06991D601ED91FC910190B7
:1004E000F081E02DC6011995892B79F7C501DF91BF
:1004F000CF911F910F91FF90EF90DF90CF90BF9021
:10050000AF900895FC01538D448D252F30E0842F4A
:1005100090E0821B930B541710F0CF96089501972B
:100520000895FC01918D828D981761F0A28DAE0F18
:10053000BF2FB11D5D968C91928D9F5F9F73928F9F
:1005400090E008958FEF9FEF0895FC01918D828DCB
:10055000981731F0828DE80FF11D858D90E0089598
:100560008FEF9FEF0895FC01918D228D892F90E0F0
:10057000805C9F4F821B91098F739927089582EEAB
:1005800092E00E94B30221E0892B09F420E0822F3F
:100590000895FC01A48DA80FB92FB11DA35ABF4F18
:1005A0002C91848D90E001968F739927848FA68972
:1005B000B7892C93A089B1898C91837080648C93C6
:1005C000938D848D981306C00288F389E02D808175
:1005D0008F7D80830895EF92FF920F931F93CF93A7
:1005E000DF93EC0181E0888F9B8D8C8D98131AC06E
:1005F000E889F989808185FF15C09FB7F894EE8955
:10060000FF896083E889F9898081837080648083B1
:100610009FBF81E090E0DF91CF911F910F91FF90FC
:10062000EF900895F62E0B8D10E00F5F1F4F0F73A4
:100630001127E02E8C8D8E110CC00FB607FCFACF5F
:10064000E889F989808185FFF5CFCE010E94C90232
:10065000F1CFEB8DEC0FFD2FF11DE35AFF4FF08230
:100660009FB7F8940B8FEA89FB8980818062CFCF96
:10067000CF93DF93EC01888D8823B9F0AA89BB89D9
:10068000E889F9898C9185FD03C0808186FD0DC0C4
:100690000FB607FCF7CF8C9185FFF2CF808185FFE5
:1006A000EDCFCE010E94C902E9CFDF91CF9108952D
:1006B00080E090E0892B29F00E94BF0281110E9406
:1006C000000080E090E0892B49F080E090E0892BE9
:1006D00029F00E94000081110E94000080E090E05B
:1006E000892B49F080E090E0892B29F00E940000DE
:1006F00081110E94000080E090E0892B49F080E0A9
:1007000090E0892B29F00E94000081110C940000D8
:100710000895FC0101900020E9F73197AF01481BD3
:10072000590BBC0182EE92E00C9455028F929F927D
:10073000AF92BF920F931F93CF93DF93CDB7DEB7E6
:10074000A1970FB6F894DEBF0FBECDBF19A24230FD
:1007500008F44AE08E010F5D1F4F842E912CB12CBE
:10076000A12CA50194010E94E308E62FB901CA015A
:10077000EA30F4F4E05DD801EE938D01232B242BB5
:10078000252B79F790E080E0109719F0CD010E94B9
:100790008903A1960FB6F894DEBF0FBECDBFDF91DF
:1007A000CF911F910F91BF90AF909F908F90089520
:1007B000E95CE1CFCF93DF930E948903EC018FE2E4
:1007C00092E00E9489038C0F9D1FDF91CF910895C5
:1007D0000C948903CF93DF93682F70E090E080E062
:1007E0004AE00E949603EC018FE292E00E948903A6
:1007F0008C0F9D1FDF91CF9108951F920F920FB61E
:100800000F9211242F933F938F939F93AF93BF9396
:100810008091DA029091DB02A091DC02B091DD02BE
:100820003091D90223E0230F2D3758F50196A11DF1
:10083000B11D2093D9028093DA029093DB02A0933A
:10084000DC02B093DD028091DE029091DF02A09184
:10085000E002B091E1020196A11DB11D8093DE027C
:100860009093DF02A093E002B093E102BF91AF91B9
:100870009F918F913F912F910F900FBE0F901F90DE
:10088000189526E8230F0296A11DB11DD2CF1F9205
:100890000F920FB60F9211240BB60F922F933F9326
:1008A0004F935F936F937F938F939F93AF93BF9378
:1008B000EF93FF9382EE92E00E94C902FF91EF91C5
:1008C000BF91AF919F918F917F916F915F914F9168
:1008D0003F912F910F900BBE0F900FBE0F901F9066
:1008E00018951F920F920FB60F9211240BB60F920C
:1008F0002F938F939F93EF93FF93E091F202F091E8
:10090000F3028081E091F802F091F90282FD1DC0AE
:1009100090818091FB028F5F8F732091FC02821780
:1009200041F0E091FB02F0E0EE51FD4F958F809396
:10093000FB02FF91EF919F918F912F910F900BBE32
:100940000F900FBE0F901F9018958081F2CF789472
:1009500084B5826084BD84B5816084BD85B58260C4
:1009600085BD85B5816085BD80916E008160809375
:100970006E001092810080918100826080938100DE
:1009800080918100816080938100809180008160EE
:10099000809380008091B10084608093B100809149
:1009A000B00081608093B00080919100826080935C
:1009B00091008091910081608093910080919000DE
:1009C0008160809390008091A10082608093A1005B
:1009D0008091A10081608093A1008091A00081603E
:1009E0008093A000809121018260809321018091F9
:1009F0002101816080932101809120018160809399
:100A0000200180917A00846080937A0080917A003E
:100A1000826080937A0080917A00816080937A006E
:100A200080917A00806880937A001092C100E091F2
:100A3000F202F091F30282E08083E091EE02F09105
:100A4000EF021082E091F002F091F10280E18083E8
:100A50001092FA02E091F602F091F70286E08083AC
:100A6000E091F402F091F502808180618083E09151
:100A7000F402F091F502808188608083E091F402B5
:100A8000F091F502808180688083E091F402F0911A
:100A9000F50280818F7D80831092D7028091D702EA
:100AA0008E3080F482E392E00E94E8036AE070E016
:100AB00080E090E00E9422028091D7028F5F8093B5
:100AC000D702ECCF84E392E00E94E8031092D702B1
:100AD0008091D702893080F482E392E00E94E8039B
:100AE0006AE070E080E090E00E9422028091D702EC
:100AF0008F5F8093D702ECCF82E392E00E94DA030B
:100B00001092D7028091D702883080F482E392E07D
:100B10000E94E8036AE070E080E090E00E94220218
:100B20008091D7028F5F8093D702ECCF83E492E06D
:100B30000E94E8031092D7028091D702883080F497
:100B400082E392E00E94E8036AE070E080E090E0D7
:100B50000E9422028091D7028F5F8093D702ECCF50
:100B600082E392E00E94DA030E94590824EF31E008
:100B700040E050E00E94B1086C507E4F8F4F9F4F75
:100B80000E9422021092D7028091D702843050F442
:100B900081E392E00E94DA038091D7028F5F809315
:100BA000D702F2CF6AE070E080E090E00E9422027B
:100BB00082E692E00E94E8031092D7028091D70269
:100BC0008A3080F481E792E00E94E8036AEF70E0E7
:100BD00080E090E00E9422028091D7028F5F809394
:100BE000D702ECCF81E792E00E94DA030E94590815
:100BF0002EEE32E040E050E00E94B10866507F4F98
:100C00008F4F9F4F0E9422021092D7028091D702ED
:100C10008F3008F041C083E792E00E94E803E09142
:100C2000D702F0E0EA5EFD4F80810E94EA03E09186
:100C3000D702F0E0EA5EFD4F808190E0FC01E452D3
:100C4000FE4F24918A569E4FFC0184918823C1F067
:100C500090E0880F991FFC01E85BFE4FC591D4918D
:100C6000FC01E458FE4FA591B4919FB7F8943881E8
:100C7000822F809583238883EC91E22BEC939FBF96
:100C800064E170E080E090E00E9422028091D7024F
:100C90008F5F8093D702BACF1092D7028091D7028C
:100CA000823050F481E392E00E94DA038091D7020F
:100CB0008F5F8093D702F2CF8CE792E00E94E80327
:100CC0001092D70246E0842E912CA12CB12CC0901A
:100CD000D702D12CF12CE12C0E945908A5019401D6
:100CE0000E94B1086C5F7F4F8F4F9F4FC616D7068B
:100CF000E806F90684F481E792E00E94E8036AEFCF
:100D000070E080E090E00E9422028091D7028F5F25
:100D10008093D702DCCF81E792E00E94DA0368EE8D
:100D200073E080E090E00E9422021092D70280914E
:100D3000D7028A3008F044C083E792E00E94E803BB
:100D4000E091D702F0E0EB5DFD4F80810E94EA0365
:100D5000E091D702F0E0EB5DFD4F808190E0FC0177
:100D6000E452FE4F24918A569E4FFC0184918823C1
:100D700099F090E0880F991FFC01E85BFE4FA59168
:100D8000B491FC01E458FE4F859194918FB7F8948B
:100D9000EC91E22BEC938FBF64E170E080E090E097
:100DA0000E942202C091D702EC2FF0E0EB5DFD4FD4
:100DB00060E080810E94CF01CF5FC093D702B7CFA0
:100DC0001092D7028091D702823050F481E392E0F2
:100DD0000E94DA038091D7028F5F8093D702F2CF0F
:100DE0008CE892E00E94E8031092D70224E1822E60
:100DF000912CA12CB12CC090D702D12CF12CE12C3C
:100E00000E945908A50194010E94B108665F7F4FB6
:100E10008F4F9F4FC616D706E806F90684F481E780
:100E200092E00E94E8036AEF70E080E090E00E94A8
:100E300022028091D7028F5F8093D702DCCF82EAB3
:100E400092E00E94E80381E792E00E94DA0368EEF4
:100E500073E080E090E00E94220288EA92E00E9423
:100E6000E8031092D70296E0892E912CA12CB12C88
:100E7000C090D702D12CF12CE12C0E945908A50179
:100E800094010E94B1086C5F7F4F8F4F9F4FC61631
:100E9000D706E806F90684F481E792E00E94E803A9
:100EA00062E370E080E090E00E9422028091D7022D
:100EB0008F5F8093D702DCCF81E792E00E94DA0354
:100EC0001092D802C091D802CA3008F076C01092B1
:100ED000D602D091D602DA3060F4ED2FF0E0EB5D6F
:100EE000FD4F61E080810E94CF01DF5FD093D60289
:100EF000F0CFEC2FF0E0EB5DFD4F60E080810E94D1
:100F0000CF011092D702E091D702EF3008F04FC026
:100F1000F0E0EA5EFD4F208130E0F901EE5DFD4F2B
:100F20008491F901E452FE4FD491F901EA56FE4F43
:100F3000C491C1112CC086EB92E00E94E803E091BD
:100F4000D802F0E0EB5DFD4F608170E090E080E062
:100F50004AE00E9496038EEC92E00E94E803E09142
:100F6000D702F0E0EA5EFD4F80810E94EA0364EF61
:100F700071E080E090E00E94220282EE92E00E9406
:100F800038038091D7028F5F8093D702BCCF811145
:100F90000E946801EC2FF0E0EE0FFF1FEE59FE4FAC
:100FA000A591B491EC91ED2309F4C5CFEACF8091DE
:100FB000D8028F5F8093D80285CF0E94580380CFDC
:100FC000E2EEF2E01382128288EE93E0A0E0B0E05D
:100FD00084839583A683B78388E092E0918380839E
:100FE00085EC90E09587848784EC90E097878687EE
:100FF00080EC90E0918B808B81EC90E0938B828BE6
:1010000082EC90E0958B848B86EC90E0978B868BBE
:10101000118E128E138E148E08958F929F92AF921E
:10102000BF92CF92DF92EF92FF92CF93DF93EC01CA
:10103000688179818A819B8161157105810591059E
:1010400021F464E279ED8BE597E02DE133EF41E0A7
:1010500050E00E94B10849015A019B01AC01A7EA86
:10106000B1E40E94D0086B017C01ACEEB4EFA501A5
:1010700094010E94DE08C60ED71EE81EF91EF7FE78
:1010800006C081E0C81AD108E10880E8F80AC882E1
:10109000D982EA82FB82C701B6019F77DF91CF91A7
:1010A000FF90EF90DF90CF90BF90AF909F908F9088
:1010B00008958F929F92AF92BF92CF92DF92EF925C
:1010C000FF92609100027091010280910202909162
:1010D0000302611571058105910521F464E279ED42
:1010E0008BE597E02DE133EF41E050E00E94B1083D
:1010F00049015A019B01AC01A7EAB1E40E94D00862
:101100006B017C01ACEEB4EFA50194010E94DE08F6
:10111000C60ED71EE81EF91EF7FE06C081E0C81AEB
:10112000D108E10880E8F80AC0920002D0920102DA
:10113000E0920202F0920302C701B6019F77FF908E
:10114000EF90DF90CF90BF90AF909F908F900895D9
:101150006093000270930102809302029093030255
:101160000895052E97FB1EF400940E94C80857FDB1
:1011700007D00E94E30807FC03D04EF40C94C80883
:1011800050954095309521953F4F4F4F5F4F0895B3
:1011900090958095709561957F4F8F4F9F4F0895E3
:1011A0000E940509A59F900DB49F900DA49F800DEE
:1011B000911D11240895B7FF0C94D0080E94D00807
:1011C000821B930B0895A1E21A2EAA1BBB1BFD01E3
:1011D0000DC0AA1FBB1FEE1FFF1FA217B307E40716
:1011E000F50720F0A21BB30BE40BF50B661F771F6E
:1011F000881F991F1A9469F760957095809590954E
:101200009B01AC01BD01CF010895A29FB001B39F26
:10121000C001A39F700D811D1124911DB29F700DFF
:10122000811D1124911D0895EE0FFF1F881F8BBF94
:0C1230000790F691E02D1994F894FFCF80
:10123C000100000000000000EB025502820238039E
:10124C00B3029102A502353432302E2C2A282617EF
:10125C002519231B212422201E1C1A18161D1F0DB4
:10126C000A002300204D41494E4B4559424F4152F3
:10127C00442000204D434455204145524F534F4686
:10128C005420413332302053494D554C41544F5228
:10129C00200053657474696E6720696E7075747381
:1012AC00002E005365742070696E200053657474B1
:1012BC00696E67206F757470757473005374617206
:1012CC0074696E67204D61696E4B6579626F6172EE
:1012DC006400446F6E6521005072657373206275F3
:1012EC0074746F6E2100427574746F6E2070726529
:1012FC007373656420436F6C756D6E3A20002052D9
:06130C006F773A2000009B
:00000001FF
