:100000000C9437010C9468010C9468010C946801FD
:100010000C9468010C9468010C9468010C946801BC
:100020000C9468010C9468010C9468010C946801AC
:100030000C9468010C9468010C9468010C9468019C
:100040000C9468010C9468010C9468010C9468018C
:100050000C9436050C9468010C9468010C948C0483
:100060000C9468010C9400050C94D6040C9468015F
:100070000C9468010C9468010C9468010C9468015C
:100080000C9468010C9468010C9468010C9468014C
:100090000C9468010C9468010C9468010C9468013C
:1000A0000C9468010C9468010C9468010C9468012C
:1000B0000C9468010C9468010C9468010C9468011C
:1000C0000C9468010C9468010C9468010C9468010C
:1000D0000C9468010C9468010C9468010C946801FC
:1000E0000C9468010C949D010C943D030C94D9026E
:1000F0000C94BF010C949A010C9496010C94A701E6
:100100000C94AD010C9492010C94A3010C94CD01BC
:100110000C94BB010C94D0030C94C8010C94C9013D
:100120000C94C3010C94B1010C9488010C94B5019A
:100130000C9406030C9461050C9483030C948E01BB
:100140000C944B030C941A030C9429030000210017
:10015000240027002A002D00300033000101000098
:10016000040107010A0100002200250028002B00DD
:100170002E003100340002010000050108010B01CE
:10018000000020002300260029002C002F00320050
:100190000001000003010601090105050505070529
:1001A00008080808020202020A0A080804040404F3
:1001B000010101010101010103030303030303031F
:1001C000040707070C0C0C0C0C0C0C0C02020202AE
:1001D00006060606060606060B0B0B0B0B0B0B0B97
:1001E0000102102020080810204010204080020149
:1001F000020108040201010204081020408080402E
:10020000201008040201800402018040201008042C
:1002100002010804020101020408102040800102CA
:1002200004081020408000000A0B02090C0D0E0883
:1002300007030401000000000000000000000000AF
:1002400000000000000000000000000000000000AE
:10025000000012111000000000000000000000006B
:1002600000000000000000000000000061051124F3
:100270001FBECFEFD1E2DEBFCDBF00E00CBF19E063
:10028000A0E0B2E0E8E5F3E200E00BBF02C00790B7
:100290000D92A839B107D9F72BE0A8E9B9E001C060
:1002A0001D92A43AB207E1F711E0C7E3D1E000E004
:1002B00006C021970109802FFE010E949911C633C3
:1002C000D10780E00807A9F70E94BB050C94AA118A
:1002D0000C9400008150823108F05AC0E82FF0E001
:1002E0008827EA58FE4F8F4F0C94991196019A0176
:1002F00088018E019201C8019D01A301A701AD01F2
:10030000B101B501BB01BF01C801C301C901CD01E4
:10031000809180008F778093800008958091800085
:100320008F7DF9CF80918000877FF5CF84B58F775F
:1003300084BD089584B58F7DFBCF8091B0008F7709
:100340008093B00008958091B0008F7DF9CF8091A7
:1003500090008F77809390000895809190008F7D1A
:10036000F9CF80919000877FF5CF8091A0008F77A3
:100370008093A00008958091A0008F7DF9CF809197
:10038000A000877FF5CF809120018F778093200197
:100390000895809120018F7DF9CF80912001877F82
:1003A000F5CFCF93DF93282F30E0F901EA5DFD4FC1
:1003B0008491F901E052FE4FD491F901E656FE4FC7
:1003C000C491CC23A1F081110E946A01EC2FF0E0CE
:1003D000EE0FFF1FE058FE4FA591B491EC91ED2375
:1003E00081E090E009F480E0DF91CF91089580E012
:1003F00090E0FACF1F93CF93DF93282F30E0F901DD
:10040000EA5DFD4F8491F901E052FE4FD491F9016C
:10041000E656FE4FC491CC23A9F0162F81110E94FD
:100420006A01EC2FF0E0EE0FFF1FEA59FE4FA59195
:10043000B4918FB7F894EC91111108C0D095DE23D8
:10044000DC938FBFDF91CF911F910895DE2BF8CF02
:10045000CF93DF9390E0FC01E052FE4F249186564B
:100460009E4FFC0184918823C9F090E0880F991F6A
:10047000FC01E45BFE4FA591B491FC01EA59FE4FEB
:10048000C591D49161110DC09FB7F8948C912095BE
:1004900082238C938881282328839FBFDF91CF916B
:1004A0000895623051F49FB7F8943C91822F809563
:1004B00083238C93E8812E2BEFCF8FB7F894EC91A8
:1004C0002E2B2C938FBFEACF863308F086532091D2
:1004D0007B00982F9870277F922B90937B008770DA
:1004E000806480937C0080917A00806480937A009D
:1004F00080917A0086FDFCCF809178009091790000
:1005000008953FB7F89480919D0A90919E0AA0911A
:100510009F0AB091A00A26B5A89B05C02F3F19F0ED
:100520000196A11DB11D3FBFBA2FA92F982F882773
:10053000BC01CD01620F711D811D911D42E0660F4E
:10054000771F881F991F4A95D1F708958F929F9220
:10055000AF92BF92CF92DF92EF92FF926B017C013C
:100560000E9481024B015C01C114D104E104F10439
:10057000B9F00E948102681979098A099B09683ECD
:1005800073408105910580F321E0C21AD108E1088A
:10059000F10888EE880E83E0981EA11CB11CE4CF00
:1005A000FF90EF90DF90CF90BF90AF909F908F9093
:1005B0000895AF92BF92CF92DF92EF92FF920F9386
:1005C0001F93CF93DF936C017B018B01040F151FE9
:1005D000EB015E01AE18BF08C017D10759F0699151
:1005E000D601ED91FC910190F081E02DC6011995A5
:1005F000892B79F7C501DF91CF911F910F91FF9062
:10060000EF90DF90CF90BF90AF9008958091720AE5
:100610009091730AA091740AB091750A0196A11D78
:10062000B11D8093720A9093730AA093740AB093D9
:10063000750A0895FC01538D448D252F30E0842FD9
:1006400090E0821B930B541710F0CF9608950197FA
:100650000895FC01918D828D981761F0A28DAE0FE7
:10066000BF2FB11D5D968C91928D9F5F9F73928F6E
:1006700090E008958FEF9FEF0895FC01918D828D9A
:10068000981731F0828DE80FF11D858D90E0089567
:100690008FEF9FEF0895FC01918D228D892F90E0BF
:1006A000805C9F4F821B91098F739927089581EA7F
:1006B0009AE00E944B0321E0892B09F420E0822F6D
:1006C0000895FC01A48DA80FB92FB11DA35ABF4FE7
:1006D0002C91848D90E001968F739927848FA68941
:1006E000B7892C93A089B1898C91837080648C9395
:1006F000938D848D981306C00288F389E02D808144
:100700008F7D80830895EF92FF920F931F93CF9375
:10071000DF93EC0181E0888F9B8D8C8D98131AC03C
:10072000E889F989808185FF15C09FB7F894EE8923
:10073000FF896083E889F989808183708064808380
:100740009FBF81E090E0DF91CF911F910F91FF90CB
:10075000EF900895F62E0B8D10E00F5F1F4F0F7373
:100760001127E02E8C8D8E110CC00FB607FCFACF2E
:10077000E889F989808185FFF5CFCE010E94610368
:10078000F1CFEB8DEC0FFD2FF11DE35AFF4FF082FF
:100790009FB7F8940B8FEA89FB8980818062CFCF65
:1007A000CF93DF93EC01888D8823B9F0AA89BB89A8
:1007B000E889F9898C9185FD03C0808186FD0DC093
:1007C0000FB607FCF7CF8C9185FFF2CF808185FFB4
:1007D000EDCFCE010E946103E9CFDF91CF91089563
:1007E00080E090E0892B29F00E94570381110E943C
:1007F000000080E090E0892B49F080E090E0892BB8
:1008000029F00E94000081110E94000080E090E029
:10081000892B49F080E090E0892B29F00E940000AC
:1008200081110E94000080E090E0892B49F080E077
:1008300090E0892B29F00E94000081110C940000A7
:100840000895BF92CF92DF92EF92FF920F931F9382
:10085000CF93DF931092450A86E0B82E01E093EB28
:10086000C92E9BE0D92E1091450A1C3128F5B19E66
:10087000E0011124C356D64F8A81F9806A8188230A
:10088000C9F0E8808E2D0E94FA016A8160278F2DC1
:100890000E94FA01C6010197F1F76A8160278E2D47
:1008A0000E94FA016A818F2D0E94FA011F5F109346
:1008B000450AD9CF6027F7CFDF91CF911F910F91D4
:1008C000FF90EF90DF90CF90BF900895FC010190D2
:1008D0000020E9F73197AF01481B590BBC0181EAB1
:1008E0009AE00C94D902CF93DF93D0E0C0E0009758
:1008F00019F00E946604EC018AE794E00E94660405
:100900008C0F9D1FDF91CF910895009711F00C94EB
:10091000660490E080E008951F920F920FB60F9248
:1009200011242F933F938F939F93AF93BF93809105
:10093000990A90919A0AA0919B0AB0919C0A3091D1
:10094000980A23E0230F2D3758F50196A11DB11DFC
:100950002093980A8093990A90939A0AA0939B0AED
:10096000B0939C0A80919D0A90919E0AA0919F0A43
:10097000B091A00A0196A11DB11D80939D0A90938C
:100980009E0AA0939F0AB093A00ABF91AF919F9136
:100990008F913F912F910F900FBE0F901F90189540
:1009A00026E8230F0296A11DB11DD2CF1F920F92F0
:1009B0000FB60F9211240BB60F922F933F934F93C4
:1009C0005F936F937F938F939F93AF93BF93EF93B7
:1009D000FF9381EA9AE00E946103FF91EF91BF913A
:1009E000AF919F918F917F916F915F914F913F91C7
:1009F0002F910F900BBE0F900FBE0F901F90189568
:100A00001F920F920FB60F9211240BB60F922F93D5
:100A10008F939F93EF93FF93E091B10AF091B20A05
:100A20008081E091B70AF091B80A82FD1DC09081E3
:100A30008091BA0A8F5F8F732091BB0A821741F0B1
:100A4000E091BA0AF0E0EF55F54F958F8093BA0A1E
:100A5000FF91EF919F918F912F910F900BBE0F906F
:100A60000FBE0F901F9018958081F2CF1F920F92AA
:100A70000FB60F9211240BB60F922F933F934F9303
:100A80005F936F937F938F939F93AF93BF93EF93F6
:100A9000FF93E0919B09F0919C091995FF91EF91CB
:100AA000BF91AF919F918F917F916F915F914F9186
:100AB0003F912F910F900BBE0F900FBE0F901F9084
:100AC00018951092A40A1092A30A88EE93E0A0E071
:100AD000B0E08093A50A9093A60AA093A70AB093CA
:100AE000A80A8EEC92E09093A20A8093A10A85EC6A
:100AF00090E09093AE0A8093AD0A84EC90E09093DE
:100B0000B00A8093AF0A80EC90E09093B20A809391
:100B1000B10A81EC90E09093B40A8093B30A82EC1E
:100B200090E09093B60A8093B50A86EC90E090939B
:100B3000B80A8093B70A1092BA0A1092BB0A1092B0
:100B4000BC0A1092BD0AE8E6FBE01282138215820D
:100B5000148236968BE0E43AF807B9F7EEE3FBE04F
:100B600081E0108284831682158237969BE0E836F6
:100B7000F907B9F70895CF93DF93CDB7DEB7629742
:100B80000FB6F894DEBF0FBECDBF789484B58260F7
:100B900084BD84B5816084BD85B5826085BD85B521
:100BA000816085BD80916E00816080936E0010929F
:100BB000810080918100826080938100809181001A
:100BC00081608093810080918000816080938000AB
:100BD0008091B10084608093B1008091B000816009
:100BE0008093B00080919100826080939100809109
:100BF000910081608093910080919000816080934A
:100C000090008091A10082608093A1008091A1005A
:100C100081608093A1008091A00081608093A000FA
:100C20008091210182608093210180912101816066
:100C30008093210180912001816080932001809127
:100C40007A00846080937A0080917A008260809339
:100C50007A0080917A00816080937A0080917A0096
:100C6000806880937A001092C100E091B10AF091FF
:100C7000B20A82E08083E091AD0AF091AE0A108260
:100C8000E091AF0AF091B00A90E190831092B90A16
:100C9000E091B50AF091B60A86E08083E091B30A4C
:100CA000F091B40A808180618083E091B30AF09171
:100CB000B40A808188608083E091B30AF091B40A1D
:100CC000808180688083E091B30AF091B40A8081CA
:100CD0008F7D808326E033E030939C0920939B092D
:100CE00081E080936F009093810010928000809348
:100CF0009A0980E49FE190939909809398099093D1
:100D000087008093860081E1809381001092770AAA
:100D10008091770A8E3080F48CED92E00E948504F9
:100D20006AE070E080E090E00E94A6028091770A7D
:100D30008F5F8093770AECCF8EED92E00E9485045E
:100D40001092770A8091770A893080F48CED92E0D6
:100D50000E9485046AE070E080E090E00E94A602B4
:100D60008091770A8F5F8093770AECCF8CED92E0C9
:100D70000E9473041092770A8091770A883080F479
:100D80008CED92E00E9485046AE070E080E090E0E3
:100D90000E94A6028091770A8F5F8093770AECCF3A
:100DA0008DEE92E00E9485041092770A8091770A76
:100DB000883080F48CED92E00E9485046AE070E057
:100DC00080E090E00E94A6028091770A8F5F809376
:100DD000770AECCF8CED92E00E9473040E94CA1057
:100DE0002AE530E040E050E00E942211665F7F4F2C
:100DF0008F4F9F4F0E94A6021092770A8091770A28
:100E0000843050F48CE794E00E9473048091770A58
:100E10008F5F8093770AF2CF6AE070E080E090E025
:100E20000E94A6028CE093E00E9485041092770A4B
:100E30001092780A1092450A12E001E0E8E2CE2E04
:100E4000D12CE12CF12C8091450A843140F586307B
:100E5000F9F41092770A0093780A8091770A8F5FED
:100E60008093770A8BEC93E00E9485040E94CA105D
:100E7000A70196010E942211665F7F4F8F4F9F4FFF
:100E80000E94A6028091450A8F5F8093450ADBCFBE
:100E90008D3019F71092770A1093780ADECF1092EE
:100EA000770A1091770A173060F4E12FF0E0E054F0
:100EB000FD4F62E080810E9428021F5F1093770A35
:100EC000F0CF1092770A1091770A133088F4E12F4F
:100ED000F0E0E953FD4F008161E0802F0E9428027D
:100EE00061E0802F0E94FA011F5F1093770AEBCF19
:100EF00082E393E00E9485048CE593E00E948504E0
:100F00001092770A4BE0F42E5AE0C52ED12C61E7FF
:100F1000462E512C612C712C7AE5872E912CA12C18
:100F2000B12C8091770A843008F064C090E0FC0115
:100F3000E45FFD4FE080F89ED001F99EB00D1124D2
:100F4000AA5BB54FEC92880F991FFC01EC5FFD4F37
:100F50008081918118969C938E9317971092780AAE
:100F60008D010F5F1F4F3090780A29E0231590F014
:100F70008E2D0E946402D8012D913C91820F931F07
:100F8000B6010E948511F801718360833394309219
:100F9000780AE9CF8BEC93E00E9485040091770AF0
:100FA000F09E800111240A5B154FD80111962D91F6
:100FB0003C91A6E3B1E00E947611A30192010E9448
:100FC0002211265F3F4F4F4F5F4FF8013483238339
:100FD0000E94CA10A50194010E942211665F7F4FF2
:100FE0008F4F9F4F0E94A6028091770A8F5F809358
:100FF000770A97CF8AE793E00E9485041092780AD7
:101000001092770A8FE993E00E9485041092450AB6
:1010100096E0E92E2AE5822E912CA12CB12C80910C
:10102000450A8A3008F068C0082F10E0843028F59F
:101030001092780AE09EC001E19E900D11249C015F
:101040002859344F6901F090780A31E03F1550F18A
:101050007090770AE72DF0E0EC5DFD4F8081F6019E
:10106000EF0DF11D808362E00E942802739470925C
:10107000770AF394F092780AE6CFF090770AEF2D92
:10108000F0E0EC5DFD4F8081E09EF001E19EF00D0F
:101090001124E859F44F808362E00E942802F394FF
:1010A000F092770AE09ED001E19EB00D1124A8597C
:1010B000B44F000F111FF801E05FFD4F8081918157
:1010C00015969C938E93149712961C928BEC93E03A
:1010D0000E9485040E94CA10A50194010E94221159
:1010E000665F7F4F8F4F9F4F0E94A6028091450AF7
:1010F0008F5F8093450A93CF8DEC93E00E94850427
:1011000081EF93E00E9485041092770AF7E0BF2EEA
:10111000AEE1CA2EBCE1DB2E1AE1E12E03E0F02E97
:101120002091770A2630A8F530E0F901E25CFD4F06
:101130008081B29E8001B39E100D1124025C144F79
:10114000D8018C93220F331FF901EE5CFD4F2081F3
:10115000318116963C932E9315971196CC92119748
:101160001296DC9212971396EC92F092780A61E054
:101170000E94280261E0F80180810E94FA018BEC54
:1011800093E00E9485048091770A8F5F8093770AAD
:10119000C7CF1092770A7FE3E72E7BE0F72E1091FE
:1011A000770A133040F460E08E2D0E9428021F5F02
:1011B0001093770AF4CF89E194E00E9485048DE3CF
:1011C00094E00E9473041092770A1092780A1092A9
:1011D000450A24E0C22E33E0B32E42E0A42E992427
:1011E000939456E0D52E67E0E62E1091450A1C3107
:1011F00008F068C0163009F055C09092770A109236
:10120000780A8091770A90E0FC01EF56FD4F8080CC
:10121000D19ED0011124A356B64F8C920091780A2A
:10122000202F30E0F901E657FD4FF0801196FC9237
:10123000119712961C921297E89EF001E99EF00D0C
:101240001124E20FF31FEE0FFF1FEC5BFD4F8081B7
:10125000918114969C938E93139761E0882D0E9440
:10126000280261E08F2D0E94280261E0882D0E94F3
:10127000FA0160E08F2D0E94FA0164E170E080E0E5
:1012800090E00E94A60260E0882D0E94FA0161E0D1
:101290008F2D0E94FA010F5F0093780A1F5F109351
:1012A000450AA3CF1D3019F4A092770AA8CF1431B4
:1012B00019F4B092770AA3CF183109F0A2CFC092E7
:1012C000770A9DCF85E694E00E9485041092770A04
:1012D00006E08CE1C82E8091770A811160C01092DF
:1012E000450A1091450A1C3128F5019FC0011124BF
:1012F0009C012356364F7901D901DC9061E08D2D98
:101300000E94FA01F701F18060E08F2D0E94FA013E
:1013100064E670E080E090E00E94A60260E08D2D1F
:101320000E94FA0161E08F2D0E94FA011F5F109365
:10133000450AD7CF64E670E080E090E00E94A60204
:10134000C092450A1091450A112329F1019FC0015D
:1013500011249C012356364F7901D901DC9061E0BC
:101360008D2D0E94FA01F701F18060E08F2D0E941F
:10137000FA0164E670E080E090E00E94A60260E07E
:101380008D2D0E94FA0161E08F2D0E94FA0111500B
:101390001093450AD7CF81E08093770A9CCF1092B3
:1013A000770A06E08091770A811146C064EF71E008
:1013B00080E090E00E94A6021092450A1091450A32
:1013C0001C31A8F4019FC00111249C012356364F03
:1013D000790161E0D9018C910E94FA0160E0F70186
:1013E00081810E94FA011F5F1093450AE7CF64EFE5
:1013F00071E080E090E00E94A6021092450A1091F0
:10140000450A1C31A8F4019FC00111249C012356F8
:10141000364F790160E0D9018C910E94FA0161E0B8
:10142000F70181810E94FA011F5F1093450AE7CFFF
:1014300081E08093770AB6CF8DE794E00E9485041F
:101440001092770A14E0812E912CA12CB12CC0901F
:10145000770AD12CF12CE12C0E94CA10A50194012D
:101460000E9422116E5F7F4F8F4F9F4FC616D70687
:10147000E806F90684F48BEC93E00E94850464E1AD
:1014800070E080E090E00E94A6028091770A8F5F72
:101490008093770ADCCF86E994E00E9485048BEC88
:1014A00093E00E94730464E170E080E090E00E94A9
:1014B000A6028CE994E00E9485041092770AB4E0B9
:1014C0008B2E912CA12CB12CC090770AD12CF12C11
:1014D000E12C0E94CA10A50194010E9422116E5FA6
:1014E0007F4F8F4F9F4FC616D706E806F90684F444
:1014F0008BEC93E00E94850464E170E080E090E072
:101500000E94A6028091770A8F5F8093770ADCCFD2
:101510001092770A8091770A823050F48AE794E03B
:101520000E9466048091770A8F5F8093770AF2CFDA
:1015300087EB94E00E9485042E01FDE04F0E511CC4
:101540001092770A81EA9AE00E944B031816190656
:101550002CF5EAE7FAE08EE1DF011D928A95E9F7C2
:1015600011E081EA9AE00E944B03892BB9F08BE1EC
:1015700093E00197F1F781EA9AE00E9429039091A4
:10158000770AE92FF0E0E658F54F80838A3011F4AE
:101590001093790A9F5F9093770AE3CF8091790A3D
:1015A000882371F11092790A86E0F201282F1192B6
:1015B0002A95E9F72AE73AE0398B288BF201DE0118
:1015C000179601900D928A95E1F761EC74E0C901DC
:1015D0000E94A111892B09F050C081E0898786E023
:1015E000FE013796DE01119601900D928A95E1F782
:1015F000EE81EF3F09F0B9C284E697E00E947304E0
:101600001092770A6BE0B62E74E0A72EE3E09E2ED0
:10161000F2E08F2E77247394A7E92A2EA7E03A2EC2
:101620008091770A843008F0D0C31092780AC82ECF
:10163000D12CBC9C8001BD9C100D11240A5B154F60
:1016400078018FEFE81AF80A6090780A99E0961509
:1016500008F4AAC2D8018C910E946402F70120818B
:101660003181820F931F6AE070E00E9485117183BF
:10167000608363946092780AE7CF69EC74E08AE74C
:101680009AE00E94A111892B11F41986A8CF62ED6E
:1016900074E08AE79AE00E94A111892B21F481E08D
:1016A00089878C879CCF6AED74E08AE79AE00E9474
:1016B000A111892B19F4198681E0F3CF63EE74E050
:1016C0008AE79AE00E94A111892B21F481E08987A1
:1016D00082E0E7CF6DEE74E08AE79AE00E94A11104
:1016E000892B11F41986F4CF68EF74E08AE79AE049
:1016F0000E94A111892B21F481E0898783E0D1CF59
:1017000060E075E08AE79AE00E94A111892B11F44C
:101710001986F4CF69E075E08AE79AE00E94A1118A
:10172000892B21F481E0898784E0BBCF63E175E0F8
:101730008AE79AE00E94A111892B11F41986F4CF4F
:101740006EE175E08AE79AE00E94A111892B21F4ED
:1017500081E0898785E0A5CF67E275E08AE79AE0B6
:101760000E94A111892B11F41986F4CF61E375E071
:101770008AE79AE00E94A111892B21F481E08987F0
:1017800086E08FCF6AE375E08AE79AE00E94A111B4
:10179000892B11F41986F4CF64E475E08AE79AE0A6
:1017A0000E94A111892B21F481E0898787E079CFFC
:1017B0006DE475E08AE79AE00E94A111892B11F48B
:1017C0001986F4CF67E575E08AE79AE00E94A111D7
:1017D000892B21F481E0898788E063CF62E675E098
:1017E0008AE79AE00E94A111892B11F41986F4CF9F
:1017F0006EE675E08AE79AE00E94A111892B21F438
:1018000081E0898789E04DCF68E775E08AE79AE053
:101810000E94A111892B11F41986F4CF63E875E0B9
:101820008AE79AE00E94A111892B21F481E089873F
:101830008AE037CF6FE875E08AE79AE00E94A1114D
:10184000892B11F41986F4CF6CE975E08AE79AE0E8
:101850000E94A111892B21F481E089878BE021CF9F
:1018600066EA75E08AE79AE00E94A111892B11F4DB
:101870001986F4CF61EB75E08AE79AE00E94A11126
:10188000892B21F481E089878CE00BCF6CEB75E02C
:101890008AE79AE00E94A111892B11F41986F4CFEE
:1018A00068EC75E08AE79AE00E94A111892B21F487
:1018B00081E089878DE0F5CE61ED75E08AE79AE0F9
:1018C0000E94A111892B11F41986F4CF6BED75E0FC
:1018D0008AE79AE00E94A111892B21F481E089878F
:1018E0008EE0DFCE64EE75E08AE79AE00E94A111F7
:1018F000892B11F41986F4CF6EEE75E08AE79AE031
:101900000E94A111892B21F481E089878FE0C9CE43
:1019100069EF75E08AE79AE00E94A111892B11F422
:101920001986F4CF65E076E08AE79AE00E94A1117B
:10193000892B21F481E0898780E1B3CE6FE076E0E6
:101940008AE79AE00E94A111892B11F41986F4CF3D
:101950006AE176E08AE79AE00E94A111892B21F4DE
:1019600081E0898781E19DCE66E276E08AE79AE0B0
:101970000E94A111892B11F41986F4CF63E376E05C
:101980008AE79AE00E94A111892B21F481E08987DE
:1019900082E187CE6DE376E08AE79AE00E94A111AA
:1019A000892B11F41986F4CF68E476E08AE79AE08F
:1019B0000E94A111892B21F481E0898783E171CEF6
:1019C00063E576E08AE79AE00E94A111892B11F481
:1019D0001986F4CF6FE576E08AE79AE00E94A111BC
:1019E000892B21F481E0898788E15BCE6AE676E085
:1019F0008AE79AE00E94A111892B11F41986F4CF8D
:101A000066E776E08AE79AE00E94A111892B21F42B
:101A100081E0898789E145CE61E876E08AE79AE04E
:101A20000E94A111892B11F41986F4CF6DE876E09C
:101A30008AE79AE00E94A111892B21F481E089872D
:101A40008AE12FCE6FE976E08AE79AE00E94A11141
:101A5000892B11F41986F4CF62EB76E08AE79AE0DD
:101A60000E94A111892B21F481E089878BE119CE95
:101A700064EC76E08AE79AE00E94A111892B11F4C8
:101A80001986F4CF67ED76E08AE79AE00E94A1110B
:101A9000892B21F481E0898784E103CE62EE76E030
:101AA0008AE79AE00E94A111892B11F41986F4CFDC
:101AB0006EEE76E08AE79AE00E94A111892B21F46C
:101AC00081E0898785E1EDCD69EF76E08AE79AE0EC
:101AD0000E94A111892B11F41986F4CF65E077E0FB
:101AE0008AE79AE00E94A111892B21F481E089877D
:101AF00086E1D7CD67E177E08AE79AE00E94A111FD
:101B0000892B11F41986F4CF6AE277E08AE79AE02C
:101B10000E94A111892B21F481E0898787E1C1CD41
:101B20006CE377E08AE79AE00E94A111892B11F417
:101B30001986F4CF6FE477E08AE79AE00E94A1115A
:101B4000892B21F481E089878CE1ABCD69E577E0D1
:101B50008AE79AE00E94A111892B11F41986F4CF2B
:101B60008FEF8C871B861A863ACDEC31A1F490E07A
:101B700080E036E02B81389FF001399FF00D112471
:101B8000E356F64F228301968C31910599F78CE14B
:101B90008093450A35CD8B8136E0E39FF001112417
:101BA000E356F64F82832CCDBC9CC001BD9C900DAA
:101BB00011249C012A5B354F7901D90117960D91AB
:101BC0001C9161E877E0C8010E94A111892B41F0C6
:101BD0006CE877E0C8010E94A111892B09F082C04E
:101BE000BC9CF001BD9CF00D1124EA5BF54F158201
:101BF000818192818A309105A8F432862186BC9C2D
:101C0000F001BD9CF00D1124EA5BF54F8581823017
:101C100009F45CC060F5882391F18130E1F189EB32
:101C200097E036C09C012A5031092431310530F447
:101C300075822AE937E032872187E1CF9C012E5156
:101C400031092431310530F485828EE997E092879D
:101C50008187D5CFC297449730F49582A2EAB7E046
:101C6000B287A187CCCFA58226EA37E0E4CF8330C4
:101C700099F18430A1F686818330C9F40FC0868142
:101C80008130A9F4878190850E9485048BEA97E0D2
:101C90000E9485040CC08681811107C087819085D0
:101CA0000E94850482EB97E0F3CF823059F3E091F4
:101CB000770ABE9EF0011124EA5BF54F8581868389
:101CC0008091770A8F5F8093770AAACC86818130D2
:101CD00029F3833061F7D6CF86818230F9F28430E0
:101CE00031F7D0CFD70115961C92159711968D918B
:101CF0009C9112978A309105C8F485E015968C93D3
:101D0000BC9CF001BD9CF00D1124EA5BF54F858170
:101D1000873009F443C068F58530B1F1863009F0A9
:101D20007ECF86818530B1F5C801BACF9C012A509B
:101D300031092431310520F486E0F7018583E0CFB5
:101D40009C012E5131092431310518F487E0D70167
:101D5000D5CF9C01225331092431310510F488E09C
:101D6000ECCF86549109449710F489E0F0CF8AE0D3
:101D7000E4CF893011F1C8F08A3009F050CF868164
:101D8000893009F094CFD0CF8681863009F08FCF8B
:101D9000C8017ACF873009F08ACFFACF86818630A2
:101DA00019F2883009F083CFF3CF8681873009F4A8
:101DB000BBCF893009F07BCFEBCF8681883009F427
:101DC000B3CF8A3009F073CFE3CF1092770A36E0B1
:101DD000C32E43E0B42E52E0A52E99249394D090C4
:101DE000770AF9E0FD1508F462C0ED2CF12CCE9CC9
:101DF0008001CF9C100D11240859144FD8018C91EB
:101E0000B3E0BD1570F10E94D101892B01F5F801F5
:101E10009282CE9CF001CF9CF00D1124E859F44F32
:101E200082819381981771F18383DC9CF0011124E6
:101E3000E859F44F8481958122812130E9F068F1DD
:101E4000223031F1233071F180E098E019C0D801DF
:101E500011968C910E94D101892B51F4F801A28234
:101E6000D8CF0E94D101892B19F4F801B282D1CFC9
:101E7000D80112961C92CDCF0E94850483EE97E084
:101E80000E9485048091770A8F5F8093770AA7CF9D
:101E90000E9485048AEE97E0F3CF0E94850481EFCB
:101EA00097E0EECF0E94850488EF97E0E9CF10928B
:101EB000770A27E0B22E0091770A063008F0BDC0FD
:101EC0001092760A1091760A163068F4B19EF001ED
:101ED0001124E25CF44F61E080810E94FA011F5FEF
:101EE0001093760AEFCF10E0B09EC001B19E900D26
:101EF0001124FC01E25CF44F7F0160E080810E94CC
:101F0000FA01D70111968C910E94D1016C01F70161
:101F100082810E94D1019C0191E0CD2809F090E0DE
:101F2000232B09F59130F8F4B09EF001B19EF00D2D
:101F30001124E25CF44F858196810E94850482EB36
:101F400097E00E9485040E94210464E670E080E02E
:101F500090E00E94A6020E9421048091770A8F5F80
:101F60008093770AA8CFB09EC001B19E900D112436
:101F70009C01225C344F7901D90111968C910E9409
:101F8000D1016C01F70182810E94D101AC0121E0F5
:101F9000CD2809F020E091E0452B09F090E0B09EBB
:101FA000F001B19EF00D1124E25CF44F921738F469
:101FB000858196810E9485048BEA97E0C2CF838158
:101FC0000E94D101892B49F61092720A1092730A6D
:101FD0001092740A1092750A0091770AB09E8001DF
:101FE0001124025C144FD80113968C910E94D101E8
:101FF000892B39F40E9421048DE993E00E94850425
:10200000EBCFF801858196814091720A5091730A55
:102010006091740A7091750A493E534061057105DB
:102020003CF40E94850483E198E00E94850495CFEA
:102030000E9485048BE198E0F8CF0E942104109261
:10204000780A97E0F92E1091780A133008F053C0FF
:102050001092760A0091760A033060F4E02FF0E0E7
:10206000E953FD4F61E080810E94FA010F5F009308
:10207000760AF0CFE12FF0E0E953FD4F60E0808178
:102080000E94FA011092770A0091770AE090780A8C
:10209000073068F510E0F801E054FD4F80810E94A0
:1020A000D101892BF1F4F801FE9CE00DF11D112402
:1020B000EE0FFF1FEA56FD4F808191810E9473044D
:1020C000E091770AF0E0E054FD4F80810E94D10159
:1020D000892B19F40E942104F3CF81EA9AE00E942F
:1020E000D0038091770A8F5F8093770ACDCFE394F6
:1020F000E092780AA8CF0E94F00322CA8F929F92A2
:10210000AF92BF92CF92DF92EF92FF92CF93DF9385
:10211000EC01688179818A819B8161157105810556
:10212000910521F464E279ED8BE597E02DE133EF41
:1021300041E050E00E94221149015A019B01AC018B
:10214000A7EAB1E40E9441116B017C01ACEEB4EF4F
:10215000A50194010E944F11C60ED71EE81EF91E5C
:10216000F7FE06C081E0C81AD108E10880E8F80A45
:10217000C882D982EA82FB82C701B6019F77DF91CC
:10218000CF91FF90EF90DF90CF90BF90AF909F9056
:102190008F9008958F929F92AF92BF92CF92DF92CD
:1021A000EF92FF9260910002709101028091020211
:1021B00090910302611571058105910521F464E296
:1021C00079ED8BE597E02DE133EF41E050E00E949F
:1021D000221149015A019B01AC01A7EAB1E40E9416
:1021E00041116B017C01ACEEB4EFA50194010E949A
:1021F0004F11C60ED71EE81EF91EF7FE06C081E07D
:10220000C81AD108E10880E8F80AC0920002D0920A
:102210000102E0920202F0920302C701B6019F7729
:10222000FF90EF90DF90CF90BF90AF909F908F90F6
:1022300008956093000270930102809302029093CC
:1022400003020895052E97FB1EF400940E94391195
:1022500057FD07D00E94541107FC03D04EF40C9494
:10226000391150954095309521953F4F4F4F5F4F15
:10227000089590958095709561957F4F8F4F9F4FF2
:1022800008950E947611A59F900DB49F900DA49F74
:10229000800D911D11240895B7FF0C9441110E94E7
:1022A0004111821B930B0895A1E21A2EAA1BBB1B9E
:1022B000FD010DC0AA1FBB1FEE1FFF1FA217B30712
:1022C000E407F50720F0A21BB30BE40BF50B661F28
:1022D000771F881F991F1A9469F7609570958095EC
:1022E00090959B01AC01BD01CF010895A29FB00163
:1022F000B39FC001A39F700D811D1124911DB29F3A
:10230000700D811D1124911D0895AA1BBB1B51E165
:1023100007C0AA1FBB1FA617B70710F0A61BB70B55
:10232000881F991F5A95A9F780959095BC01CD01FA
:102330000895EE0FFF1F881F8BBF0790F691E02DC9
:102340001994FB01DC018D91019080190110D9F3E2
:08235000990B0895F894FFCFEA
:10235800010000008107230830088C073736383918
:102368003D08480853085E08690873087E0889080C
:1023780093089E0804060F020A080D0C0E030507B1
:10238800090BA908AD08B108B508B908C40818169A
:1023980017191B1DCF08D308D708DD08E108E7087F
:1023A8000000EC08F108F608FD0803090B091109FB
:1023B80018091D09220929092F0937093D09440966
:1023C8004B09520960090000000000006E097509F8
:1023D8007C098A090000000000001F212325292DFF
:1023E8003135332F2B27E708E108DD08D708D30854
:1023F800CF08000018091D093D0937092F092909C7
:102408002209F108EC08F608FD0803090B0911096F
:10241800222426282A2C2E34323000000000830380
:10242800D9021A03D0034B0329033D032300204D8F
:1024380041494E4B4559424F4152442000204D439B
:102448004455204145524F534F4654204133323072
:102458002053494D554C41544F5220002320436F7F
:102468006E6669677572696E672074686520707535
:10247800736820627574746F6E20696E70757473FA
:1024880021000A0A0D205075736820627574746FF4
:102498006E20636F6E66696775726174696F6E200E
:1024A800646F6E6521200A0A0A0D20000A0D0A0DC4
:1024B800202320496E697469616C6973696E6720AD
:1024C800414443206B6E6F6273000A0D2023204144
:1024D80044432070696E732061737369676E656D1C
:1024E800656E7420646F6E6521200A0A0A0D000A61
:1024F8000A0D496E697469616C697365207377693F
:1025080074636820627574746F6E2070696E7320CE
:1025180061737369676E6D656E74212E000A0A0D0A
:1025280053776974636820627574746F6E20636F83
:102538006E66696720646F6E652121210A0A0A0D9B
:10254800000A0A0D20496E697469616C6973696EC5
:102558006720656E636F64657220636F6E66696776
:1025680075726174696F6E21000A0A0D20456E63E9
:102578006F64657220636F6E6669747572617469E1
:102588006F6E20646F6E65210A0A0A0D000A0D201D
:1025980023204B6579626F617264206C65642061E9
:1025A8007272617920696E697469616C6973696EA8
:1025B800672E2E2E000A0A2054657374696E6720F0
:1025C8006C6564732E2E2E2E2E200D0A000A0A200A
:1025D8005374617274696E67204D61696E4B6579D9
:1025E800626F61726400446F6E6521000A0A2052AE
:1025F8006561647920666F722070726573732062FA
:102608007574746F6E21000A202D3E200A0A0A0D87
:10261800004C4F432C4F4E0A004C4F432C4F46461C
:102628000A004150312C4F4E0A004150312C4F4680
:10263800460A00415F5448522C4F4E0A00415F54ED
:1026480048522C4F46460A004150322C4F4E0A0041
:102658004150322C4F46460A0045585045442C4FAD
:102668004E0A0045585045442C4F46460A004150F2
:1026780050522C4F4E0A00415050522C4F46460A99
:102688000046445F432C4F4E0A0046445F432C4F9C
:1026980046460A004C535F432C4F4E0A004C535F8A
:1026A800432C4F46460A00435354525F432C4F4E27
:1026B8000A00435354525F432C4F46460A00575072
:1026C800545F432C4F4E0A005750545F432C4F46DB
:1026D800460A00564F522E445F432C4F4E0A00566E
:1026E8004F522E445F432C4F46460A004E44425FE9
:1026F800432C4F4E0A004E44425F432C4F46460A35
:1027080000415250545F432C4F4E0A0041525054DE
:102718005F432C4F46460A0046445F502C4F4E0AF2
:102728000046445F502C4F46460A004C535F502CDD
:102738004F4E0A004C535F502C4F46460A004353F5
:1027480054525F502C4F4E0A00435354525F502C42
:102758004F46460A005750545F502C4F4E0A0057B8
:1027680050545F502C4F46460A00564F522E445F35
:10277800502C4F4E0A00564F522E445F502C4F4655
:10278800460A004E44425F502C4F4E0A004E4442C7
:102798005F502C4F46460A00415250545F502C4F10
:1027A8004E0A00415250545F502C4F46460A00468C
:1027B8002F4F5F50472C4F4E0A00462F4F5F504710
:1027C8002C4F46460A00462F4F5F50522C4F4E0A58
:1027D80000462F4F5F50522C4F46460A004D41533A
:1027E8005445525F5741524D5F502C4F4E0A004D91
:1027F80041535445525F5741524D5F502C4F464606
:102808000A004D41535445525F434155545F502C83
:102818004F4E0A004D41535445525F434155545F52
:10282800502C4F46460A00462F4F5F43472C4F4EC9
:102838000A00462F4F5F43472C4F46460A00462F53
:102848004F5F43522C4F4E0A00462F4F5F43522C86
:102858004F46460A004D41535445525F5741524D29
:102868005F432C4F4E0A004D41535445525F574128
:10287800524D5F432C4F46460A004D415354455232
:102888005F434155545F432C4F4E0A004D4153540A
:1028980045525F434155545F432C4F46460A004614
:1028A800554C4C592C4F4E0A0046554C4C592C4F00
:1028B80046460A004552524F52202D2062757474C4
:1028C8006F6E206E616D65206E6F742061626C653D
:1028D80000454649535F4D4F445F500045464953B4
:1028E8005F4D4F445F43004C5300564F52004E41DA
:1028F800560041524300504C414E002C4445430A77
:102908000D002C494E430A0D006572726F722069E2
:102918006E20706F74656E74696F6D65746572731F
:10292800202D2061646320636F6E76657274657212
:102938000A0D002C4144460A0D002C564F520A0D30
:10294800002C4F46460A0D002C484F4C440A0D00F7
:102958006572726F72202D207377697468657320B1
:102968000A0D002C505553480A0D002C50554C4C5C
:102978000A0D00454649535F52414E47455F500096
:10298800454649535F52414E47455F4300454649D6
:10299800535F5357315F5000454649535F53573291
:1029A8005F5000454649535F5357315F43004546E2
:1029B80049535F5357325F43005353505F462F4F7D
:1029C8005F50004D53545F5741524D5F50004D5377
:1029D800545F434155545F50005353505F462F4F47
:1029E8005F43004D53545F5741524D5F43004D5371
:1029F800545F434155545F43005350440048444793
:102A080000414C5400562F5300454649535F414CF2
:102A1800545F4300454649535F414C545F50004C56
:102A28004F430041503100412F5448520041503229
:102A380000455850454400415050520046445F43B9
:102A4800004C535F4300435354525F430057505464
:102A58005F4300564F522E445F43004E44425F434B
:102A680000415250545F430046445F50004C535F4E
:102A78005000435354525F50005750545F50005613
:102A88004F522E445F50004E44425F500041525016
:102A9800545F5000462F4F5F434700462F4F5F4318
:102AA80052004D41535445525F5741524D5F4300C8
:102AB8004D41535445525F434155545F4300462F9F
:102AC8004F5F504700462F4F5F5052004D415354BF
:102AD80045525F5741524D5F50004D415354455246
:082AE8005F434155545F5000AB
:00000001FF
