:100000000C9437010C9468010C9468010C946801FD
:100010000C9468010C9468010C9468010C946801BC
:100020000C9468010C9468010C9468010C946801AC
:100030000C9468010C9468010C9468010C9468019C
:100040000C9468010C9468010C9468010C9468018C
:100050000C9476050C9468010C9468010C94CC0403
:100060000C9468010C9440050C9416050C946801DE
:100070000C9468010C9468010C9468010C9468015C
:100080000C9468010C9468010C9468010C9468014C
:100090000C9468010C9468010C9468010C9468013C
:1000A0000C9468010C9468010C9468010C9468012C
:1000B0000C9468010C9468010C9468010C9468011C
:1000C0000C9468010C9468010C9468010C9468010C
:1000D0000C9468010C9468010C9468010C946801FC
:1000E0000C9468010C9488010C948E010C94A3016B
:1000F0000C94C8010C949A010C94CD010C949201BB
:100100000C94BF010C9478030C94FB020C94B10185
:100110000C94CE020C941E030C940F030C94B501A6
:100120000C949D010C94C3010C94BB010C944003EE
:100130000C94C9010C94C5030C94AD010C943203CA
:100140000C94590E0C9496010C94A7010000210008
:10015000240027002A002D00300033000101000098
:10016000040107010A0100002200250028002B00DD
:100170002E003100340002010000050108010B01CE
:10018000000020002300260029002C002F00320050
:100190000001000003010601090105050505070529
:1001A00008080808020202020A0A080804040404F3
:1001B000010101010101010103030303030303031F
:1001C000040707070C0C0C0C0C0C0C0C02020202AE
:1001D00006060606060606060B0B0B0B0B0B0B0B97
:1001E0000102102020080810204010204080020149
:1001F000020108040201010204081020408080402E
:10020000201008040201800402018040201008042C
:1002100002010804020101020408102040800102CA
:1002200004081020408000000A0B02090C0D0E0883
:1002300007030401000000000000000000000000AF
:1002400000000000000000000000000000000000AE
:10025000000012111000000000000000000000006B
:10026000000000000000000000000000590E1124F2
:100270001FBECFEFD1E2DEBFCDBF00E00CBF19E063
:10028000A0E0B2E0E8E6FFE100E00BBF02C00790AB
:100290000D92AC35B107D9F72BE0ACE5B9E001C060
:1002A0001D92A434B207E1F711E0C7E3D1E000E00A
:1002B00006C021970109802FFE010E94A10FC633BD
:1002C000D10780E00807A9F70E94A1050C94B20F9E
:1002D0000C9400008150823108F05AC0E82FF0E001
:1002E0008827EA58FE4F8F4F0C94A10F96019A0170
:1002F00088018E019201C8019D01A301A701AD01F2
:10030000B101B501BB01BF01C801C301C901CD01E4
:10031000809180008F778093800008958091800085
:100320008F7DF9CF80918000877FF5CF84B58F775F
:1003300084BD089584B58F7DFBCF8091B0008F7709
:100340008093B00008958091B0008F7DF9CF8091A7
:1003500090008F77809390000895809190008F7D1A
:10036000F9CF80919000877FF5CF8091A0008F77A3
:100370008093A00008958091A0008F7DF9CF809197
:10038000A000877FF5CF809120018F778093200197
:100390000895809120018F7DF9CF80912001877F82
:1003A000F5CFCF93DF93282F30E0F901EA5DFD4FC1
:1003B0008491F901E052FE4FD491F901E656FE4FC7
:1003C000C491CC23A1F081110E946A01EC2FF0E0CE
:1003D000EE0FFF1FE058FE4FA591B491EC91ED2375
:1003E00081E090E009F480E0DF91CF91089580E012
:1003F00090E0FACF1F93CF93DF93282F30E0F901DD
:10040000EA5DFD4F8491F901E052FE4FD491F9016C
:10041000E656FE4FC491CC23A9F0162F81110E94FD
:100420006A01EC2FF0E0EE0FFF1FEA59FE4FA59195
:10043000B4918FB7F894EC91111108C0D095DE23D8
:10044000DC938FBFDF91CF911F910895DE2BF8CF02
:10045000CF93DF9390E0FC01E052FE4F249186564B
:100460009E4FFC0184918823D1F090E0880F991F62
:10047000FC01E45BFE4FA591B491FC01EA59FE4FEB
:10048000C591D491623071F49FB7F8943C91822F5A
:10049000809583238C93E8812E2B28839FBFDF9147
:1004A000CF9108958FB7F894EC912E2B2C938FBF9A
:1004B000F6CF863308F0865320917B00982F9870F2
:1004C000277F922B90937B008770806480937C00C1
:1004D00080917A00806480937A0080917A0086FD12
:1004E000FCCF809178009091790008953FB7F894FF
:1004F0008091A30A9091A40AA091A50AB091A60A9E
:1005000026B5A89B05C02F3F19F00196A11DB11D6E
:100510003FBFBA2FA92F982F8827BC01CD01620FAA
:10052000711D811D911D42E0660F771F881F991F65
:100530004A95D1F708958F929F92AF92BF92CF9232
:10054000DF92EF92FF926B017C010E9476024B01D9
:100550005C01C114D104E104F104B9F00E947602F7
:10056000681979098A099B09683E734081059105DC
:1005700080F321E0C21AD108E108F10888EE880E64
:1005800083E0981EA11CB11CE4CFFF90EF90DF9098
:10059000CF90BF90AF909F908F900895AF92BF92F1
:1005A000CF92DF92EF92FF920F931F93CF93DF933F
:1005B0006C017B018B01040F151FEB015E01AE186E
:1005C000BF08C017D10759F06991D601ED91FC9190
:1005D0000190F081E02DC6011995892B79F7C501AD
:1005E000DF91CF911F910F91FF90EF90DF90CF900F
:1005F000BF90AF90089580915C0990915D09A091A2
:100600005E09B0915F090196A11DB11D80935C093F
:1006100090935D09A0935E09B0935F090895FC0172
:10062000538D448D252F30E0842F90E0821B930B57
:10063000541710F0CF96089501970895FC01918DFD
:10064000828D981761F0A28DAE0FBF2FB11D5D9600
:100650008C91928D9F5F9F73928F90E008958FEFA2
:100660009FEF0895FC01918D828D981731F0828D56
:10067000E80FF11D858D90E008958FEF9FEF0895AD
:10068000FC01918D228D892F90E0805C9F4F821B11
:1006900091098F739927089587EA9AE00E94400391
:1006A00021E0892B09F420E0822F0895FC01A48D1C
:1006B000A80FB92FB11DA35ABF4F2C91848D90E084
:1006C00001968F739927848FA689B7892C93A08967
:1006D000B1898C91837080648C93938D848D9813F1
:1006E00006C00288F389E02D80818F7D8083089584
:1006F000EF92FF920F931F93CF93DF93EC0181E072
:10070000888F9B8D8C8D98131AC0E889F989808118
:1007100085FF15C09FB7F894EE89FF896083E8894B
:10072000F98980818370806480839FBF81E090E03D
:10073000DF91CF911F910F91FF90EF900895F62ECA
:100740000B8D10E00F5F1F4F0F731127E02E8C8D64
:100750008E110CC00FB607FCFACFE889F9898081A9
:1007600085FFF5CFCE010E945603F1CFEB8DEC0F44
:10077000FD2FF11DE35AFF4FF0829FB7F8940B8FC6
:10078000EA89FB8980818062CFCFCF93DF93EC0130
:10079000888D8823B9F0AA89BB89E889F9898C9169
:1007A00085FD03C0808186FD0DC00FB607FCF7CF25
:1007B0008C9185FFF2CF808185FFEDCFCE010E9425
:1007C0005603E9CFDF91CF91089580E090E0892B27
:1007D00029F00E944C0381110E94000080E090E00B
:1007E000892B49F080E090E0892B29F00E940000DD
:1007F00081110E94000080E090E0892B49F080E0A8
:1008000090E0892B29F00E94000081110E940000D5
:1008100080E090E0892B49F080E090E0892B29F07E
:100820000E94000081110C9400000895BF92CF92A5
:10083000DF92EF92FF920F931F93CF93DF9310926B
:100840007C0A86E0B82E01E09BE1C92E93E0D92E08
:1008500010917C0A1C3128F5B19EE0011124CC5284
:10086000D64F8A81F9806A818823C9F0E8808E2D6D
:100870000E94FA016A8160278F2D0E94FA01C60149
:100880000197F1F76A8160278E2D0E94FA016A8133
:100890008F2D0E94FA011F5F10937C0AD9CF602729
:1008A000F7CFDF91CF911F910F91FF90EF90DF90E5
:1008B000CF90BF900895FC0101900020E9F7319797
:1008C000AF01481B590BBC0187EA9AE00C94CE0299
:1008D0008F929F92AF92BF920F931F93CF93DF930C
:1008E000CDB7DEB7A1970FB6F894DEBF0FBECDBF70
:1008F00019A2423008F44AE08E010F5D1F4F842E8A
:10090000912CB12CA12CA50194010E945C0FE62F23
:10091000B901CA01EA30F4F4E05DD801EE938D012B
:10092000232B242B252B79F790E080E0109719F0EA
:10093000CD010E945B04A1960FB6F894DEBF0FBEF6
:10094000CDBFDF91CF911F910F91BF90AF909F903E
:100950008F900895E95CE1CFCF93DF93D0E0C0E0C2
:10096000009719F00E945B04EC018FE195E00E9472
:100970005B048C0F9D1FDF91CF910895009711F0BC
:100980000C945B0490E080E00895682F70E090E0A4
:1009900080E04AE00C9468041F920F920FB60F9209
:1009A00011242F933F938F939F93AF93BF93809185
:1009B0009F0A9091A00AA091A10AB091A20A309139
:1009C0009E0A23E0230F2D3758F50196A11DB11D76
:1009D00020939E0A80939F0A9093A00AA093A10A55
:1009E000B093A20A8091A30A9091A40AA091A50AAB
:1009F000B091A60A0196A11DB11D8093A30A909300
:100A0000A40AA093A50AB093A60ABF91AF919F91A3
:100A10008F913F912F910F900FBE0F901F901895BF
:100A200026E8230F0296A11DB11DD2CF1F920F926F
:100A30000FB60F9211240BB60F922F933F934F9343
:100A40005F936F937F938F939F93AF93BF93EF9336
:100A5000FF9387EA9AE00E945603FF91EF91BF91BE
:100A6000AF919F918F917F916F915F914F913F9146
:100A70002F910F900BBE0F900FBE0F901F901895E7
:100A80001F920F920FB60F9211240BB60F922F9355
:100A90008F939F93EF93FF93E091B70AF091B80A79
:100AA0008081E091BD0AF091BE0A82FD1DC0908157
:100AB0008091C00A8F5F8F732091C10A821741F025
:100AC000E091C00AF0E0E955F54F958F8093C00A98
:100AD000FF91EF919F918F912F910F900BBE0F90EF
:100AE0000FBE0F901F9018958081F2CF1F920F922A
:100AF0000FB60F9211240BB60F922F933F934F9383
:100B00005F936F937F938F939F93AF93BF93EF9375
:100B1000FF93E091B309F091B4091995FF91EF911A
:100B2000BF91AF919F918F917F916F915F914F9105
:100B30003F912F910F900BBE0F900FBE0F901F9003
:100B40001895CF93DF93CDB7DEB765970FB6F894BE
:100B5000DEBF0FBECDBF789484B5826084BD84B5FE
:100B6000816084BD85B5826085BD85B5816085BDA8
:100B700080916E00816080936E0010928100809160
:100B800081008260809381008091810081608093E8
:100B90008100809180008160809380008091B1000D
:100BA00084608093B1008091B00081608093B00038
:100BB000809191008260809391008091910081608A
:100BC000809391008091900081608093900080914B
:100BD000A10082608093A1008091A1008160809338
:100BE000A1008091A00081608093A00080912101EC
:100BF0008260809321018091210181608093210195
:100C00008091200181608093200180917A0084602E
:100C100080937A0080917A00826080937A0080913C
:100C20007A00816080937A0080917A008068809356
:100C30007A001092C100E091B70AF091B80A82E000
:100C40008083E091B30AF091B40A1082E091B50A72
:100C5000F091B60A90E190831092BF0AE091BB0A2E
:100C6000F091BC0A86E08083E091B90AF091BA0A5B
:100C7000808180618083E091B90AF091BA0A808115
:100C800088608083E091B90AF091BA0A8081806817
:100C90008083E091B90AF091BA0A80818F7D8083C8
:100CA0002BEF32E03093B4092093B30981E08093B5
:100CB0006F0090938100109280008093620980E41D
:100CC0009FE19093610980936009909387008093DE
:100CD000860081E18093810080EA92E00E94AC046A
:100CE0008AEC92E00E94BE044AE065E070E080E099
:100CF00090E00E9468048AED92E00E94BE044AE0FF
:100D000067E070E080E090E00E9468048FE195E089
:100D10000E945B041092D30917E08091D3098530BB
:100D200008F042C08FE195E00E945B041092D20966
:100D30008091D209873090F58DEE92E00E94BE043A
:100D40008091D2090E94C50482E093E00E94BE0413
:100D50008091D3090E94C5048BE093E00E94BE04F9
:100D60008091D309E091D209189FC0011124E80FA6
:100D7000F92FF11DEE0FFF1FEA5EFD4F808191817B
:100D80000E94AC046AE070E080E090E00E949B0268
:100D90008091D2098F5F8093D209CACF8091D30905
:100DA0008F5F8093D309B9CF82E993E00E94BE049C
:100DB0001092D3098091D3098E3080F485E193E0BD
:100DC0000E94BE046AE070E080E090E00E949B0216
:100DD0008091D3098F5F8093D309ECCF87E193E0B3
:100DE0000E94BE041092D3098091D309893080F407
:100DF00085E193E00E94BE046AE070E080E090E04C
:100E00000E949B028091D3098F5F8093D309ECCF1E
:100E100085E193E00E94AC041092D3098091D3093C
:100E2000883080F485E193E00E94BE046AE070E0BF
:100E300080E090E00E949B028091D3098F5F8093B5
:100E4000D309ECCF86E293E00E94BE041092D3094E
:100E50008091D309883080F485E193E00E94BE043C
:100E60006AE070E080E090E00E949B028091D309EC
:100E70008F5F8093D309ECCF85E193E00E94AC04AF
:100E80000E94D20E26E930E040E050E00E942A0F96
:100E90006E5C7F4F8F4F9F4F0E949B021092D30931
:100EA0008091D309843050F481E295E00E94AC0433
:100EB0008091D3098F5F8093D309F2CF6AE070E00D
:100EC00080E090E00E949B0285E493E00E94BE04D3
:100ED0001092D3098091D3098A3080F482E594E09E
:100EE0000E94BE046AE070E080E090E00E949B02F5
:100EF0008091D3098F5F8093D309ECCF82E594E092
:100F00000E94AC040E94D20E26E930E040E050E09E
:100F10000E942A0F6E5C7F4F8F4F9F4F0E949B0253
:100F20008AE693E00E94BE0488E794E00E94BE0433
:100F30001092D3091092D20910927C0A02E0FF2489
:100F4000F39417E080917C0A843108F096C08630D3
:100F500009F089C01092D309F092D20986E993E092
:100F60000E94BE0485ED93E00E94BE04E0917C0ADD
:100F700024E0E29FF0011124ED59F64FA091D3092E
:100F8000B0E0AA56BD4F8C91808383EE93E00E941F
:100F9000BE04E0917C0A34E0E39FF0011124ED5996
:100FA000F64F80810E94C504E0917C0A84E0E89FAE
:100FB000F0011124ED59F64FA091D209B0E0A356EB
:100FC000BD4F8C91818387EF93E00E94BE04E09136
:100FD0007C0A94E0E99FF0011124ED59F64F8181DC
:100FE0000E94C504A0917C0AE4E0AE9FD0011124C8
:100FF000AD59B64F8091D209E091D309189FC00135
:101000001124E80FF92FF11DEE0FFF1FE459FD4FDA
:101010008081918113969C938E93129783E094E044
:101020000E94BE04E0917C0A24E0E29FF0011124BA
:10103000ED59F64F828193810E94BE0483E993E0CB
:101040000E94BE048091D3098F5F8093D3096AE028
:1010500070E080E090E00E949B0280917C0A8F5FAC
:1010600080937C0A6FCF8D3009F07CCF1092D3092A
:101070000093D20986EB93E073CF1092D3091091BD
:10108000D309173060F4E12FF0E0EA56FD4F62E03B
:1010900080810E9428021F5F1093D309F0CF109225
:1010A000D3091091D309133088F4E12FF0E0E3560F
:1010B000FD4F008161E0802F0E94280261E0802FB7
:1010C0000E94FA011F5F1093D309EBCF81E194E0F6
:1010D0000E94BE0483E394E00E94AC046AE070E0E6
:1010E00080E090E00E949B0284E594E00E94AC04C2
:1010F00087E794E00E94BE041092D3091092D209AF
:1011000010927C0A94E0F92E23E0E22E32E0D32EF6
:10111000CC24C39416E007E080917C0A8C3108F05F
:10112000B1C0863009F092C0C092D3091092D209A2
:1011300086E993E00E94BE042091D30930E0E0915B
:101140007C0A1E9FF0011124EC52F64FD901AD59D3
:10115000BD4F8C918083A091D2098A2F90E0DC0151
:10116000A45ABD4F4C9141831282029FD001039F2C
:10117000B00D1124A80FB91FAA0FBB1FAA5EBD4F47
:101180008D919C919483838385EE94E00E94BE04AC
:10119000E0917C0A1E9FF0011124EC52F64F8381EE
:1011A00094810E94BE0480EF94E00E94BE04E0910E
:1011B0007C0A1E9FF0011124EC52F64F80810E94A0
:1011C000C5048CEF94E00E94BE04E0917C0A1E9F4F
:1011D000F0011124EC52F64F81810E94C5048FE189
:1011E00095E00E945B0490907C0A199DC001112437
:1011F000FC01EC52F64F5F01808061E0882D0E9477
:101200002802F501B18061E08B2D0E94280261E087
:10121000882D0E94FA0160E08B2D0E94FA016EE198
:1012200070E080E090E00E949B0260E0882D0E94C8
:10123000FA0161E08B2D0E94FA018091D2098F5F43
:101240008093D209939490927C0A66CF8D3039F4C2
:10125000D092D3091092D20986EB93E06BCF843100
:1012600039F4E092D3091092D20987E994E062CF71
:10127000883109F061CFF092D3091092D2098EEB38
:1012800094E058CF10927C0A16E0E0917C0AEC3191
:1012900078F41E9FF0011124EC52F64F8381948163
:1012A0000E94AC0480917C0A8F5F80937C0AEDCF12
:1012B0008AE095E00E94BE041092D30906E0FCE1AA
:1012C000CF2E8091D309811160C010927C0A1091B9
:1012D0007C0A1C3128F5019FC00111249C012C526D
:1012E000364F7901F901D08061E08D2D0E94FA011D
:1012F000F701F18060E08F2D0E94FA0168E270E052
:1013000080E090E00E949B0260E08D2D0E94FA0137
:1013100061E08F2D0E94FA011F5F10937C0AD7CFE6
:1013200068E270E080E090E00E949B02C0927C0A3C
:1013300010917C0A112329F1019FC00111249C0105
:101340002C52364F7901F901D08061E08D2D0E9439
:10135000FA01F701F18060E08F2D0E94FA0168E246
:1013600070E080E090E00E949B0260E08D2D0E9482
:10137000FA0161E08F2D0E94FA01115010937C0A4E
:10138000D7CF81E08093D3099CCF1092D309E6E0B8
:10139000DE2E0091D309023008F046C066E970E005
:1013A00080E090E00E949B0210927C0A10917C0ADF
:1013B0001C31A8F4D19EC00111249C012C52364F3F
:1013C000790161E0F90180810E94FA0160E0F70192
:1013D00081810E94FA011F5F10937C0AE7CF66E9C2
:1013E00070E080E090E00E949B0210927C0A1091D5
:1013F0007C0A1C31A8F4D19EC00111249C012C52FE
:10140000364F790160E0F90180810E94FA0161E0C4
:10141000F70181810E94FA011F5F10937C0AE7CFD8
:101420000F5F0093D309B5CF82E295E00E94BE041E
:101430001092D30977E0F72E2091D309243018F5C4
:1014400030E0F901E859FD4F8081F29E8001F39E62
:10145000100D11240B54164FF80180830E9459027D
:10146000F80196838583BC0190E080E04AE00E9409
:1014700068048FE195E00E945B048091D3098F5F3F
:101480008093D309D9CF89E395E00E94BE0487E514
:1014900095E00E94BE041092D30964E0862E912C40
:1014A000A12CB12CC090D309D12CF12CE12C0E949D
:1014B000D20EA50194010E942A0F6E5F7F4F8F4FBD
:1014C0009F4FC616D706E806F90684F482E594E035
:1014D0000E94BE0464E170E080E090E00E949B0204
:1014E0008091D3098F5F8093D309DCCF80E795E0AB
:1014F0000E94BE0482E594E00E94AC0464E170E0C6
:1015000080E090E00E949B0286E795E00E94BE0486
:101510001092D30954E0852E912CA12CB12CC090AF
:10152000D309D12CF12CE12C0E94D20EA5019401FB
:101530000E942A0F6E5F7F4F8F4F9F4FC616D706B0
:10154000E806F90684F482E594E00E94BE0464E1B2
:1015500070E080E090E00E949B028091D3098F5F51
:101560008093D309DCCF1092D3098091D3098230C4
:1015700050F48FE195E00E945B048091D3098F5F66
:101580008093D309F2CF81E995E00E94BE0497E0F1
:10159000492E25E0222E312C3EE7C32E3AE0D32EF1
:1015A0004BE1642E43E0742E552453945E01FDE01C
:1015B000AF0EB11C1092D3090091D309043008F08A
:1015C0005FC0409E800111240B54164FF801148215
:1015D00013821092D2091D8B0C8B98012D5F3F4F07
:1015E00049013091D2093B8BF401E080F180353024
:1015F00090F4EC89FD8980810E9459028E0D9F1D17
:10160000B1010E948D0FF401718360838B898F5F1C
:101610008093D209E6CFF80185819681E816F90614
:1016200049F189E995E00E94BE048091D3090E94A6
:10163000C50485EA95E00E94BE04E091D3094E9E60
:10164000F0011124EB54F64F6381748190E080E047
:101650004AE00E94680483E993E00E94BE04E0919E
:10166000D3094E9EF0011124EB54F64F83819481EF
:10167000968385838091D3098F5F8093D3099CCF14
:101680000E9416041092D2091091D209133008F06A
:1016900053C01092D1090091D109033060F4E02FBA
:1016A000F0E0E356FD4F61E080810E94FA010F5F98
:1016B0000093D109F0CFE12FF0E0E356FD4F60E059
:1016C00080810E94FA011092D3090091D309F09011
:1016D000D209073068F510E0F801EA56FD4F808125
:1016E0000E94D101892BF1F4F8014F9CE00DF11D0E
:1016F0001124EE0FFF1FE459FD4F808191810E945C
:10170000AC04E091D309F0E0EA56FD4F80810E94DD
:10171000D101892B19F40E941604F3CF87EA9AE0CD
:101720000E94C5038091D3098F5F8093D309CDCFE9
:10173000F394F092D209A8CF1092D30987EA9AE0E5
:101740000E944003181619060CF5F6012EE11192BD
:101750002A95E9F787EA9AE00E944003892BB1F0C5
:10176000C3010197F1F787EA9AE00E941E03909166
:10177000D309E92FF0E0E258F54F80838A3011F465
:1017800050927D0A9F5F9093D309E4CF80917D0AA8
:10179000882309F458C0D0929D0AC0929C0A1092E6
:1017A0007D0A83E993E00E94BE0480919C0A909197
:1017B0009D0A0E94BE0483E993E00E94BE0400914A
:1017C0009C0A10919D0A86E0F501282F11922A9516
:1017D000E9F7198B088BF501DE01179601900D9240
:1017E0008A95E1F70115110509F45EC26BEA75E00F
:1017F000C8010E94A90F892B49F5598686E0FE0190
:101800003796DE01119601900D928A95E1F7EE81EF
:101810008EE498E0EF3F09F449C2EC3109F03BC295
:1018200090E080E036E02B81389FF001399FF00D89
:101830001124EC52F64F228301968C31910599F7D1
:101840008CE180937C0A0E94E503B4CE63EB75E0E3
:10185000C8010E94A90F892B11F41986CFCF6CEB18
:1018600075E0C8010E94A90F892B19F459865C867E
:10187000C5CF64EC75E0C8010E94A90F892B11F453
:101880001986F5CF6DEC75E0C8010E94A90F892B70
:1018900021F4598682E08C87B1CF67ED75E0C801ED
:1018A0000E94A90F892B11F41986F4CF62EE75E01E
:1018B000C8010E94A90F892B19F4598683E0EBCF48
:1018C0006AEE75E0C8010E94A90F892B11F41986F0
:1018D000F5CF63EF75E0C8010E94A90F892B19F4B9
:1018E000598684E0D8CF6DEF75E0C8010E94A90F3A
:1018F000892B11F41986F5CF68E076E0C8010E94C3
:10190000A90F892B19F4598685E0C5CF61E176E0EE
:10191000C8010E94A90F892B11F41986F5CF6BE13C
:1019200076E0C8010E94A90F892B19F4598686E038
:10193000B2CF64E276E0C8010E94A90F892B11F4AE
:101940001986F5CF6EE276E0C8010E94A90F892BB7
:1019500021F4598637E03C8751CF67E376E0C80130
:101960000E94A90F892B19F4198687E094CF61E4AE
:1019700076E0C8010E94A90F892B19F4598688E0E6
:101980008ACF6CE476E0C8010E94A90F892B11F47C
:101990001986F5CF68E576E0C8010E94A90F892B6A
:1019A00019F4598689E077CF62E676E0C8010E9493
:1019B000A90F892B11F41986F5CF6DE676E0C801E1
:1019C0000E94A90F892B19F459868AE064CF69E730
:1019D00076E0C8010E94A90F892B11F41986F5CF72
:1019E00066E876E0C8010E94A90F892B19F4598690
:1019F0008BE051CF60E976E0C8010E94A90F892BE6
:101A000011F41986F5CF6BE976E0C8010E94A90FA1
:101A1000892B19F459868CE03ECF66EA76E0C8013E
:101A20000E94A90F892B11F41986F5CF62EB76E09D
:101A3000C8010E94A90F892B19F459868DE02BCF7C
:101A40006BEB76E0C8010E94A90F892B11F419866F
:101A5000F5CF65EC76E0C8010E94A90F892B19F437
:101A600059868EE018CF6EEC76E0C8010E94A90F6F
:101A7000892B11F41986F5CF68ED76E0C8010E9434
:101A8000A90F892B19F459868FE005CF63EE76E014
:101A9000C8010E94A90F892B11F41986F5CF6FEEAA
:101AA00076E0C8010E94A90F892B19F4598680E1BC
:101AB000F2CE69EF76E0C8010E94A90F892B11F4DC
:101AC0001986F5CF64E077E0C8010E94A90F892B41
:101AD00019F4598681E1DFCE60E177E0C8010E9408
:101AE000A90F892B11F41986F5CF6DE177E0C801B4
:101AF0000E94A90F892B19F4598682E1CCCE67E2A6
:101B000077E0C8010E94A90F892B11F41986F5CF3F
:101B100062E377E0C8010E94A90F892B19F4598666
:101B200083E1B9CE6DE377E0C8010E94A90F892B4C
:101B300011F41986F5CF69E477E0C8010E94A90F76
:101B4000892B19F4598688E1A6CE64E577E0C801AF
:101B50000E94A90F892B11F41986F5CF60E677E072
:101B6000C8010E94A90F892B19F4598689E193CEE7
:101B70006BE677E0C8010E94A90F892B11F4198642
:101B8000F5CF67E777E0C8010E94A90F892B19F408
:101B900059868AE180CE69E877E0C8010E94A90FE2
:101BA000892B11F41986F5CF6CE977E0C8010E9402
:101BB000A90F892B19F459868BE16DCE6EEA77E077
:101BC000C8010E94A90F892B11F41986F5CF61EC89
:101BD00077E0C8010E94A90F892B19F4598684E186
:101BE0005ACE6CEC77E0C8010E94A90F892B11F442
:101BF0001986F5CF68ED77E0C8010E94A90F892BFF
:101C000019F4598685E147CE63EE77E0C8010E945A
:101C1000A90F892B11F41986F5CF6FEE77E0C80173
:101C20000E94A90F892B19F4598686E134CE61E010
:101C300078E0C8010E94A90F892B11F41986F5CF0D
:101C400064E178E0C8010E94A90F892B19F4598634
:101C500087E121CE66E278E0C8010E94A90F892BB6
:101C600011F41986F5CF69E378E0C8010E94A90F45
:101C7000892B19F459868CE10ECE63E478E0C80113
:101C80000E94A90F892B11F41986F5CF8FEF8C874D
:101C90001B861A86B3CD8B8196E0E99FF001112453
:101CA000EC52F64F8283CFCD8BE698E00E94AC04D5
:101CB000CACDE7EAFAE01382128288EE93E0A0E050
:101CC000B0E084839583A683B78388E092E0918314
:101CD000808385EC90E09587848784EC90E09787FB
:101CE000868780EC90E0918B808B81EC90E0938BE9
:101CF000828B82EC90E0958B848B86EC90E0978BC6
:101D0000868B118E128E138E148E08958F929F9251
:101D1000AF92BF92CF92DF92EF92FF92CF93DF9379
:101D2000EC01688179818A819B816115710581054A
:101D3000910521F464E279ED8BE597E02DE133EF35
:101D400041E050E00E942A0F49015A019B01AC0179
:101D5000A7EAB1E40E94490F6B017C01ACEEB4EF3D
:101D6000A50194010E94570FC60ED71EE81EF91E4A
:101D7000F7FE06C081E0C81AD108E10880E8F80A39
:101D8000C882D982EA82FB82C701B6019F77DF91C0
:101D9000CF91FF90EF90DF90CF90BF90AF909F904A
:101DA0008F9008958F929F92AF92BF92CF92DF92C1
:101DB000EF92FF9260910002709101028091020205
:101DC00090910302611571058105910521F464E28A
:101DD00079ED8BE597E02DE133EF41E050E00E9493
:101DE0002A0F49015A019B01AC01A7EAB1E40E9404
:101DF000490F6B017C01ACEEB4EFA50194010E9488
:101E0000570FC60ED71EE81EF91EF7FE06C081E06A
:101E1000C81AD108E10880E8F80AC0920002D092FE
:101E20000102E0920202F0920302C701B6019F771D
:101E3000FF90EF90DF90CF90BF90AF909F908F90EA
:101E400008956093000270930102809302029093C0
:101E500003020895052E97FB1EF400940E94410F83
:101E600057FD07D00E945C0F07FC03D04EF40C9482
:101E7000410F50954095309521953F4F4F4F5F4F03
:101E8000089590958095709561957F4F8F4F9F4FE6
:101E900008950E947E0FA59F900DB49F900DA49F62
:101EA000800D911D11240895B7FF0C94490F0E94D5
:101EB000490F821B930B0895A1E21A2EAA1BBB1B8C
:101EC000FD010DC0AA1FBB1FEE1FFF1FA217B30706
:101ED000E407F50720F0A21BB30BE40BF50B661F1C
:101EE000771F881F991F1A9469F7609570958095E0
:101EF00090959B01AC01BD01CF010895A29FB00157
:101F0000B39FC001A39F700D811D1124911DB29F2D
:101F1000700D811D1124911D0895AA1BBB1B51E159
:101F200007C0AA1FBB1FA617B70710F0A61BB70B49
:101F3000881F991F5A95A9F780959095BC01CD01EE
:101F40000895EE0FFF1F881F8BBF0790F691E02DBD
:101F50001994FB01DC018D91019080190110D9F3D6
:081F6000990B0895F894FFCFDE
:101F680001000000000000007803CE020F03C50343
:101F780040031E033203920896089A08A008A40892
:101F8800AA080000AF08B408B908C008C608CE08F7
:101F9800D408DB08E008E508EC08F208FA080009AC
:101FA80007090E091509230900000000000031097E
:101FB80038093F094D090000000000001F212325B2
:101FC800292D3135332F2B2736373839AA08A4085D
:101FD800A0089A08960892080000DB08E0080009A3
:101FE800FA08F208EC08E508B408AF08B908C00810
:101FF800C608CE08D408222426282A2C2E343230AB
:102008002D3E204B6579626F617264206172726146
:10201800792077617320636F6E6669677572617482
:10202800656420746875733A20002153697A6520C5
:102038006F6620726F77733A20002053697A6520A3
:102048006F6620636F6C756D6E733A200023204BAA
:10205800657920706F736974696F6E3A20526F7773
:10206800200020436F6C756D6E20002042757474DB
:102078006F6E3A20002300204D41494E4B4559428E
:102088004F4152442000204D434455204145524F72
:10209800534F465420413332302053494D554C411B
:1020A800544F5220002320436F6E6669677572692A
:1020B8006E67207468652070757368206275747423
:1020C8006F6E20696E70757473000A0A0D202320E4
:1020D8004B657920627574746F6E20696E646578DB
:1020E800206D656D6F72792061737369676E6564C1
:1020F80021200A0A0D000A0D2052696768742070B1
:10210800616E656C20636F6E66696775726174696C
:102118006F6E200A0D000A0D204C656674207061F0
:102128006E656C20636F6E66696775726174696F3E
:102138006E200A0D006B657920696E646578202D24
:102148003E20002053657420627574746F6E20728F
:102158006F77202D3E200020636F6C756D6E202DEB
:102168003E200020536574206E616D65202D3E2051
:10217800000A0D20427574746F6E20636F6E666975
:102188006775726174696F6E20646F6E6521200ACD
:102198000D20000A0D202320536574206C6564739C
:1021A8002070696E73206173206F75747075747315
:1021B8002E2E2E000A0D204C65642773206E616D4B
:1021C8006573206D656D6F727920616C6C6F6361EA
:1021D800746564200A0D000A0A0D204D61696E209D
:1021E80070616E656C20636F6E6669677572617485
:1021F800696F6E200A0D000A0D2045787472656DAE
:102208002072696768742070616E656C20636F6EF8
:1022180066696775726174696F6E200A0D000A0D30
:102228002045787472656D206C6566742070616EE7
:10223800656C20636F6E66696775726174696F6E2D
:10224800200A0A0D000A205365742070696E200068
:1022580020416E6F64652070696E200020436174B0
:10226800686F64652070696E20000A0A20546573DF
:1022780074696E67206C6564732E2E2E2E2E200DC9
:102288000A000A0D20496E697469616C6973696E88
:102298006720414443200A0D004144432070696E81
:1022A800732061737369676E656D656E7420646F02
:1022B8006E6521200A0D000A0A2053746172746940
:1022C8006E67204D61696E4B6579626F617264005B
:1022D800446F6E6521000A0A2052656164792066A0
:1022E8006F7220707265737320627574746F6E21DB
:1022F800000A202D3E200A0D000A0D2041444320EB
:1023080076616C20002069733A20004C4F432C4FB3
:102318004E0A004C4F432C4F46460A004150312C80
:102328004F4E0A004150312C4F46460A00415F5437
:1023380048522C4F4E0A00415F5448522C4F464693
:102348000A004150322C4F4E0A004150322C4F4661
:10235800460A0045585045442C4F4E0A00455850EF
:1023680045442C4F46460A00415050522C4F4E0AC5
:1023780000415050522C4F46460A0046445F522CAA
:102388004F4E0A0046445F522C4F46460A004C53B3
:102398005F522C4F4E0A004C535F522C4F46460A50
:1023A80000435354525F522C4F4E0A004353545229
:1023B8005F522C4F46460A005750545F522C4F4EDE
:1023C8000A005750545F522C4F46460A00564F5247
:1023D8002E445F522C4F4E0A00564F522E445F52E5
:1023E8002C4F46460A004E44425F522C4F4E0A007C
:1023F8004E44425F522C4F46460A00415250545FA9
:10240800522C4F4E0A00415250545F522C4F4646B0
:102418000A0046445F4C2C4F4E0A0046445F4C2C41
:102428004F46460A004C535F4C2C4F4E0A004C5303
:102438005F4C2C4F46460A00435354525F4C2C4F76
:102448004E0A00435354525F4C2C4F46460A0057DD
:1024580050545F4C2C4F4E0A005750545F4C2C4F31
:1024680046460A00564F522E445F4C2C4F4E0A00E7
:10247800564F522E445F4C2C4F46460A004E44425B
:102488005F4C2C4F4E0A004E44425F4C2C4F464640
:102498000A00415250545F4C2C4F4E0A0041525092
:1024A800545F4C2C4F46460A00462F4F5F4C472C32
:1024B8004F4E0A00462F4F5F4C472C4F46460A00A6
:1024C800462F4F5F4C522C4F4E0A00462F4F5F4C01
:1024D800522C4F46460A004D41535445525F5741CE
:1024E800524D5F4C2C4F4E0A004D41535445525F9C
:1024F8005741524D5F4C2C4F46460A004D415354AC
:1025080045525F434155545F4C2C4F4E0A004D4194
:10251800535445525F434155545F4C2C4F46460A2D
:1025280000462F4F5F52472C4F4E0A00462F4F5FF1
:1025380052472C4F46460A00462F4F5F52522C4FA7
:102548004E0A00462F4F5F52522C4F46460A004D06
:1025580041535445525F5741524D5F522C4F4E0ADA
:10256800004D41535445525F5741524D5F522C4FD5
:1025780046460A004D41535445525F434155545F06
:10258800522C4F4E0A004D41535445525F4341551A
:10259800545F522C4F46460A0046554C4C592C4F16
:1025A8004E0A0046554C4C592C4F46460A00455297
:1025B800524F52202D20627574746F6E206E616DBB
:1025C80065206E6F742061626C65006572726F724F
:1025D800202D2063616C6C20746F20627574746F99
:1025E8006E206C656420646F6573277420776F7242
:1025F8006B004C4F430041503100412F544852006A
:102608004150320045585045440041505052004610
:10261800445F52004C535F5200435354525F520080
:102628005750545F5200564F522E445F52004E444A
:10263800425F5200415250545F520046445F4C0082
:102648004C535F4C00435354525F4C005750545FF7
:102658004C00564F522E445F4C004E44425F4C0093
:10266800415250545F4C00462F4F5F524700462F4F
:102678004F5F5252004D41535445525F5741524D9E
:102688005F52004D41535445525F434155545F5288
:1026980000462F4F5F4C4700462F4F5F4C52004D6E
:1026A80041535445525F5741524D5F4C004D415381
:0C26B8005445525F434155545F4C0000F4
:00000001FF
