:100000000C9437010C9468010C9468010C946801FD
:100010000C9468010C9468010C9468010C946801BC
:100020000C9468010C9468010C9468010C946801AC
:100030000C9468010C9468010C9468010C9468019C
:100040000C9468010C9468010C9468010C9468018C
:100050000C9436050C9468010C9468010C948C0483
:100060000C9468010C9400050C94D6040C9468015F
:100070000C9468010C9468010C9468010C9468015C
:100080000C9468010C9468010C9468010C9468014C
:100090000C9468010C9468010C9468010C9468013C
:1000A0000C9468010C9468010C9468010C9468012C
:1000B0000C9468010C9468010C9468010C9468011C
:1000C0000C9468010C9468010C9468010C9468010C
:1000D0000C9468010C9468010C9468010C946801FC
:1000E0000C9468010C949D010C943D030C94D9026E
:1000F0000C94BF010C949A010C9496010C94A701E6
:100100000C94AD010C9492010C94A3010C94CD01BC
:100110000C94BB010C94D0030C94C8010C94C9013D
:100120000C94C3010C94B1010C9488010C94B5019A
:100130000C9406030C9461050C9483030C948E01BB
:100140000C944B030C941A030C9429030000210017
:10015000240027002A002D00300033000101000098
:10016000040107010A0100002200250028002B00DD
:100170002E003100340002010000050108010B01CE
:10018000000020002300260029002C002F00320050
:100190000001000003010601090105050505070529
:1001A00008080808020202020A0A080804040404F3
:1001B000010101010101010103030303030303031F
:1001C000040707070C0C0C0C0C0C0C0C02020202AE
:1001D00006060606060606060B0B0B0B0B0B0B0B97
:1001E0000102102020080810204010204080020149
:1001F000020108040201010204081020408080402E
:10020000201008040201800402018040201008042C
:1002100002010804020101020408102040800102CA
:1002200004081020408000000A0B02090C0D0E0883
:1002300007030401000000000000000000000000AF
:1002400000000000000000000000000000000000AE
:10025000000012111000000000000000000000006B
:1002600000000000000000000000000061051124F3
:100270001FBECFEFD1E2DEBFCDBF00E00CBF19E063
:10028000A0E0B2E0E6EEF2E200E00BBF02C00790B1
:100290000D92AA36B107D9F72BE0AAE6B9E001C062
:1002A0001D92A637B207E1F711E0C7E3D1E000E005
:1002B00006C021970109802FFE010E946011C633FC
:1002C000D10780E00807A9F70E94BB050C947111C3
:1002D0000C9400008150823108F05AC0E82FF0E001
:1002E0008827EA58FE4F8F4F0C94601196019A01AF
:1002F00088018E019201C8019D01A301A701AD01F2
:10030000B101B501BB01BF01C801C301C901CD01E4
:10031000809180008F778093800008958091800085
:100320008F7DF9CF80918000877FF5CF84B58F775F
:1003300084BD089584B58F7DFBCF8091B0008F7709
:100340008093B00008958091B0008F7DF9CF8091A7
:1003500090008F77809390000895809190008F7D1A
:10036000F9CF80919000877FF5CF8091A0008F77A3
:100370008093A00008958091A0008F7DF9CF809197
:10038000A000877FF5CF809120018F778093200197
:100390000895809120018F7DF9CF80912001877F82
:1003A000F5CFCF93DF93282F30E0F901EA5DFD4FC1
:1003B0008491F901E052FE4FD491F901E656FE4FC7
:1003C000C491CC23A1F081110E946A01EC2FF0E0CE
:1003D000EE0FFF1FE058FE4FA591B491EC91ED2375
:1003E00081E090E009F480E0DF91CF91089580E012
:1003F00090E0FACF1F93CF93DF93282F30E0F901DD
:10040000EA5DFD4F8491F901E052FE4FD491F9016C
:10041000E656FE4FC491CC23A9F0162F81110E94FD
:100420006A01EC2FF0E0EE0FFF1FEA59FE4FA59195
:10043000B4918FB7F894EC91111108C0D095DE23D8
:10044000DC938FBFDF91CF911F910895DE2BF8CF02
:10045000CF93DF9390E0FC01E052FE4F249186564B
:100460009E4FFC0184918823C9F090E0880F991F6A
:10047000FC01E45BFE4FA591B491FC01EA59FE4FEB
:10048000C591D49161110DC09FB7F8948C912095BE
:1004900082238C938881282328839FBFDF91CF916B
:1004A0000895623051F49FB7F8943C91822F809563
:1004B00083238C93E8812E2BEFCF8FB7F894EC91A8
:1004C0002E2B2C938FBFEACF863308F086532091D2
:1004D0007B00982F9870277F922B90937B008770DA
:1004E000806480937C0080917A00806480937A009D
:1004F00080917A0086FDFCCF809178009091790000
:1005000008953FB7F89480916F0A9091700AA09176
:10051000710AB091720A26B5A89B05C02F3F19F049
:100520000196A11DB11D3FBFBA2FA92F982F882773
:10053000BC01CD01620F711D811D911D42E0660F4E
:10054000771F881F991F4A95D1F708958F929F9220
:10055000AF92BF92CF92DF92EF92FF926B017C013C
:100560000E9481024B015C01C114D104E104F10439
:10057000B9F00E948102681979098A099B09683ECD
:1005800073408105910580F321E0C21AD108E1088A
:10059000F10888EE880E83E0981EA11CB11CE4CF00
:1005A000FF90EF90DF90CF90BF90AF909F908F9093
:1005B0000895AF92BF92CF92DF92EF92FF920F9386
:1005C0001F93CF93DF936C017B018B01040F151FE9
:1005D000EB015E01AE18BF08C017D10759F0699151
:1005E000D601ED91FC910190F081E02DC6011995A5
:1005F000892B79F7C501DF91CF911F910F91FF9062
:10060000EF90DF90CF90BF90AF90089580916A09EE
:1006100090916B09A0916C09B0916D090196A11D93
:10062000B11D80936A0990936B09A0936C09B093F4
:100630006D090895FC01538D448D252F30E0842FE2
:1006400090E0821B930B541710F0CF9608950197FA
:100650000895FC01918D828D981761F0A28DAE0FE7
:10066000BF2FB11D5D968C91928D9F5F9F73928F6E
:1006700090E008958FEF9FEF0895FC01918D828D9A
:10068000981731F0828DE80FF11D858D90E0089567
:100690008FEF9FEF0895FC01918D228D892F90E0BF
:1006A000805C9F4F821B91098F739927089583E780
:1006B0009AE00E944B0321E0892B09F420E0822F6D
:1006C0000895FC01A48DA80FB92FB11DA35ABF4FE7
:1006D0002C91848D90E001968F739927848FA68941
:1006E000B7892C93A089B1898C91837080648C9395
:1006F000938D848D981306C00288F389E02D808144
:100700008F7D80830895EF92FF920F931F93CF9375
:10071000DF93EC0181E0888F9B8D8C8D98131AC03C
:10072000E889F989808185FF15C09FB7F894EE8923
:10073000FF896083E889F989808183708064808380
:100740009FBF81E090E0DF91CF911F910F91FF90CB
:10075000EF900895F62E0B8D10E00F5F1F4F0F7373
:100760001127E02E8C8D8E110CC00FB607FCFACF2E
:10077000E889F989808185FFF5CFCE010E94610368
:10078000F1CFEB8DEC0FFD2FF11DE35AFF4FF082FF
:100790009FB7F8940B8FEA89FB8980818062CFCF65
:1007A000CF93DF93EC01888D8823B9F0AA89BB89A8
:1007B000E889F9898C9185FD03C0808186FD0DC093
:1007C0000FB607FCF7CF8C9185FFF2CF808185FFB4
:1007D000EDCFCE010E946103E9CFDF91CF91089563
:1007E00080E090E0892B29F00E94570381110E943C
:1007F000000080E090E0892B49F080E090E0892BB8
:1008000029F00E94000081110E94000080E090E029
:10081000892B49F080E090E0892B29F00E940000AC
:1008200081110E94000080E090E0892B49F080E077
:1008300090E0892B29F00E94000081110C940000A7
:100840000895BF92CF92DF92EF92FF920F931F9382
:10085000CF93DF9310921B0A86E0B82E01E09BEC49
:10086000C92E97E0D92E10911B0A1C3128F5B19E94
:10087000E0011124CD58D64F8A81F9806A818823FE
:10088000C9F0E8808E2D0E94FA016A8160278F2DC1
:100890000E94FA01C6010197F1F76A8160278E2D47
:1008A0000E94FA016A818F2D0E94FA011F5F109346
:1008B0001B0AD9CF6027F7CFDF91CF911F910F91FE
:1008C000FF90EF90DF90CF90BF900895FC010190D2
:1008D0000020E9F73197AF01481B590BBC0183E7B2
:1008E0009AE00C94D902CF93DF93D0E0C0E0009758
:1008F00019F00E946604EC018DE794E00E94660402
:100900008C0F9D1FDF91CF910895009711F00C94EB
:10091000660490E080E008951F920F920FB60F9248
:1009200011242F933F938F939F93AF93BF93809105
:100930006B0A90916C0AA0916D0AB0916E0A309189
:100940006A0A23E0230F2D3758F50196A11DB11D2A
:1009500020936A0A80936B0A90936C0AA0936D0AA5
:10096000B0936E0A80916F0A9091700AA091710AFB
:10097000B091720A0196A11DB11D80936F0A9093E8
:10098000700AA093710AB093720ABF91AF919F91C0
:100990008F913F912F910F900FBE0F901F90189540
:1009A00026E8230F0296A11DB11DD2CF1F920F92F0
:1009B0000FB60F9211240BB60F922F933F934F93C4
:1009C0005F936F937F938F939F93AF93BF93EF93B7
:1009D000FF9383E79AE00E946103FF91EF91BF913B
:1009E000AF919F918F917F916F915F914F913F91C7
:1009F0002F910F900BBE0F900FBE0F901F90189568
:100A00001F920F920FB60F9211240BB60F922F93D5
:100A10008F939F93EF93FF93E091830AF091840A61
:100A20008081E091890AF0918A0A82FD1DC090813F
:100A300080918C0A8F5F8F7320918D0A821741F00D
:100A4000E0918C0AF0E0ED58F54F958F80938C0A79
:100A5000FF91EF919F918F912F910F900BBE0F906F
:100A60000FBE0F901F9018958081F2CF1F920F92AA
:100A70000FB60F9211240BB60F922F933F934F9303
:100A80005F936F937F938F939F93AF93BF93EF93F6
:100A9000FF93E0917109F09172091995FF91EF911F
:100AA000BF91AF919F918F917F916F915F914F9186
:100AB0003F912F910F900BBE0F900FBE0F901F9084
:100AC00018951092760A1092750A88EE93E0A0E0CD
:100AD000B0E08093770A9093780AA093790AB09354
:100AE0007A0A81ED92E09093740A8093730A85EC00
:100AF00090E09093800A80937F0A84EC90E090933A
:100B0000820A8093810A80EC90E09093840A80931B
:100B1000830A81EC90E09093860A8093850A82ECA8
:100B200090E09093880A8093870A86EC90E09093F7
:100B30008A0A8093890A10928C0A10928D0A109268
:100B40008E0A10928F0AEAE3FBE01282138215826A
:100B5000148236968BE0E637F807B9F7E0E1FBE060
:100B600081E0108284831682158237969BE0EA33F7
:100B7000F907B9F70895CF93DF93CDB7DEB7AD97F7
:100B80000FB6F894DEBF0FBECDBF789484B58260F7
:100B900084BD84B5816084BD85B5826085BD85B521
:100BA000816085BD80916E00816080936E0010929F
:100BB000810080918100826080938100809181001A
:100BC00081608093810080918000816080938000AB
:100BD0008091B10084608093B1008091B000816009
:100BE0008093B00080919100826080939100809109
:100BF000910081608093910080919000816080934A
:100C000090008091A10082608093A1008091A1005A
:100C100081608093A1008091A00081608093A000FA
:100C20008091210182608093210180912101816066
:100C30008093210180912001816080932001809127
:100C40007A00846080937A0080917A008260809339
:100C50007A0080917A00816080937A0080917A0096
:100C6000806880937A001092C100E091830AF0912D
:100C7000840A82E08083E0917F0AF091800A1082EA
:100C8000E091810AF091820A90E1908310928B0AA0
:100C9000E091870AF091880A86E08083E091850AD6
:100CA000F091860A808180618083E091850AF091CD
:100CB000860A808188608083E091850AF091860AA7
:100CC000808180688083E091850AF091860A808126
:100CD0008F7D808326E033E0309372092093710981
:100CE00081E080936F009093810010928000809348
:100CF000700980E49FE190936F0980936E0990934F
:100D000087008093860081E1809381001092490AD8
:100D10008091490A8E3080F48FED92E00E94850424
:100D20006AE070E080E090E00E94A6028091490AAB
:100D30008F5F8093490AECCF81EE92E00E94850498
:100D40001092490A8091490A893080F48FED92E02F
:100D50000E9485046AE070E080E090E00E94A602B4
:100D60008091490A8F5F8093490AECCF8FED92E022
:100D70000E9473041092490A8091490A883080F4D5
:100D80008FED92E00E9485046AE070E080E090E0E0
:100D90000E94A6028091490A8F5F8093490AECCF96
:100DA00080EF92E00E9485041092490A8091490ADE
:100DB000883080F48FED92E00E9485046AE070E054
:100DC00080E090E00E94A6028091490A8F5F8093A4
:100DD000490AECCF8FED92E00E9473040E949110BB
:100DE0002AE530E040E050E00E94E910665F7F4F66
:100DF0008F4F9F4F0E94A6021092490A8091490A84
:100E0000843050F48FEA97E00E9473048091490A7D
:100E10008F5F8093490AF2CF6AE070E080E090E053
:100E20000E94A6028FE093E00E9485041092490A76
:100E300010924A0A10921B0A12E001E038E2C32E17
:100E4000D12CE12CF12C80911B0A843140F58630A5
:100E5000F9F41092490A00934A0A8091490A8F5F77
:100E60008093490A8EEC93E00E9485040E949110C1
:100E7000A70196010E94E910665F7F4F8F4F9F4F39
:100E80000E94A60280911B0A8F5F80931B0ADBCF12
:100E90008D3019F71092490A10934A0ADECF10924A
:100EA000490A1091490A173060F4E12FF0E0ED5340
:100EB000FD4F62E080810E9428021F5F1093490A63
:100EC000F0CF1092490A1091490A133088F4E12FAB
:100ED000F0E0E653FD4F008161E0802F0E94280280
:100EE00061E0802F0E94FA011F5F1093490AEBCF47
:100EF00085E393E00E9485048FE593E00E948504DA
:100F00001092490A0BE0F02E8AE0C82ED12C91E70E
:100F1000492E512C612C712C2AE5822E912CA12C6A
:100F2000B12C8091490A843008F064C090E0FC0143
:100F3000E45FFD4FE080F89ED001F99EB00D1124D2
:100F4000A45EB54FEC92880F991FFC01EC5FFD4F3A
:100F50008081918118969C938E93179710924A0ADC
:100F60008D010F5F1F4F30904A0A29E0231590F042
:100F70008E2D0E946402D8012D913C91820F931F07
:100F8000B6010E944C11F801718360833394309252
:100F90004A0AE9CF8EEC93E00E9485040091490A49
:100FA000F09E80011124045E154FD80111962D91F9
:100FB0003C91A6E3B1E00E943D11A30192010E9481
:100FC000E910265F3F4F4F4F5F4FF8013483238373
:100FD0000E949110A50194010E94E910665F7F4F65
:100FE0008F4F9F4F0E94A6028091490A8F5F809386
:100FF000490A97CF8DE793E00E94850410924A0A30
:101000001092490A82EA93E00E94850410921B0A1A
:10101000A6E0EA2EBAE58B2E912CA12CB12C809162
:101020001B0A8A3008F068C0082F10E0843028F5C9
:1010300010924A0AE09EC001E19E900D11249C018D
:10104000265C344F6901F0904A0A31E03F1550F1B7
:101050007090490AE72DF0E0EC5DFD4F8081F601CC
:10106000EF0DF11D808362E00E942802739470925C
:10107000490AF394F0924A0AE6CFF090490AEF2D1C
:10108000F0E0EC5DFD4F8081E09EF001E19EF00D0F
:101090001124E65CF44F808362E00E942802F394FE
:1010A000F092490AE09ED001E19EB00D1124A65CA9
:1010B000B44F000F111FF801E05FFD4F8081918157
:1010C00015969C938E93149712961C928EEC93E037
:1010D0000E9485040E949110A50194010E94E910CC
:1010E000665F7F4F8F4F9F4F0E94A60280911B0A21
:1010F0008F5F80931B0A93CF80ED93E00E9485045D
:1011000084EF93E00E9485041092490AE7E0EE2EF6
:101110000091490A063008F054C010E0E09EF0014A
:10112000E19EF00D1124E05FF44FD801AF5BBD4F9D
:101130008C918083D801AA0FBB1FAB5CBD4F8D91F2
:101140009C919683858310924A0A6F01F0904A0A17
:1011500082E08F15A0F08F2D90E0F601E80FF91FC7
:101160008E5C9D4FDC018C91818365E070E080E0B6
:1011700090E00E94A602F394F0924A0AE7CFE09E24
:10118000C001E19E900D11248C01005F144F61E0BD
:10119000F80180810E94280261E0D8018C910E94B0
:1011A000FA018EEC93E00E94850465E070E080E037
:1011B00090E00E94A6028091490A8F5F8093490ABD
:1011C000A7CF1092490A61E1E62E6BE0F62E10914E
:1011D000490A133070F460E08E2D0E94280265E009
:1011E00070E080E090E00E94A6021F5F1093490A21
:1011F000EECF8CE194E00E94850480E494E00E94AC
:1012000073041092490A10924A0A10921B0A94E041
:10121000C92E23E0B22E32E0A32E9924939446E007
:10122000D42E57E0E52E10911B0A1C3108F068C03F
:10123000163009F055C09092490A10924A0A8091DE
:10124000490A90E0FC01EC56FD4F8080D19ED00110
:101250001124AD58B64F8C9200914A0A202F30E0ED
:10126000F901E357FD4FF0801196FC921197129609
:101270001C921297E89EF001E99EF00D1124E20FF6
:10128000F31FEE0FFF1FE95BFD4F808191811496E4
:101290009C938E93139761E0882D0E94280261E051
:1012A0008F2D0E94280261E0882D0E94FA0160E0E3
:1012B0008F2D0E94FA0164E170E080E090E00E94CE
:1012C000A60260E0882D0E94FA0161E08F2D0E9445
:1012D000FA010F5F00934A0A1F5F10931B0AA3CF06
:1012E0001D3019F4A092490AA8CF143119F4B09214
:1012F000490AA3CF183109F0A2CFC092490A9DCF65
:1013000088E694E00E9485041092490A06E0BCE158
:10131000CB2E8091490A811160C010921B0A109156
:101320001B0A1C3128F5019FC0011124FC01ED5856
:10133000F64F7F01D08061E08D2D0E94FA01D70128
:101340001196FC9060E08F2D0E94FA0164E170E03C
:1013500080E090E00E94A60260E08D2D0E94FA01DC
:1013600061E08F2D0E94FA011F5F10931B0AD7CFF7
:1013700064E170E080E090E00E94A602C0921B0A47
:1013800010911B0A112329F1019FC0011124FC01B6
:10139000ED58F64F7F01D08061E08D2D0E94FA015B
:1013A000D7011196FC9060E08F2D0E94FA0164E154
:1013B00070E080E090E00E94A60260E08D2D0E9427
:1013C000FA0161E08F2D0E94FA01115010931B0A5F
:1013D000D7CF81E08093490A9CCF1092490AA6E0BA
:1013E000DA2E0091490A023008F046C064E670E047
:1013F00080E090E00E94A60210921B0A10911B0A46
:101400001C31A8F4D19EC0011124FC01ED58F64F07
:101410007F0161E080810E94FA0160E0D7011196AE
:101420008C910E94FA011F5F10931B0AE7CF64E6BC
:1014300070E080E090E00E94A60210921B0A1091DA
:101440001B0A1C31A8F4D19EC0011124FC01ED58E7
:10145000F64F7F0160E080810E94FA0161E0D701D0
:1014600011968C910E94FA011F5F10931B0AE7CF1F
:101470000F5F0093490AB5CF80E894E00E9485048D
:101480001092490AF4E08F2E912CA12CB12CC0901F
:10149000490AD12CF12CE12C0E949110A501940154
:1014A0000E94E9106E5F7F4F8F4F9F4FC616D70681
:1014B000E806F90684F48EEC93E00E94850464E16A
:1014C00070E080E090E00E94A6028091490A8F5F60
:1014D0008093490ADCCF89E994E00E9485048EEC70
:1014E00093E00E94730464E170E080E090E00E9469
:1014F000A6028FE994E00E9485041092490AE4E074
:101500008E2E912CA12CB12CC090490AD12CF12CFB
:10151000E12C0E949110A50194010E94E9106E5FD8
:101520007F4F8F4F9F4FC616D706E806F90684F403
:101530008EEC93E00E94850464E170E080E090E02E
:101540000E94A6028091490A8F5F8093490ADCCFEE
:101550001092490A8091490A823050F48DE794E054
:101560000E9466048091490A8F5F8093490AF2CFF6
:101570008AEB94E00E948504FE0131961F017AE017
:10158000872E912CA12CB12C1092490A83E79AE066
:101590000E944B03181619062CF5ECE4FAE08EE1D4
:1015A000DF011D928A95E9F711E083E79AE00E9436
:1015B0004B03892BB9F08BE193E00197F1F783E7B7
:1015C0009AE00E9429039091490AE92FF0E0E45B38
:1015D000F54F80838A3011F410934B0A9F5F9093EC
:1015E000490AE3CF80914B0A882371F110924B0A8C
:1015F00086E0F101282F11922A95E9F72CE43AE0D0
:101600003D832C83F101DE01989601900D928A951D
:10161000E1F764EC74E0C9010E946811892B09F0BC
:1016200049C081E08AA786E0FE01B896DE01929665
:1016300001900D928A95E1F7EFA1EF3F09F0B2C258
:1016400087E697E00E9473041092490A5BE0752ECA
:1016500061EA462E67E0562E0091490A043008F0F0
:101660009BC310924A0A10E0709EC001719E900DBB
:101670001124DC01A45EB54F7D016D01BFEFCB1AD3
:10168000DB0A60904A0AE9E0E61508F4AAC2D7012D
:101690008C910E946402F60120813181820F931F98
:1016A0006AE070E00E944C117183608363946092E1
:1016B0004A0AE7CF6CEC74E08CE49AE00E9468116F
:1016C000892B11F41AA6AFCF65ED74E08CE49AE093
:1016D0000E946811892B21F481E08AA78DA7A3CFEE
:1016E0006DED74E08CE49AE00E946811892B19F486
:1016F0001AA681E0F3CF66EE74E08CE49AE00E94D3
:101700006811892B21F481E08AA782E0E7CF60EF9E
:1017100074E08CE49AE00E946811892B11F41AA6F7
:10172000F4CF6BEF74E08CE49AE00E946811892B8F
:1017300021F481E08AA783E0D1CF63E075E08CE4F7
:101740009AE00E946811892B11F41AA6F4CF6CE07C
:1017500075E08CE49AE00E946811892B21F481E005
:101760008AA784E0BBCF66E175E08CE49AE00E9432
:101770006811892B11F41AA6F4CF61E275E08CE4AC
:101780009AE00E946811892B21F481E08AA785E004
:10179000A5CF6AE275E08CE49AE00E946811892B7B
:1017A00011F41AA6F4CF64E375E08CE49AE00E9489
:1017B0006811892B21F481E08AA786E08FCF6DE341
:1017C00075E08CE49AE00E946811892B11F41AA646
:1017D000F4CF67E475E08CE49AE00E946811892BED
:1017E00021F481E08AA787E079CF60E575E08CE499
:1017F0009AE00E946811892B11F41AA6F4CF6AE5C9
:1018000075E08CE49AE00E946811892B21F481E054
:101810008AA788E063CF65E675E08CE49AE00E94D1
:101820006811892B11F41AA6F4CF61E775E08CE4F6
:101830009AE00E946811892B21F481E08AA789E04F
:101840004DCF6BE775E08CE49AE00E946811892B1C
:1018500011F41AA6F4CF66E875E08CE49AE00E94D1
:101860006811892B21F481E08AA78AE037CF62E9E9
:1018700075E08CE49AE00E946811892B11F41AA695
:10188000F4CF6FE975E08CE49AE00E946811892B2F
:1018900021F481E08AA78BE021CF69EA75E08CE42E
:1018A0009AE00E946811892B11F41AA6F4CF64EB18
:1018B00075E08CE49AE00E946811892B21F481E0A4
:1018C0008AA78CE00BCF6FEB75E08CE49AE00E9466
:1018D0006811892B11F41AA6F4CF6BEC75E08CE437
:1018E0009AE00E946811892B21F481E08AA78DE09B
:1018F000F5CE64ED75E08CE49AE00E946811892BC6
:1019000011F41AA6F4CF6EED75E08CE49AE00E9413
:101910006811892B21F481E08AA78EE0DFCE67EE83
:1019200075E08CE49AE00E946811892B11F41AA6E4
:10193000F4CF61EF75E08CE49AE00E946811892B86
:1019400021F481E08AA78FE0C9CE6CEF75E08CE4CA
:101950009AE00E946811892B11F41AA6F4CF68E06E
:1019600076E08CE49AE00E946811892B21F481E0F2
:101970008AA780E1B3CE62E176E08CE49AE00E942F
:101980006811892B11F41AA6F4CF6DE176E08CE48E
:101990009AE00E946811892B21F481E08AA781E1F5
:1019A0009DCE69E276E08CE49AE00E946811892B72
:1019B00011F41AA6F4CF66E376E08CE49AE00E9474
:1019C0006811892B21F481E08AA782E187CE60E447
:1019D00076E08CE49AE00E946811892B11F41AA633
:1019E000F4CF6BE476E08CE49AE00E946811892BD6
:1019F00021F481E08AA783E171CE66E576E08CE48C
:101A00009AE00E946811892B11F41AA6F4CF62E6BD
:101A100076E08CE49AE00E946811892B21F481E041
:101A20008AA788E15BCE6DE676E08CE49AE00E94BE
:101A30006811892B11F41AA6F4CF69E776E08CE4DB
:101A40009AE00E946811892B21F481E08AA789E13C
:101A500045CE64E876E08CE49AE00E946811892B18
:101A600011F41AA6F4CF60E976E08CE49AE00E94C3
:101A70006811892B21F481E08AA78AE12FCE62EADE
:101A800076E08CE49AE00E946811892B11F41AA682
:101A9000F4CF65EB76E08CE49AE00E946811892B24
:101AA00021F481E08AA78BE119CE67EC76E08CE423
:101AB0009AE00E946811892B11F41AA6F4CF6AEDFE
:101AC00076E08CE49AE00E946811892B21F481E091
:101AD0008AA784E103CE65EE76E08CE49AE00E946A
:101AE0006811892B11F41AA6F4CF61EF76E08CE42B
:101AF0009AE00E946811892B21F481E08AA785E190
:101B0000EDCD6CEF76E08CE49AE00E946811892BB1
:101B100011F41AA6F4CF68E077E08CE49AE00E9412
:101B20006811892B21F481E08AA786E1D7CD6AE18B
:101B300077E08CE49AE00E946811892B11F41AA6D0
:101B4000F4CF6DE277E08CE49AE00E946811892B73
:101B500021F481E08AA787E1C1CD6FE377E08CE4CF
:101B60009AE00E946811892B11F41AA6F4CF62E55D
:101B700077E08CE49AE00E946811892B21F481E0DF
:101B80008AA78CE1ABCD6CE577E08CE49AE00E940B
:101B90006811892B11F41AA6F4CF8FEF8DA71CA61C
:101BA0001BA641CDEC31A1F490E080E036E02CA101
:101BB000389FF001399FF00D1124ED58F64F228324
:101BC00001968C31910599F78CE180931B0A3CCDED
:101BD0008CA136E0E39FF0011124ED58F64F82838B
:101BE00033CD709EC001719E900D11249C01245E26
:101BF000354F7901D9011796CD90DC9064E877E0F4
:101C0000C6010E946811892B41F06FE877E0C60198
:101C10000E946811892B09F069C0709EF001719EC5
:101C2000F00D1124E45EF54F1582818192812AE93D
:101C300037E08A30910508F456C09C012A503109DA
:101C400024313105B8F581E085838DE997E09287ED
:101C50008187709EF001719EF00D1124E45EF54FB6
:101C600096818581981701F1878190850E9485046E
:101C70008EEA97E00E948504E091490A7E9EF00179
:101C80001124E45EF54F818592850E9485048FE9D9
:101C900093E00E948504E091490A7E9EF0011124A0
:101CA000E45EF54F858186838091490A8F5F80933A
:101CB000490AD2CC9C012E5131092431310528F436
:101CC00082E0858352864186C4CFC297449738F418
:101CD00093E09583A5EAB7E0B287A187BACFB4E0D5
:101CE000B58329EA37E032872187B3CFD701119630
:101CF0002D913C91A6E3B1E00E943D1121E730E037
:101D000040E050E00E94E910BA01A901465F5F4F30
:101D10006F4F7F4FF70152834183838194818417F2
:101D2000950711F2C6010E9485048EEA97E00E9491
:101D30008504E091490A7E9EF0011124E45EF54F8E
:101D40002181328150E040E019A28E010F5D1F4FCA
:101D5000CA01B901A50194010E941B11605DD8015F
:101D60006E938D01211531054105510589F71097B5
:101D700019F0CD010E9466048FE993E00E9485046A
:101D8000E091490A7E9EF0011124E45EF54F8181C5
:101D900092819483838388CF1092490A06E033E0CE
:101DA000732E42E0642E552453941091490A1A3040
:101DB00008F061C0C12ED12C0C9DC0010D9D900D6D
:101DC0001124FC01E65CF44F7F018081143090F512
:101DD0000E94D101892B21F5D70112965C920C9DAE
:101DE000F0010D9DF00D1124E65CF44F828193818A
:101DF000981781F08383109FF0011124E65CF44F63
:101E0000848195812281213001F158F1223021F124
:101E1000233061F18091490A8F5F8093490AC5CFD1
:101E2000F70181810E94D101892B61F4D7011296BB
:101E30006C92D5CF0E94D101892B21F4D701129643
:101E40007C92CDCFF7011282CACF0E94850480EB2D
:101E500097E00E948504DECF0E9485048BEB97E01B
:101E6000F8CF0E94850486EC97E0F3CF0E948504AA
:101E700081ED97E0EECF1092490A27E0722E009193
:101E8000490A063008F0A0C01092480A1091480A8A
:101E9000163068F4719EF0011124E05FF44F61E0A8
:101EA00080810E94FA011F5F1093480AEFCF10E073
:101EB000709EC001719E900D11249C01205F344FD3
:101EC000790160E0D9018C910E94FA01F7018181CA
:101ED0000E94D1016C01D70112968C910E94D10110
:101EE0009C0191E0CD2809F090E0232BE9F491309A
:101EF000D8F4709EF001719EF00D1124E05FF44F54
:101F0000858196810E9485048DED97E00E9485046D
:101F10006AEF70E080E090E00E94A6028091490A9A
:101F20008F5F8093490AABCF709EC001719E900D68
:101F30001124FC01E05FF44F7F0181810E94D101F7
:101F40006C01D70112968C910E94D101AC0121E065
:101F5000CD2809F020E091E0452B09F090E09217A0
:101F600070F4709EF001719EF00D1124E05FF44F4B
:101F7000858196810E94850484EE97E0C7CF709E8C
:101F8000C001719E900D11248C01005F144FF80167
:101F900083810E94D101892B09F6D80115968D9174
:101FA0009C910E9485048BEE97E00E948504E0914D
:101FB000490A7E9EF0011124E05FF44F83810E9464
:101FC000D101892BA1F3AACF0E94210410924A0AC1
:101FD00097E0F92E10914A0A133008F053C010927E
:101FE000480A0091480A033060F4E02FF0E0E6531D
:101FF000FD4F61E080810E94FA010F5F0093480A63
:10200000F0CFE12FF0E0E653FD4F60E080810E94C9
:10201000FA011092490A0091490AE0904A0A0730F1
:1020200068F510E0F801ED53FD4F80810E94D10169
:10203000892BF1F4F801FE9CE00DF11D1124EE0F47
:10204000FF1FE756FD4F808191810E947304E0914C
:10205000490AF0E0ED53FD4F80810E94D101892BA8
:1020600019F40E942104F3CF83E79AE00E94D00381
:102070008091490A8F5F8093490ACDCFE394E09223
:102080004A0AA8CF0E94F0037FCA8F929F92AF9214
:10209000BF92CF92DF92EF92FF92CF93DF93EC014A
:1020A000688179818A819B8161157105810591051E
:1020B00021F464E279ED8BE597E02DE133EF41E027
:1020C00050E00E94E91049015A019B01AC01A7EAC6
:1020D000B1E40E9408116B017C01ACEEB4EFA501E4
:1020E00094010E941611C60ED71EE81EF91EF7FEB7
:1020F00006C081E0C81AD108E10880E8F80AC88261
:10210000D982EA82FB82C701B6019F77DF91CF9126
:10211000FF90EF90DF90CF90BF90AF909F908F9007
:1021200008958F929F92AF92BF92CF92DF92EF92DB
:10213000FF926091000270910102809102029091E1
:102140000302611571058105910521F464E279EDC1
:102150008BE597E02DE133EF41E050E00E94E9107C
:1021600049015A019B01AC01A7EAB1E40E940811A0
:102170006B017C01ACEEB4EFA50194010E94161135
:10218000C60ED71EE81EF91EF7FE06C081E0C81A6B
:10219000D108E10880E8F80AC0920002D09201025A
:1021A000E0920202F0920302C701B6019F77FF900E
:1021B000EF90DF90CF90BF90AF909F908F90089559
:1021C00060930002709301028093020290930302D5
:1021D0000895052E97FB1EF400940E94001157FDF0
:1021E00007D00E941B1107FC03D04EF40C94001181
:1021F00050954095309521953F4F4F4F5F4F089533
:1022000090958095709561957F4F8F4F9F4F089562
:102210000E943D11A59F900DB49F900DA49F800D2D
:10222000911D11240895B7FF0C9408110E94081104
:10223000821B930B0895A1E21A2EAA1BBB1BFD0162
:102240000DC0AA1FBB1FEE1FFF1FA217B307E40795
:10225000F50720F0A21BB30BE40BF50B661F771FED
:10226000881F991F1A9469F76095709580959095CD
:102270009B01AC01BD01CF010895A29FB001B39FA6
:10228000C001A39F700D811D1124911DB29F700D7F
:10229000811D1124911D0895AA1BBB1B51E107C08C
:1022A000AA1FBB1FA617B70710F0A61BB70B881FE6
:1022B000991F5A95A9F780959095BC01CD01089575
:1022C000EE0FFF1F881F8BBF0790F691E02D19942A
:1022D000FB01DC018D91019080190110D9F3990B5C
:0622E0000895F894FFCF01
:1022E600010000008407F40701088F0737363839E4
:1022F6000E08190824082F083A0844084F085A08F7
:1023060064086F0804060F020A080D0C0E03050781
:10231600090B1E1C1A7A087E08820886088A089508
:1023260008181617191B1DA008A408A808AE08B29D
:1023360008B8080000BD08C208C708CE08D408DCE3
:1023460008E208E908EE08F308FA08000908090E89
:102356000915091C09230931090000000000003F86
:102366000946094D095B090000000000001F2123F2
:1023760025292D3135332F2B27B808B208AE08A8EA
:1023860008A408A0080000E908EE080E09080900DC
:1023960009FA08F308C208BD08C708CE08D408DC45
:1023A60008E208222426282A2C2E34323000000087
:1023B600008303D9021A03D0034B0329033D0323E9
:1023C60000204D41494E4B4559424F415244200051
:1023D600204D434455204145524F534F46542041CA
:1023E6003332302053494D554C41544F522000232F
:1023F60020436F6E6669677572696E6720746865DB
:10240600207075736820627574746F6E20696E70C3
:1024160075747321000A0A0D205075736820627561
:1024260074746F6E20636F6E666967757261746926
:102436006F6E20646F6E6521200A0A0A0D20000A5D
:102446000D0A0D202320496E697469616C697369F0
:102456006E6720414443206B6E6F6273000A0D2045
:1024660023204144432070696E732061737369674A
:102476006E656D656E7420646F6E6521200A0A0AAA
:102486000D000A0A0D496E697469616C69736520ED
:1024960073776974636820627574746F6E207069EF
:1024A6006E732061737369676E6D656E74212E009D
:1024B6000A0A0D53776974636820627574746F6EC7
:1024C60020636F6E66696720646F6E652121210A3D
:1024D6000A0A0D000A0A0D20496E697469616C6961
:1024E60073696E6720656E636F64657220636F6ED5
:1024F60066696775726174696F6E21000A0A0D203C
:10250600456E636F64657220636F6E66697475727B
:102516006174696F6E20646F6E65210A0A0A0D0088
:102526000A0D2023204B6579626F617264206C6509
:102536006420617272617920696E697469616C697F
:1025460073696E672E2E2E000A0A2054657374690D
:102556006E67206C6564732E2E2E2E2E200D0A00BB
:102566000A0A205374617274696E67204D61696E40
:102576004B6579626F61726400446F6E6521000A73
:102586000A20526561647920666F722070726573E5
:102596007320627574746F6E21000A202D3E200A26
:1025A6000A0A0D004C4F432C4F4E0A004C4F432C49
:1025B6004F46460A004150312C4F4E0A00415031D9
:1025C6002C4F46460A00415F5448522C4F4E0A0093
:1025D600415F5448522C4F46460A004150322C4F18
:1025E6004E0A004150322C4F46460A004558504587
:1025F600442C4F4E0A0045585045442C4F46460A37
:1026060000415050522C4F4E0A00415050522C4F10
:1026160046460A0046445F432C4F4E0A0046445F36
:10262600432C4F46460A004C535F432C4F4E0A003C
:102636004C535F432C4F46460A00435354525F4364
:102646002C4F4E0A00435354525F432C4F46460AC2
:10265600005750545F432C4F4E0A005750545F4367
:102666002C4F46460A00564F522E445F432C4F4E7F
:102676000A00564F522E445F432C4F46460A004EE0
:1026860044425F432C4F4E0A004E44425F432C4F58
:1026960046460A00415250545F432C4F4E0A0041B1
:1026A6005250545F432C4F46460A0046445F502C16
:1026B6004F4E0A0046445F502C4F46460A004C5384
:1026C6005F502C4F4E0A004C535F502C4F46460A23
:1026D60000435354525F502C4F4E0A0043535452FA
:1026E6005F502C4F46460A005750545F502C4F4EB1
:1026F6000A005750545F502C4F46460A00564F5218
:102706002E445F502C4F4E0A00564F522E445F50B7
:102716002C4F46460A004E44425F502C4F4E0A004C
:102726004E44425F502C4F46460A00415250545F79
:10273600502C4F4E0A00415250545F502C4F464683
:102746000A00462F4F5F50472C4F4E0A00462F4F28
:102756005F50472C4F46460A00462F4F5F50522C7B
:102766004F4E0A00462F4F5F50522C4F46460A00E6
:102776004D41535445525F5741524D5F502C4F4E79
:102786000A004D41535445525F5741524D5F502CFC
:102796004F46460A004D41535445525F43415554F6
:1027A6005F502C4F4E0A004D41535445525F4341F2
:1027B60055545F502C4F46460A00462F4F5F4347FD
:1027C6002C4F4E0A00462F4F5F43472C4F46460A72
:1027D60000462F4F5F43522C4F4E0A00462F4F5F45
:1027E60043522C4F46460A004D41535445525F57BB
:1027F60041524D5F432C4F4E0A004D4153544552B2
:102806005F5741524D5F432C4F46460A004D415398
:102816005445525F434155545F432C4F4E0A004D79
:1028260041535445525F434155545F432C4F4646EE
:102836000A0046554C4C592C4F4E0A0046554C4CF6
:10284600592C4F46460A004552524F52202D2062BF
:102856007574746F6E206E616D65206E6F74206185
:10286600626C6500454649535F4D4F445F500045D5
:102876004649535F4D4F445F43004C5300564F52F9
:10288600004E41560041524300504C414E00090053
:10289600094144465F414B430A0D0009564F525FBA
:1028A600414B430A0D00094F46465F414B430A0D13
:1028B6000009484F4C445F414B430A0D002C494EDA
:1028C600430A0D002C4445430A0D002C454E544541
:1028D600520A0D00454649535F52414E47455F50E7
:1028E60000454649535F52414E47455F43004546C2
:1028F60049535F5357315F5000454649535F53571D
:10290600325F5000454649535F5357315F43004598
:102916004649535F5357325F43005353505F462F28
:102926004F5F50004D53545F5741524D5F50004D1D
:1029360053545F434155545F50005353505F462FE5
:102946004F5F43004D53545F5741524D5F43004D17
:1029560053545F434155545F430053504400484429
:102966004700414C5400562F5300454649535F419A
:102976004C545F4300454649535F414C545F5000F9
:102986004C4F430041503100412F544852004150B2
:102996003200455850454400415050520046445F6D
:1029A60043004C535F4300435354525F4300575018
:1029B600545F4300564F522E445F43004E44425FDD
:1029C6004300415250545F430046445F50004C530D
:1029D6005F5000435354525F50005750545F5000AD
:1029E600564F522E445F50004E44425F50004152B3
:1029F60050545F5000462F4F5F434700462F4F5FAE
:102A06004352004D41535445525F5741524D5F4327
:102A1600004D41535445525F434155545F43004670
:102A26002F4F5F504700462F4F5F5052004D415386
:102A36005445525F5741524D5F50004D41535445E6
:0A2A4600525F434155545F500000F9
:00000001FF
