:100000000C9437010C9468010C9468010C946801FD
:100010000C9468010C9468010C9468010C946801BC
:100020000C9468010C9468010C9468010C946801AC
:100030000C9468010C9468010C9468010C9468019C
:100040000C9468010C9468010C9468010C9468018C
:100050000C945B050C9468010C9468010C94B10439
:100060000C9468010C9425050C94FB040C94680115
:100070000C9468010C9468010C9468010C9468015C
:100080000C9468010C9468010C9468010C9468014C
:100090000C9468010C9468010C9468010C9468013C
:1000A0000C9468010C9468010C9468010C9468012C
:1000B0000C9468010C9468010C9468010C9468011C
:1000C0000C9468010C9468010C9468010C9468010C
:1000D0000C9468010C9468010C9468010C946801FC
:1000E0000C9468010C9401030C949A010C949201F5
:1000F0000C94B1020C94BB010C94AD010C94C3019F
:100100000C94DE020C94400C0C9488010C94C901F0
:100110000C94A7010C94A8030C949D010C94F2027A
:100120000C94BF010C94B5010C948E010C94CD017C
:100130000C94A3010C9496010C94C8010C94230315
:100140000C9415030C945B030C94B1010000210086
:10015000240027002A002D00300033000101000098
:10016000040107010A0100002200250028002B00DD
:100170002E003100340002010000050108010B01CE
:10018000000020002300260029002C002F00320050
:100190000001000003010601090105050505070529
:1001A00008080808020202020A0A080804040404F3
:1001B000010101010101010103030303030303031F
:1001C000040707070C0C0C0C0C0C0C0C02020202AE
:1001D00006060606060606060B0B0B0B0B0B0B0B97
:1001E0000102102020080810204010204080020149
:1001F000020108040201010204081020408080402E
:10020000201008040201800402018040201008042C
:1002100002010804020101020408102040800102CA
:1002200004081020408000000A0B02090C0D0E0883
:1002300007030401000000000000000000000000AF
:1002400000000000000000000000000000000000AE
:10025000000012111000000000000000000000006B
:10026000000000000000000000000000400C11240D
:100270001FBECFEFD1E2DEBFCDBF00E00CBF15E067
:10028000A0E0B2E0EEE0FBE100E00BBF02C00790AF
:100290000D92AA39B107D9F726E0AAE9B5E001C065
:1002A0001D92A73FB207E1F711E0C7E3D1E000E0FC
:1002B00006C021970109802FFE010E94740DC633EC
:1002C000D10780E00807A9F70E9486050C94850DE8
:1002D0000C9400008150823108F05AC0E82FF0E001
:1002E0008827EA58FE4F8F4F0C94740D96019A019F
:1002F00088018E019201C8019D01A301A701AD01F2
:10030000B101B501BB01BF01C801C301C901CD01E4
:10031000809180008F778093800008958091800085
:100320008F7DF9CF80918000877FF5CF84B58F775F
:1003300084BD089584B58F7DFBCF8091B0008F7709
:100340008093B00008958091B0008F7DF9CF8091A7
:1003500090008F77809390000895809190008F7D1A
:10036000F9CF80919000877FF5CF8091A0008F77A3
:100370008093A00008958091A0008F7DF9CF809197
:10038000A000877FF5CF809120018F778093200197
:100390000895809120018F7DF9CF80912001877F82
:1003A000F5CFCF93DF93282F30E0F901EA5DFD4FC1
:1003B0008491F901E052FE4FD491F901E656FE4FC7
:1003C000C491CC23A1F081110E946A01EC2FF0E0CE
:1003D000EE0FFF1FE058FE4FA591B491EC91ED2375
:1003E00081E090E009F480E0DF91CF91089580E012
:1003F00090E0FACF1F93CF93DF93282F30E0F901DD
:10040000EA5DFD4F8491F901E052FE4FD491F9016C
:10041000E656FE4FC491CC23A9F0162F81110E94FD
:100420006A01EC2FF0E0EE0FFF1FEA59FE4FA59195
:10043000B4918FB7F894EC91111108C0D095DE23D8
:10044000DC938FBFDF91CF911F910895DE2BF8CF02
:10045000CF93DF9390E0FC01E052FE4F249186564B
:100460009E4FFC0184918823D1F090E0880F991F62
:10047000FC01E45BFE4FA591B491FC01EA59FE4FEB
:10048000C591D491623071F49FB7F8943C91822F5A
:10049000809583238C93E8812E2B28839FBFDF9147
:1004A000CF9108958FB7F894EC912E2B2C938FBF9A
:1004B000F6CF3FB7F8948091560690915706A091D9
:1004C0005806B091590626B5A89B05C02F3F19F0D4
:1004D0000196A11DB11D3FBFBA2FA92F982F8827C4
:1004E000BC01CD01620F711D811D911D42E0660F9F
:1004F000771F881F991F4A95D1F708958F929F9271
:10050000AF92BF92CF92DF92EF92FF926B017C018C
:100510000E9459024B015C01C114D104E104F104B1
:10052000B9F00E945902681979098A099B09683E45
:1005300073408105910580F321E0C21AD108E108DA
:10054000F10888EE880E83E0981EA11CB11CE4CF50
:10055000FF90EF90DF90CF90BF90AF909F908F90E3
:100560000895AF92BF92CF92DF92EF92FF920F93D6
:100570001F93CF93DF936C017B018B01040F151F39
:10058000EB015E01AE18BF08C017D10759F06991A1
:10059000D601ED91FC910190F081E02DC6011995F5
:1005A000892B79F7C501DF91CF911F910F91FF90B2
:1005B000EF90DF90CF90BF90AF90089580919A0513
:1005C00090919B05A0919C05B0919D050196A11D60
:1005D000B11D80939A0590939B05A0939C05B093C1
:1005E0009D050895FC01538D448D252F30E0842F07
:1005F00090E0821B930B541710F0CF96089501974B
:100600000895FC01918D828D981761F0A28DAE0F37
:10061000BF2FB11D5D968C91928D9F5F9F73928FBE
:1006200090E008958FEF9FEF0895FC01918D828DEA
:10063000981731F0828DE80FF11D858D90E00895B7
:100640008FEF9FEF0895FC01918D228D892F90E00F
:10065000805C9F4F821B91098F73992708958AE5CB
:1006600096E00E94230321E0892B09F420E0822FE9
:100670000895FC01A48DA80FB92FB11DA35ABF4F37
:100680002C91848D90E001968F739927848FA68991
:10069000B7892C93A089B1898C91837080648C93E5
:1006A000938D848D981306C00288F389E02D808194
:1006B0008F7D80830895EF92FF920F931F93CF93C6
:1006C000DF93EC0181E0888F9B8D8C8D98131AC08D
:1006D000E889F989808185FF15C09FB7F894EE8974
:1006E000FF896083E889F9898081837080648083D1
:1006F0009FBF81E090E0DF91CF911F910F91FF901C
:10070000EF900895F62E0B8D10E00F5F1F4F0F73C3
:100710001127E02E8C8D8E110CC00FB607FCFACF7E
:10072000E889F989808185FFF5CFCE010E943903E0
:10073000F1CFEB8DEC0FFD2FF11DE35AFF4FF0824F
:100740009FB7F8940B8FEA89FB8980818062CFCFB5
:10075000CF93DF93EC01888D8823B9F0AA89BB89F8
:10076000E889F9898C9185FD03C0808186FD0DC0E3
:100770000FB607FCF7CF8C9185FFF2CF808185FF04
:10078000EDCFCE010E943903E9CFDF91CF910895DB
:1007900080E090E0892B29F00E942F0381110E94B4
:1007A000000080E090E0892B49F080E090E0892B08
:1007B00029F00E94000081110E94000080E090E07A
:1007C000892B49F080E090E0892B29F00E940000FD
:1007D00081110E94000080E090E0892B49F080E0C8
:1007E00090E0892B29F00E94000081110C940000F8
:1007F0000895BF92CF92DF92EF92FF920F931F93D3
:10080000CF93DF9310923C0686E0B82E01E09BE187
:10081000C92E93E0D92E10913C061E3028F5B19ECA
:10082000E0011124C851DA4F8A81F9806A81882356
:10083000C9F0E8808E2D0E94FA016A8160278F2D11
:100840000E94FA01C6010197F1F76A8160278E2D97
:100850000E94FA016A818F2D0E94FA011F5F109396
:100860003C06D9CF6027F7CFDF91CF911F910F9131
:10087000FF90EF90DF90CF90BF900895FC01019022
:100880000020E9F73197AF01481B590BBC018AE5FD
:1008900096E00C94B10280EB93E00C943E048F92AE
:1008A0009F92AF92BF920F931F93CF93DF93CDB7D9
:1008B000DEB7A1970FB6F894DEBF0FBECDBF19A269
:1008C000423008F44AE08E010F5D1F4F842E912CB8
:1008D000B12CA12CA50194010E94430DE62FB90172
:1008E000CA01EA30F4F4E05DD801EE938D01232BC8
:1008F000242B252B79F790E080E0109719F0CD019B
:100900000E943E04A1960FB6F894DEBF0FBECDBF85
:10091000DF91CF911F910F91BF90AF909F908F90DB
:100920000895E95CE1CFCF93DF93D0E0C0E000977A
:1009300019F00E943E04EC010E944B048C0F9D1F95
:10094000DF91CF910895009711F00C943E0490E050
:1009500080E00895682F70E090E080E04AE00C9419
:100960004F041F920F920FB60F9211242F933F93B3
:100970008F939F93AF93BF938091520690915306AC
:10098000A0915406B09155063091510623E0230FF3
:100990002D3758F50196A11DB11D20935106809366
:1009A000520690935306A0935406B0935506809137
:1009B000560690915706A0915806B0915906019697
:1009C000A11DB11D8093560690935706A09358061B
:1009D000B0935906BF91AF919F918F913F912F9105
:1009E0000F900FBE0F901F90189526E8230F0296C8
:1009F000A11DB11DD2CF1F920F920FB60F921124DD
:100A00000BB60F922F933F934F935F936F937F9308
:100A10008F939F93AF93BF93EF93FF938AE596E0F5
:100A20000E943903FF91EF91BF91AF919F918F91F8
:100A30007F916F915F914F913F912F910F900BBEDE
:100A40000F900FBE0F901F9018951F920F920FB628
:100A50000F9211240BB60F922F938F939F93EF93C6
:100A6000FF93E0916A06F0916B068081E091700639
:100A7000F091710682FD1DC09081809173068F5F99
:100A80008F7320917406821741F0E0917306F0E0B5
:100A9000E65AF94F958F80937306FF91EF919F91DE
:100AA0008F912F910F900BBE0F900FBE0F901F9044
:100AB00018958081F2CF1F920F920FB60F921124DA
:100AC0000BB60F922F933F934F935F936F937F9348
:100AD0008F939F93AF93BF93EF93FF93E091E605BE
:100AE000F091E7051995FF91EF91BF91AF919F911B
:100AF0008F917F916F915F914F913F912F910F90C7
:100B00000BBE0F900FBE0F901F901895CF93DF93E1
:100B1000CDB7DEB762970FB6F894DEBF0FBECDBF7C
:100B2000789484B5826084BD84B5816084BD85B5C8
:100B3000826085BD85B5816085BD80916E008160D4
:100B400080936E001092810080918100826080937A
:100B5000810080918100816080938100809180007C
:100B60008160809380008091B10084608093B100A7
:100B70008091B00081608093B0008091910082608C
:100B80008093910080919100816080939100809189
:100B900090008160809390008091A100826080939A
:100BA000A1008091A10081608093A1008091A000AC
:100BB00081608093A0008091210182608093210157
:100BC00080912101816080932101809120018160C9
:100BD0008093200180917A00846080937A008091D4
:100BE0007A00826080937A0080917A00816080939D
:100BF0007A0080917A00806880937A001092C10018
:100C0000E0916A06F0916B0682E08083E0916606CF
:100C1000F09167061082E0916806F091690690E114
:100C2000908310927206E0916E06F0916F0686E056
:100C30008083E0916C06F0916D06808180618083F5
:100C4000E0916C06F0916D06808188608083E09170
:100C50006C06F0916D06808180688083E0916C065F
:100C6000F0916D0680818F7D80832EED32E0309390
:100C7000E7052093E60581E080936F009093810063
:100C80001092800080E49FE190938700809386001B
:100C900081E1809381008CE492E00E94930486E7D6
:100CA00092E00E94A3044AE063E070E080E090E0FC
:100CB0000E944F0486E892E00E94A3044AE066E0A6
:100CC00070E080E090E00E944F040E944B0410927C
:100CD0003E0616E080913E06863008F040C00E9435
:100CE0004B0410923F0680913F06833090F589E9CE
:100CF00092E00E94A30480913F060E94AA048EEA1B
:100D000092E00E94A30480913E060E94AA0487EB11
:100D100092E00E94A30480913F06E0913E06189F56
:100D2000C0011124E80FF92FF11DEE0FFF1FE15E46
:100D3000FD4F808191810E9493046AE070E080E021
:100D400090E00E947E0280913F068F5F80933F0675
:100D5000CACF80913E068F5F80933E06BBCF0E9434
:100D60004B0410923E0680913E068E3080F481EC5A
:100D700092E00E94A3046AE070E080E090E00E94AC
:100D80007E0280913E068F5F80933E06ECCF83EC1F
:100D900092E00E94A30410923E0680913E068930A4
:100DA00080F481EC92E00E94A3046AE070E080E0AD
:100DB00090E00E947E0280913E068F5F80933E0607
:100DC000ECCF81EC92E00E94930410923E06809159
:100DD0003E06883080F481EC92E00E94A3046AE031
:100DE00070E080E090E00E947E0280913E068F5F7E
:100DF00080933E06ECCF82ED92E00E94A304109215
:100E00003E0680913E06883080F481EC92E00E949C
:100E1000A3046AE070E080E090E00E947E0280918E
:100E20003E068F5F80933E06ECCF81EC92E00E94FD
:100E300093040E94B90C26E930E040E050E00E94A3
:100E4000110D6E5C7F4F8F4F9F4F0E947E0210925C
:100E50003E0680913E06843050F482EB93E00E947F
:100E6000930480913E068F5F80933E06F2CF6AE046
:100E700070E080E090E00E947E0281EF92E00E94AC
:100E8000A30410923E0680913E068A3080F484E7E7
:100E900093E00E94A3046AE070E080E090E00E948A
:100EA0007E0280913E068F5F80933E06ECCF84E702
:100EB00093E00E9493040E94B90C26E930E040E0E0
:100EC00050E00E94110D6E5C7F4F8F4F9F4F0E942C
:100ED0007E0210923C06E091E805F091E90582E17E
:100EE000DF011D928A95E9F710923E0616E0809187
:100EF0003E06833008F090C010923F0680913F0676
:100F0000863008F083C086E193E00E94A3046091DC
:100F10003C0670E06F5F7F4F072E000C880B990B2B
:100F20004AE00E944F04E0913C06B4E0EB9FF001E0
:100F30001124E256FA4FA0913E06B0E0AD5BBD4FE2
:100F40008C9180838AE293E00E94A304E0913C06A6
:100F500024E0E29FF0011124E256FA4F80810E94C2
:100F6000AA04E0913C0634E0E39FF0011124E2562C
:100F7000FA4FA0913F06B0E0AA5BBD4F8C918183F0
:100F800087E393E00E94A304E0913C0684E0E89F9D
:100F9000F0011124E256FA4F81810E94AA04A09127
:100FA0003C06E4E0AE9FD0011124A256BA4F8091D6
:100FB0003E06E0913F06189FC0011124E80FF92F6B
:100FC000F11DEE0FFF1FE15EFD4F808191811396B1
:100FD0009C938E93129787E493E00E94A304E09180
:100FE0003C0624E0E29FF0011124E256FA4F828190
:100FF00093810E94930480913C068F5F80933C060E
:1010000080913F068F5F80933F0678CF80913E06A8
:101010008F5F80933E066BCF10923C0610913C068A
:10102000123108F534E0139FC0011124DC01A256EF
:10103000BA4F7D0162E08C910E94280261E0F701C5
:1010400081810E942802E0913D0624E0E29FF001A8
:101050001124E256FA4F61E081810E94FA011F5F7C
:1010600010933C06DBCFE0913F06F09140068EE006
:10107000DF011D928A95E9F785E593E00E949304CC
:1010800010923E0610923F0610923C0695E0F92E13
:1010900002E0EE24E39416E0E0913C06EE3008F026
:1010A00090C0E63009F07DC0E0923E0610923F0607
:1010B00020913E0630E01E9FF0011124E851FA4FC6
:1010C000D901A45EBD4F8C918083A0913F068A2FE9
:1010D00090E0DC01AA5EBD4F4C9141831282129FC9
:1010E000D001139FB00D1124A80FB91FAA0FBB1F69
:1010F000A15EBD4F8D919C919483838386E793E09D
:101100000E94A304E0913C061E9FF0011124E851C7
:10111000FA4F838194810E94A30481E893E00E94A6
:10112000A304E0913C061E9FF0011124E851FA4F00
:1011300080810E94AA048DE893E00E94A304E091BC
:101140003C061E9FF0011124E851FA4F81810E9454
:10115000AA040E944B04D0903C061D9DC00111249E
:10116000FC01E851FA4F5F01908061E0892D0E94F7
:101170002802D5011196CC9061E08C2D0E942802A6
:1011800060E0892D0E94FA0161E08C2D0E94FA0135
:1011900080913F068F5F80933F06D394D0923C06A8
:1011A0007BCFEB3019F400933E0680CFEC3019F47E
:1011B00000933F067DCFED3009F07ACFF0923F06E5
:1011C00077CF8BE993E00E94A30410923E06F6E0ED
:1011D000DF2EAEE0CA2E00913E06023008F060C05D
:1011E00010923C0610913C061E3028F5D19EC0019D
:1011F0001124FC01E851FA4F7F01B08061E08B2D92
:101200000E94FA01D7011196FC9060E08F2D0E9498
:10121000FA016EE170E080E090E00E947E0260E002
:101220008B2D0E94FA0161E08F2D0E94FA011F5F51
:1012300010933C06D7CF6EE170E080E090E00E9412
:101240007E02C0923C0610913C06112329F1D19EEA
:10125000C0011124FC01E851FA4F7F01B08061E028
:101260008B2D0E94FA01D7011196FC9060E08F2D22
:101270000E94FA016EE170E080E090E00E947E0240
:1012800060E08B2D0E94FA0161E08F2D0E94FA012F
:10129000115010933C06D7CF0F5F00933E069BCFB3
:1012A00010923E06E6E0DE2E00913E06023008F087
:1012B00046C06AEF70E080E090E00E947E021092EB
:1012C0003C0610913C061E30A8F4D19EC0011124AA
:1012D000FC01E851FA4F7F0161E080810E94FA0130
:1012E00060E0D70111968C910E94FA011F5F109364
:1012F0003C06E7CF6AEF70E080E090E00E947E025B
:1013000010923C0610913C061E30A8F4D19EC001FC
:101310001124FC01E851FA4F7F0160E080810E94B6
:10132000FA0161E0D70111968C910E94FA011F5FCA
:1013300010933C06E7CF0F5F00933E06B5CF83EBDB
:1013400093E00E94A30410923E0674E0872E912C35
:10135000A12CB12CC0903E06D12CF12CE12C0E9486
:10136000B90CA50194010E94110D6E5F7F4F8F4F44
:101370009F4FC616D706E806F90684F484E793E083
:101380000E94A30464E170E080E090E00E947E028D
:1013900080913E068F5F80933E06DCCF8CEC93E01D
:1013A0000E94A30484E793E00E94930464E170E048
:1013B00080E090E00E947E0282ED93E00E94A30410
:1013C00010923E0664E0862E912CA12CB12CC09088
:1013D0003E06D12CF12CE12C0E94B90CA501940100
:1013E0000E94110D6E5F7F4F8F4F9F4FC616D7061D
:1013F000E806F90684F484E793E00E94A30464E11C
:1014000070E080E090E00E947E0280913E068F5F57
:1014100080933E06DCCF10923E0680913E068230DD
:1014200040F40E944B0480913E068F5F80933E06FD
:10143000F4CF8DEE93E00E94A30491E4E92E96E0B0
:10144000F92E20E1522E3BE1A32E33E0B32E11E022
:1014500006E06E01BDE0CB0ED11C4EE0742E44249C
:101460004A9456E0652E10923E068AE596E00E9468
:101470002303181619060CF5F701252D11922A954C
:10148000E9F78AE596E00E942303892BB1F0C501B4
:101490000197F1F78AE596E00E94010390913E06DC
:1014A000E92FF0E0EF5BF94F80838A3011F410935D
:1014B00040069F5F90933E06E4CF809140068823CC
:1014C00009F47CC110924006D601E02F1D92EA95E6
:1014D000E9F7F98AE88AF601DE011796802F019074
:1014E0000D928A95E1F765EF73E081E496E00E9442
:1014F0007C0D892BD1F4198786E0FE013796DE0139
:10150000119601900D928A95E1F79E80FFEF9F1250
:1015100041C188E195E00E9493048B81099DF0010F
:101520001124E851FA4F828349C16DEF73E081E4E1
:1015300096E00E947C0D892B11F41986DDCF66E0C0
:1015400074E081E496E00E947C0D892B19F41987E0
:101550001C87D2CF60E174E081E496E00E947C0DAC
:10156000892B11F41986F4CF6BE174E081E496E0E5
:101570000E947C0D892B21F4198782E08C87BCCFD7
:1015800065E274E081E496E00E947C0D892B11F401
:101590001986F3CF60E374E081E496E00E947C0D4D
:1015A000892B19F4198783E0E9CF69E374E081E4BA
:1015B00096E00E947C0D892B11F41986F4CF63E428
:1015C00074E081E496E00E947C0D892B19F4198760
:1015D00084E0D4CF6BE474E081E496E00E947C0D5B
:1015E000892B11F41986F4CF64E574E081E496E068
:1015F0000E947C0D892B19F4198785E0BFCF6DE51A
:1016000074E081E496E00E947C0D892B11F4198628
:10161000F4CF67E674E081E496E00E947C0D892BAC
:1016200019F419876C8668CF6FE674E081E496E060
:101630000E947C0D892B11F41986F4CF68E774E0C1
:1016400081E496E00E947C0D892B19F4198787E0CC
:1016500095CF61E874E081E496E00E947C0D892BCF
:1016600011F41986F4CF6BE874E081E496E00E94EF
:101670007C0D892B19F4198788E080CF64E974E028
:1016800081E496E00E947C0D892B11F41986F4CF39
:101690006EE974E081E496E00E947C0D892B19F4D8
:1016A000198789E06BCF68EA74E081E496E00E94D4
:1016B0007C0D892B11F41986F4CF63EB74E081E47F
:1016C00096E00E947C0D892B19F419878AE056CF89
:1016D0006DEB74E081E496E00E947C0D892B11F49F
:1016E0001986F4CF68EC74E081E496E00E947C0DEA
:1016F000892B19F419878BE041CF62ED74E081E406
:1017000096E00E947C0D892B11F41986F4CF6DEDC3
:1017100074E081E496E00E947C0D892B19F419870E
:101720008CE02CCF65EE74E081E496E00E947C0DA5
:10173000892B11F41986F4CF6EEE74E081E496E003
:101740000E947C0D892B19F419878DE017CF68EF63
:1017500074E081E496E00E947C0D892B11F41986D7
:10176000F4CF63E075E081E496E00E947C0D892B64
:1017700019F419877C86C0CE6DE075E081E496E0AF
:101780000E947C0D892B11F41986F4CF4C861B86A0
:101790001A86B2CE2EE09212C0CE90E080E02B816D
:1017A000089FF001099FF00D1124E851FA4F2283A0
:1017B00001968E30910599F770923C060E94F903CC
:1017C00010923F0690903F0635E0391508F455C059
:1017D00010923D0680903D0685E0881560F0E82D6A
:1017E000F0E0EA5BFD4F61E080810E94FA018394A2
:1017F00080923D06EFCFE92DF0E0EA5BFD4F60E01F
:1018000080810E94FA0110923E0680913E0683304C
:1018100070F5882E912CF401ED5BFD4F3080832D07
:101820000E94D101892BE9F40E94F903832D0E94C3
:10183000D101892BC9F3E0913F06089DC001099DA4
:10184000900D1124E80FF92FF11DEE0FFF1FE15E3F
:10185000FD4F808191810E9493048AE596E00E9469
:10186000A80380913E068F5F80933E06CECF809185
:101870003F068F5F80933F06A5CF0E94C803F3CD3C
:10188000EAE5F6E01382128288EE93E0A0E0B0E091
:1018900084839583A683B78388E092E091838083D5
:1018A00085EC90E09587848784EC90E09787868725
:1018B00080EC90E0918B808B81EC90E0938B828B1D
:1018C00082EC90E0958B848B86EC90E0978B868BF6
:1018D000118E128E138E148E08958F929F92AF9256
:1018E000BF92CF92DF92EF92FF92CF93DF93EC0102
:1018F000688179818A819B816115710581059105D6
:1019000021F464E279ED8BE597E02DE133EF41E0DE
:1019100050E00E94110D49015A019B01AC01A7EA58
:10192000B1E40E94300D6B017C01ACEEB4EFA50177
:1019300094010E943E0DC60ED71EE81EF91EF7FE4A
:1019400006C081E0C81AD108E10880E8F80AC88218
:10195000D982EA82FB82C701B6019F77DF91CF91DE
:10196000FF90EF90DF90CF90BF90AF909F908F90BF
:1019700008958F929F92AF92BF92CF92DF92EF9293
:10198000FF92609100027091010280910202909199
:101990000302611571058105910521F464E279ED79
:1019A0008BE597E02DE133EF41E050E00E94110D0F
:1019B00049015A019B01AC01A7EAB1E40E94300D34
:1019C0006B017C01ACEEB4EFA50194010E943E0DC9
:1019D000C60ED71EE81EF91EF7FE06C081E0C81A23
:1019E000D108E10880E8F80AC0920002D092010212
:1019F000E0920202F0920302C701B6019F77FF90C6
:101A0000EF90DF90CF90BF90AF909F908F90089510
:101A1000609300027093010280930202909303028C
:101A20000895052E97FB1EF400940E94280D57FD83
:101A300007D00E94430D07FC03D04EF40C94280DF0
:101A400050954095309521953F4F4F4F5F4F0895EA
:101A500090958095709561957F4F8F4F9F4F08951A
:101A60000E94650DA59F900DB49F900DA49F800DC1
:101A7000911D11240895B7FF0C94300D0E94300D74
:101A8000821B930B0895A1E21A2EAA1BBB1BFD011A
:101A90000DC0AA1FBB1FEE1FFF1FA217B307E4074D
:101AA000F50720F0A21BB30BE40BF50B661F771FA5
:101AB000881F991F1A9469F7609570958095909585
:101AC0009B01AC01BD01CF010895A29FB001B39F5E
:101AD000C001A39F700D811D1124911DB29F700D37
:101AE000811D1124911D0895EE0FFF1F881F8BBFCC
:101AF0000790F691E02D1994FB01DC018D91019086
:0E1B000080190110D9F3990B0895F894FFCFC6
:101B0E0001000000000000005B03B102F202A80316
:101B1E0023030103150329272523211F17191B351D
:101B2E000539053F0545054A054E05530557055C24
:101B3E0005610567056D05710577058105850589C3
:101B4E000593051A18161C1E202224262D3E204B06
:101B5E006579626F6172642061727261792077615A
:101B6E007320636F6E666967757261746564207445
:101B7E006875733A20002153697A65206F6620726A
:101B8E006F77733A20002053697A65206F66206361
:101B9E006F6C756D6E733A200023204B6579207043
:101BAE006F736974696F6E3A20526F77200020430D
:101BBE006F6C756D6E200020427574746F6E3A20D6
:101BCE00002300204D41494E4B4559424F4152444E
:101BDE002000204D434455204145524F534F46540B
:101BEE0020413332302053494D554C41544F5220F1
:101BFE00002320436F6E6669677572696E67207485
:101C0E006865207075736820627574746F6E2069D4
:101C1E006E70757473000A0A0D2023206B6579208F
:101C2E00696E646578202D3E200020536574207205
:101C3E006F77202D3E20002053657420636F6C75E6
:101C4E006D6E202D3E200020536574206E616D65F3
:101C5E00202D3E20000A0D202320536574206C6534
:101C6E0064732070696E73206173206F7574707564
:101C7E0074732E2E2E000A205365742070696E2008
:101C8E000020416E6F64652070696E2000204361F4
:101C9E0074686F64652070696E20000A0A205465AE
:101CAE007374696E67206C6564732E2E2E2E2E2033
:101CBE000D0A000A0A205374617274696E67204D12
:101CCE0061696E4B6579626F61726400446F6E6517
:101CDE0021000A0A20526561647920666F722070B5
:101CEE007265737320627574746F6E21000A202DF5
:101CFE003E200A0D00454E472C4F4E0A00454E47DA
:101D0E002C4F46460A00424C4545442C4F4E0A0085
:101D1E00424C4545442C4F46460A005052455353BB
:101D2E002C4F4E0A0050524553532C4F46460A0034
:101D3E00454C45432C4F4E0A00454C45432C4F46CF
:101D4E00460A004859442C4F4E0A004859442C4F1D
:101D5E0046460A004655454C2C4F4E0A0046554500
:101D6E004C2C4F46460A004150552C4F4E0A00410E
:101D7E0050552C4F46460A00434F4E442C4F4E0AA8
:101D8E0000434F4E442C4F46460A00444F4F522CB0
:101D9E004F4E0A00444F4F522C4F46460A005748AA
:101DAE00454C4C2C4F4E0A005748454C4C2C4F4638
:101DBE00460A00462F43544C2C4F4E0A00462F43E2
:101DCE00544C2C4F46460A00434C525F4C2C4F4EFF
:101DDE000A00434C525F4C2C4F46460A005359534F
:101DEE002C4F4E0A005359532C4F46460A00434C73
:101DFE00525F522C4F4E0A00434C525F522C4F46AC
:101E0E00460A0046554C4C592C4F4E0A0046554C2E
:101E1E004C592C4F46460A004552524F52202D2007
:101E2E00627574746F6E206E616D65206E6F7420B6
:101E3E0061626C6500454E4700424C45454400507A
:101E4E005245535300454C454300485944004655AE
:101E5E00454C0041505500434F4E4400444F4F52A5
:101E6E00005748454C4C00462F43544C00414C4CB7
:101E7E0000434C525F4C00544F20434F4E4649474F
:101E8E00005359530052434C00454D45522F434188
:0A1E9E004E4300434C525F52000017
:00000001FF
