:100000000C9437010C9468010C9468010C946801FD
:100010000C9468010C9468010C9468010C946801BC
:100020000C9468010C9468010C9468010C946801AC
:100030000C9468010C9468010C9468010C9468019C
:100040000C9468010C9468010C9468010C9468018C
:100050000C9416050C9468010C9468010C946C04C3
:100060000C9468010C94E0040C94B6040C946801A0
:100070000C9468010C9468010C9468010C9468015C
:100080000C9468010C9468010C9468010C9468014C
:100090000C9468010C9468010C9468010C9468013C
:1000A0000C9468010C9468010C9468010C9468012C
:1000B0000C9468010C9468010C9468010C9468011C
:1000C0000C9468010C9468010C9468010C9468010C
:1000D0000C9468010C9468010C9468010C946801FC
:1000E0000C9468010C94A3010C94B1020C9492013D
:1000F0000C94C8010C9423030C9488010C94F20214
:100100000C94830A0C94BB010C94DE020C94BF0186
:100110000C94A7010C948E010C949D010C94010386
:100120000C94C3010C9415030C94B1010C94B5010B
:100130000C94AD010C9496010C945B030C94C901D2
:100140000C94A8030C949A010C94CD01000021009A
:10015000240027002A002D00300033000101000098
:10016000040107010A0100002200250028002B00DD
:100170002E003100340002010000050108010B01CE
:10018000000020002300260029002C002F00320050
:100190000001000003010601090105050505070529
:1001A00008080808020202020A0A080804040404F3
:1001B000010101010101010103030303030303031F
:1001C000040707070C0C0C0C0C0C0C0C02020202AE
:1001D00006060606060606060B0B0B0B0B0B0B0B97
:1001E0000102102020080810204010204080020149
:1001F000020108040201010204081020408080402E
:10020000201008040201800402018040201008042C
:1002100002010804020101020408102040800102CA
:1002200004081020408000000A0B02090C0D0E0883
:1002300007030401000000000000000000000000AF
:1002400000000000000000000000000000000000AE
:10025000000012111000000000000000000000006B
:10026000000000000000000000000000830A1124CC
:100270001FBECFEFD1E2DEBFCDBF00E00CBF15E067
:10028000A0E0B2E0E2E8F7E100E00BBF02C00790B7
:100290000D92AE31B107D9F726E0AEE1B5E001C06D
:1002A0001D92AA3CB207E1F711E0C7E3D1E000E0FC
:1002B00006C021970109802FFE010E94B70BC633AB
:1002C000D10780E00807A9F70E9441050C94BF0BF5
:1002D0000C9400008150823108F05AC0E82FF0E001
:1002E0008827EA58FE4F8F4F0C94B70B96019A015E
:1002F00088018E019201C8019D01A301A701AD01F2
:10030000B101B501BB01BF01C801C301C901CD01E4
:10031000809180008F778093800008958091800085
:100320008F7DF9CF80918000877FF5CF84B58F775F
:1003300084BD089584B58F7DFBCF8091B0008F7709
:100340008093B00008958091B0008F7DF9CF8091A7
:1003500090008F77809390000895809190008F7D1A
:10036000F9CF80919000877FF5CF8091A0008F77A3
:100370008093A00008958091A0008F7DF9CF809197
:10038000A000877FF5CF809120018F778093200197
:100390000895809120018F7DF9CF80912001877F82
:1003A000F5CFCF93DF93282F30E0F901EA5DFD4FC1
:1003B0008491F901E052FE4FD491F901E656FE4FC7
:1003C000C491CC23A1F081110E946A01EC2FF0E0CE
:1003D000EE0FFF1FE058FE4FA591B491EC91ED2375
:1003E00081E090E009F480E0DF91CF91089580E012
:1003F00090E0FACF1F93CF93DF93282F30E0F901DD
:10040000EA5DFD4F8491F901E052FE4FD491F9016C
:10041000E656FE4FC491CC23A9F0162F81110E94FD
:100420006A01EC2FF0E0EE0FFF1FEA59FE4FA59195
:10043000B4918FB7F894EC91111108C0D095DE23D8
:10044000DC938FBFDF91CF911F910895DE2BF8CF02
:10045000CF93DF9390E0FC01E052FE4F249186564B
:100460009E4FFC0184918823D1F090E0880F991F62
:10047000FC01E45BFE4FA591B491FC01EA59FE4FEB
:10048000C591D491623071F49FB7F8943C91822F5A
:10049000809583238C93E8812E2B28839FBFDF9147
:1004A000CF9108958FB7F894EC912E2B2C938FBF9A
:1004B000F6CF3FB7F8948091290690912A06A09133
:1004C0002B06B0912C0626B5A89B05C02F3F19F02E
:1004D0000196A11DB11D3FBFBA2FA92F982F8827C4
:1004E000BC01CD01620F711D811D911D42E0660F9F
:1004F000771F881F991F4A95D1F708958F929F9271
:10050000AF92BF92CF92DF92EF92FF926B017C018C
:100510000E9459024B015C01C114D104E104F104B1
:10052000B9F00E945902681979098A099B09683E45
:1005300073408105910580F321E0C21AD108E108DA
:10054000F10888EE880E83E0981EA11CB11CE4CF50
:10055000FF90EF90DF90CF90BF90AF909F908F90E3
:100560000895AF92BF92CF92DF92EF92FF920F93D6
:100570001F93CF93DF936C017B018B01040F151F39
:10058000EB015E01AE18BF08C017D10759F06991A1
:10059000D601ED91FC910190F081E02DC6011995F5
:1005A000892B79F7C501DF91CF911F910F91FF90B2
:1005B000EF90DF90CF90BF90AF90089580911F058E
:1005C00090912005A0912105B09122050196A11DD1
:1005D000B11D80931F0590932005A0932105B09332
:1005E00022050895FC01538D448D252F30E0842F82
:1005F00090E0821B930B541710F0CF96089501974B
:100600000895FC01918D828D981761F0A28DAE0F37
:10061000BF2FB11D5D968C91928D9F5F9F73928FBE
:1006200090E008958FEF9FEF0895FC01918D828DEA
:10063000981731F0828DE80FF11D858D90E00895B7
:100640008FEF9FEF0895FC01918D228D892F90E00F
:10065000805C9F4F821B91098F73992708958DE2CB
:1006600096E00E94230321E0892B09F420E0822FE9
:100670000895FC01A48DA80FB92FB11DA35ABF4F37
:100680002C91848D90E001968F739927848FA68991
:10069000B7892C93A089B1898C91837080648C93E5
:1006A000938D848D981306C00288F389E02D808194
:1006B0008F7D80830895EF92FF920F931F93CF93C6
:1006C000DF93EC0181E0888F9B8D8C8D98131AC08D
:1006D000E889F989808185FF15C09FB7F894EE8974
:1006E000FF896083E889F9898081837080648083D1
:1006F0009FBF81E090E0DF91CF911F910F91FF901C
:10070000EF900895F62E0B8D10E00F5F1F4F0F73C3
:100710001127E02E8C8D8E110CC00FB607FCFACF7E
:10072000E889F989808185FFF5CFCE010E943903E0
:10073000F1CFEB8DEC0FFD2FF11DE35AFF4FF0824F
:100740009FB7F8940B8FEA89FB8980818062CFCFB5
:10075000CF93DF93EC01888D8823B9F0AA89BB89F8
:10076000E889F9898C9185FD03C0808186FD0DC0E3
:100770000FB607FCF7CF8C9185FFF2CF808185FF04
:10078000EDCFCE010E943903E9CFDF91CF910895DB
:1007900080E090E0892B29F00E942F0381110E94B4
:1007A000000080E090E0892B49F080E090E0892B08
:1007B00029F00E94000081110E94000080E090E07A
:1007C000892B49F080E090E0892B29F00E940000FD
:1007D00081110E94000080E090E0892B49F080E0C8
:1007E00090E0892B29F00E94000081110C940000F8
:1007F0000895FC0101900020E9F73197AF01481BF3
:10080000590BBC018DE296E00C94B10280E194E0BA
:100810000C94F9038F929F92AF92BF920F931F9304
:10082000CF93DF93CDB7DEB7A1970FB6F894DEBFB5
:100830000FBECDBF19A2423008F44AE08E010F5D11
:100840001F4F842E912CB12CA12CA50194010E9444
:10085000860BE62FB901CA01EA30F4F4E05DD80155
:10086000EE938D01232B242B252B79F790E080E04C
:10087000109719F0CD010E94F903A1960FB6F894D4
:10088000DEBF0FBECDBFDF91CF911F910F91BF9003
:10089000AF909F908F900895E95CE1CFCF93DF9365
:1008A000D0E0C0E0009719F00E94F903EC010E942B
:1008B00006048C0F9D1FDF91CF910895009711F0D2
:1008C0000C94F90390E080E00895682F70E090E0C8
:1008D00080E04AE00C940A041F920F920FB60F9228
:1008E00011242F933F938F939F93AF93BF93809146
:1008F000250690912606A0912706B09128063091F2
:10090000240623E0230F2D3758F50196A11DB11DB4
:10091000209324068093250690932606A09327060D
:10092000B09328068091290690912A06A0912B0663
:10093000B0912C060196A11DB11D809329069093BC
:100940002A06A0932B06B0932C06BF91AF919F91DE
:100950008F913F912F910F900FBE0F901F90189580
:1009600026E8230F0296A11DB11DD2CF1F920F9230
:100970000FB60F9211240BB60F922F933F934F9304
:100980005F936F937F938F939F93AF93BF93EF93F7
:10099000FF938DE296E00E943903FF91EF91BF91A2
:1009A000AF919F918F917F916F915F914F913F9107
:1009B0002F910F900BBE0F900FBE0F901F901895A8
:1009C0001F920F920FB60F9211240BB60F922F9316
:1009D0008F939F93EF93FF93E0913D06F0913E0636
:1009E0008081E0914306F091440682FD1DC0908114
:1009F000809146068F5F8F7320914706821741F0E2
:100A0000E0914606F0E0E35DF94F958F809346064E
:100A1000FF91EF919F918F912F910F900BBE0F90AF
:100A20000FBE0F901F9018958081F2CF1F920F92EA
:100A30000FB60F9211240BB60F922F933F934F9343
:100A40005F936F937F938F939F93AF93BF93EF9336
:100A5000FF93E0917605F09177051995FF91EF915D
:100A6000BF91AF919F918F917F916F915F914F91C6
:100A70003F912F910F900BBE0F900FBE0F901F90C4
:100A80001895789484B5826084BD84B5816084BDF6
:100A900085B5826085BD85B5816085BD80916E001C
:100AA000816080936E00109281008091810082604D
:100AB000809381008091810081608093810080918A
:100AC00080008160809380008091B1008460809379
:100AD000B1008091B00081608093B000809191005E
:100AE0008260809391008091910081608093910059
:100AF000809190008160809390008091A10082603D
:100B00008093A1008091A10081608093A1008091D9
:100B1000A00081608093A000809121018260809379
:100B20002101809121018160809321018091200128
:100B300081608093200180917A00846080937A00A4
:100B400080917A00826080937A0080917A0081603F
:100B500080937A0080917A00806880937A00109266
:100B6000C100E0913D06F0913E0682E08083E09175
:100B70003906F0913A061082E0913B06F0913C066E
:100B800090E1908310924506E0914106F091420673
:100B900086E08083E0913F06F0914006808180618D
:100BA0008083E0913F06F0914006808188608083D9
:100BB000E0913F06F0914006808180688083E0915B
:100BC0003F06F091400680818F7D80832EED32E0DC
:100BD000309377052093760581E080936F009093A2
:100BE0008100109280008093250580E49FE190931E
:100BF000240580932305909387008093860081E1EC
:100C0000809381008CE992E00E944E0486EC92E091
:100C10000E945E044AE065E070E080E090E00E949F
:100C20000A0486ED92E00E945E044AE067E070E00C
:100C300080E090E00E940A040E94060410922206BE
:100C4000C7E080912206853008F040C00E9406046B
:100C50001092230680912306873090F589EE92E06A
:100C60000E945E04809123060E9465048EEF92E04C
:100C70000E945E04809122060E94650487E093E052
:100C80000E945E0480912206E0912306C89FC00165
:100C90001124E80FF92FF11DEE0FFF1FEA5EFD4F43
:100CA000808191810E944E046AE070E080E090E0D3
:100CB0000E947E02809123068F5F80932306CACF15
:100CC000809122068F5F80932206BBCF0E9406048C
:100CD00010922206809122068E3080F481E193E00A
:100CE0000E945E046AE070E080E090E00E947E0274
:100CF000809122068F5F80932206ECCF83E193E000
:100D00000E945E041092220680912206893080F4AF
:100D100081E193E00E945E046AE070E080E090E090
:100D20000E947E02809122068F5F80932206ECCF84
:100D300081E193E00E944E041092220680912206E7
:100D4000883080F481E193E00E945E046AE070E004
:100D500080E090E00E947E02809122068F5F809367
:100D60002206ECCF82E293E00E945E0410922206FB
:100D700080912206883080F481E193E00E945E0435
:100D80006AE070E080E090E00E947E02809122069E
:100D90008F5F80932206ECCF81E193E00E944E04A6
:100DA0000E94FC0A26E930E040E050E00E94540B2B
:100DB0006E5C7F4F8F4F9F4F0E947E0210922206E3
:100DC00080912206843050F482E194E00E944E0427
:100DD000809122068F5F80932206F2CF6AE070E056
:100DE00080E090E00E947E0281E493E00E945E0435
:100DF00010922206809122068A3080F484ED93E0DE
:100E00000E945E046AE070E080E090E00E947E0252
:100E1000809122068F5F80932206ECCF84ED93E0D1
:100E20000E944E040E94FC0A26E930E040E050E0B7
:100E30000E94540B6E5C7F4F8F4F9F4F0E947E022B
:100E4000E0917805F091790584E1DF011D928A95A2
:100E5000E9F7109222061092230610922106D2E0A2
:100E600011E0C7E080912106843108F094C08630FB
:100E700009F089C0109222061093230686E693E0BB
:100E80000E945E0489E793E00E945E04E0912106DF
:100E9000B4E0EB9FF0011124EA5DFA4FA091220625
:100EA000B0E0AE56BD4F8C91808387E893E00E94FE
:100EB0005E04E091210624E0E29FF0011124EA5D46
:100EC000FA4F80810E946504E091210634E0E39F9F
:100ED000F0011124EA5DFA4FA0912306B0E0A75675
:100EE000BD4F8C9181838BE993E00E945E04E09179
:100EF000210684E0E89FF0011124EA5DFA4F818128
:100F00000E946504A0912106E4E0AE9FD001112467
:100F1000AA5DBA4F80912306E0912206C89FC001C6
:100F20001124E80FF92FF11DEE0FFF1FE859FD4FB7
:100F30008081918113969C938E93129787EA93E018
:100F40000E945E04E091210624E0E29FF00111245A
:100F5000EA5DFA4F828193810E945E0482E594E00B
:100F60000E945E04809122068F5F809322066AE0D1
:100F700070E080E090E00E947E02809121068F5F09
:100F8000809321066FCF8D3009F07CCF109222061E
:100F9000D093230673CF10922206C0912206C73049
:100FA00060F4EC2FF0E0EE56FD4F62E080810E948D
:100FB0002802CF5FC0932206F0CF10922206C09184
:100FC0002206C33088F4EC2FF0E0E756FD4FD081C5
:100FD00061E08D2F0E94280261E08D2F0E94FA01AE
:100FE000CF5FC0932206EBCF62E070E080E090E03C
:100FF0000E947E02E0912406F09125068CE1DF013B
:101000001D928A95E9F785EB93E00E944E041092B9
:101010002206109223061092210614E003E0E2E07B
:10102000FE2EEE24E394C6E0D7E0809121068C31B9
:1010300008F0A4C0863009F091C0E0922206109218
:10104000230686E693E00E944E042091220630E0BB
:10105000E0912106CE9FF0011124E758FA4FD90103
:10106000AD59BD4F8C918083A09123068A2F90E0CB
:10107000DC01A45ABD4F4C9141831282D29FD00112
:10108000D39FB00D1124A80FB91FAA0FBB1FAA5ED2
:10109000BD4F8D919C919483838386ED93E00E9454
:1010A0005E04E0912106CE9FF0011124E758FA4F2B
:1010B000838194810E945E0481EE93E00E945E042D
:1010C000E0912106CE9FF0011124E758FA4F80816C
:1010D0000E9465048DEE93E00E945E04E09121067B
:1010E000CE9FF0011124E758FA4F81810E946504D8
:1010F0000E940604D0902106CD9DC0011124FC0160
:10110000E758FA4F5F01908061E0892D0E94280224
:10111000D5011196CC9061E08C2D0E94280261E0EF
:10112000892D0E94FA0160E08C2D0E94FA016AE08C
:1011300070E080E090E00E947E0260E0892D0E94D5
:10114000FA0161E08C2D0E94FA01809123068F5FE5
:1011500080932306D394D092210667CF8D3019F463
:10116000F09222066CCF843119F40093220667CFE7
:10117000883109F06ACF1093220661CF8BEF93E09C
:101180000E945E0410922206D6E06CE1E62E809169
:10119000220681115EC010922106C0912106CC3139
:1011A00020F5DC9F8001112407581A4FF801F080C8
:1011B00061E08F2D0E94FA01D80111961C9160E028
:1011C000812F0E94FA0164E170E080E090E00E94CB
:1011D0007E0260E08F2D0E94FA0161E0812F0E9463
:1011E000FA01CF5FC0932106D8CF64E170E080E0C0
:1011F00090E00E947E02E0922106C0912106CC235D
:1012000021F1DC9F8001112407581A4FF801F0806A
:1012100061E08F2D0E94FA01D80111961C9160E0C7
:10122000812F0E94FA0164E170E080E090E00E946A
:101230007E0260E08F2D0E94FA0161E0812F0E9402
:10124000FA01C150C0932106D8CF81E080932206D5
:101250009ECF1092220656E0F52ED0912206D23073
:1012600008F044C064E670E080E090E00E947E02F6
:1012700010922106C0912106CC31A0F4FC9E800181
:10128000112407581A4F61E0F80180810E94FA0189
:1012900060E0D80111968C910E94FA01CF5FC09353
:1012A0002106E8CF64E670E080E090E00E947E02D4
:1012B00010922106C0912106CC31A0F4FC9E800141
:1012C000112407581A4F60E0F80180810E94FA014A
:1012D00061E0D80111968C910E94FA01CF5FC09312
:1012E0002106E8CFDF5FD0932206B7CF83E194E0F9
:1012F0000E945E041092220644E0842E912CA12CC0
:10130000B12CC0902206D12CF12CE12C0E94FC0AB9
:10131000A50194010E94540B6E5F7F4F8F4F9F4F2A
:10132000C616D706E806F90684F484ED93E00E9419
:101330005E0464E170E080E090E00E947E028091B3
:1013400022068F5F80932206DCCF8CE294E00E941D
:101350005E0484ED93E00E944E0464E170E080E05E
:1013600090E00E947E0282E394E00E945E0410926C
:10137000220634E0832E912CA12CB12CC0902206A1
:10138000D12CF12CE12C0E94FC0AA50194010E94B1
:10139000540B6E5F7F4F8F4F9F4FC616D706E806E0
:1013A000F90684F484ED93E00E945E0464E170E049
:1013B00080E090E00E947E02809122068F5F809301
:1013C0002206DCCF1092220680912206823040F461
:1013D0000E940604809122068F5F80932206F4CF3C
:1013E0008DE494E00E945E04FF24F39426E0E22E54
:1013F0000BE113E01092230697E0D92EC09123064B
:10140000C33008F07DC010927805D0917805D330B4
:1014100060F4ED2FF0E0E756FD4F61E080810E941F
:10142000FA01DF5FD0937805F0CFEC2FF0E0E756BC
:10143000FD4F60E080810E94FA0110922206C09167
:101440002206C0902306C73008F056C0D0E0FE0147
:10145000EE56FD4F80810E94D101892B09F046C0D4
:10146000DC9CC00DD11D1124CC0FDD1FC859DD4FF0
:10147000888199810E944E04E0912206F0E0EE56A8
:10148000FD4F80810E94D101892B61F510922106C8
:10149000C0902106BBE1BC1578F3EC9CE00111245F
:1014A000C758DA4F8A81B9806A818823C9F0A88039
:1014B0008A2D0E94FA016A816F258B2D0E94FA0104
:1014C000C8010197F1F76A816F258A2D0E94FA0100
:1014D0006A818B2D0E94FA01C394C0922106D8CF55
:1014E0006F25F7CF8DE296E00E94A8038091220637
:1014F0008F5F80932206A3CFC394C09223067ECF32
:101500000E94C80377CFEDE2F6E01382128288EEE4
:1015100093E0A0E0B0E084839583A683B78388E05E
:1015200092E09183808385EC90E09587848784ECBA
:1015300090E09787868780EC90E0918B808B81ECA0
:1015400090E0938B828B82EC90E0958B848B86EC81
:1015500090E0978B868B118E128E138E148E0895C9
:101560008F929F92AF92BF92CF92DF92EF92FF92B3
:10157000CF93DF93EC01688179818A819B8161152A
:1015800071058105910521F464E279ED8BE597E021
:101590002DE133EF41E050E00E94540B49015A0124
:1015A0009B01AC01A7EAB1E40E94730B6B017C01C3
:1015B000ACEEB4EFA50194010E94810BC60ED71EBC
:1015C000E81EF91EF7FE06C081E0C81AD108E1083E
:1015D00080E8F80AC882D982EA82FB82C701B60194
:1015E0009F77DF91CF91FF90EF90DF90CF90BF90EA
:1015F000AF909F908F9008958F929F92AF92BF92DD
:10160000CF92DF92EF92FF926091000270910102FF
:101610008091020290910302611571058105910587
:1016200021F464E279ED8BE597E02DE133EF41E0C1
:1016300050E00E94540B49015A019B01AC01A7EAFA
:10164000B1E40E94730B6B017C01ACEEB4EFA50119
:1016500094010E94810BC60ED71EE81EF91EF7FEEC
:1016600006C081E0C81AD108E10880E8F80AC092F3
:101670000002D0920102E0920202F0920302C7013E
:10168000B6019F77FF90EF90DF90CF90BF90AF9023
:101690009F908F9008956093000270930102809351
:1016A0000202909303020895052E97FB1EF4009406
:1016B0000E946B0B57FD07D00E94860B07FC03D0DE
:1016C0004EF40C946B0B50954095309521953F4FFF
:1016D0004F4F5F4F089590958095709561957F4F1E
:1016E0008F4F9F4F08950E94A80BA59F900DB49F08
:1016F000900DA49F800D911D11240895B7FF0C94A7
:10170000730B0E94730B821B930B0895A1E21A2E98
:10171000AA1BBB1BFD010DC0AA1FBB1FEE1FFF1F95
:10172000A217B307E407F50720F0A21BB30BE40BE5
:10173000F50B661F771F881F991F1A9469F760952C
:101740007095809590959B01AC01BD01CF010895E6
:10175000A29FB001B39FC001A39F700D811D1124F2
:10176000911DB29F700D811D1124911D0895EE0FE2
:10177000FF1F881F8BBF0790F691E02D1994F894F6
:02178000FFCF99
:1017820001000000000000005B03B102F202A803A6
:10179200230301031503550459045D04630467041C
:1017A2006D040000720477047C04830489049104AC
:1017B20097049E04A304A804AF04B504BD04C304A3
:1017C200CA04D104D804E604000000000000F404B6
:1017D200FB04020510050000000000001F21232564
:1017E200292D3135332F2B276D04670463045D04E3
:1017F2005904550400009E04A304C304BD04B504A7
:10180200AF04A804770472047C048304890491045D
:101812009704222426282A2C2E3432302D3E204BA7
:101822006579626F61726420617272617920776199
:101832007320636F6E666967757261746564207484
:101842006875733A20002153697A65206F662072A9
:101852006F77733A20002053697A65206F662063A0
:101862006F6C756D6E733A200023204B6579207082
:101872006F736974696F6E3A20526F77200020434C
:101882006F6C756D6E200020427574746F6E3A2015
:10189200002300204D41494E4B4559424F4152448D
:1018A2002000204D434455204145524F534F46544A
:1018B20020413332302053494D554C41544F522030
:1018C200002320436F6E6669677572696E672074C4
:1018D2006865207075736820627574746F6E206914
:1018E2006E70757473000A0D20236E657874206D16
:1018F2006F64756C65200A0D006B657920696E64F2
:101902006578202D3E200020536574206275747422
:101912006F6E20726F77202D3E200020636F6C75F2
:101922006D6E202D3E200020536574206E616D6522
:10193200202D3E20000A0D202320536574206C6563
:1019420064732070696E73206173206F7574707593
:1019520074732E2E2E000A205365742070696E2037
:101962000020416E6F64652070696E200020436123
:1019720074686F64652070696E20000A0A205465DD
:101982007374696E67206C6564732E2E2E2E2E2062
:101992000D0A000A0A205374617274696E67204D41
:1019A20061696E4B6579626F61726400446F6E6546
:1019B20021000A0A20526561647920666F722070E4
:1019C2007265737320627574746F6E21000A202D24
:1019D2003E200A0D004C4F430041503100412F542C
:1019E2004852004150320045585045440041505041
:1019F200520046445F52004C535F520043535452CC
:101A02005F52005750545F5200564F522E445F525D
:101A1200004E44425F5200415250545F52004644CD
:101A22005F4C004C535F4C00435354525F4C005781
:101A320050545F4C00564F522E445F4C004E44426D
:101A42005F4C00415250545F4C00462F4F5F52474B
:101A520000462F4F5F5252004D41535445525F573B
:101A620041524D5F52004D41535445525F434155DF
:101A7200545F5200462F4F5F4C4700462F4F5F4C3A
:101A820052004D41535445525F5741524D5F4C00F5
:0E1A92004D41535445525F434155545F4C0043
:00000001FF
