:100000000C9435010C9466010C9466010C94660105
:100010000C9466010C9466010C9466010C946601C4
:100020000C9466010C9466010C9466010C946601B4
:100030000C9466010C9466010C9466010C946601A4
:100040000C9466010C9466010C9466010C94660194
:100050000C9466010C9466010C9466010C94A30444
:100060000C9466010C9417050C94ED040C94660135
:100070000C9466010C9466010C9466010C94660164
:100080000C9466010C9466010C9466010C94660154
:100090000C9466010C9466010C9466010C94660144
:1000A0000C9466010C9466010C9466010C94660134
:1000B0000C9466010C9466010C9466010C94660124
:1000C0000C9466010C9466010C9466010C94660114
:1000D0000C9466010C9466010C9466010C94660104
:1000E0000C9466010C9445030C94DA0B0C94AB0150
:1000F0000C94C7010C9498010C94DC020C948C01B4
:100100000C94AF010C94A5010C940D030C94B9014F
:100110000C94BD010C94CB010C9492030C94AF028F
:100120000C9494010C94C1010C94FF020C94B30143
:100130000C9490010C9486010C94A1010C94EB0298
:100140000C949B010C94C6010000210024002700A0
:100150002A002D00300033000101000004010701D6
:100160000A0100002200250028002B002E0031008B
:10017000340002010000050108010B01000020000D
:100180002300260029002C002F003200000100006F
:10019000030106010901050505050705080808080A
:1001A000020202020A0A080804040404010101010F
:1001B000010101010303030303030303040707070A
:1001C0000C0C0C0C0C0C0C0C0202020206060606AF
:1001D000060606060B0B0B0B0B0B0B0B010210207C
:1001E000200808102040102040800201020108046D
:1001F0000201010204081020408080402010080401
:100200000201800402018040201008040201080459
:10021000020101020408102040800102040810209D
:10022000408000000A0B02090C0D0E0807030401B0
:1002300000000000000000000000000000000000BE
:10024000000000000000000000000000000012118B
:10025000100000000000000000000000000000008E
:100260000000000000000000DA0B11241FBECFEFD9
:10027000D1E2DEBFCDBF00E00CBF15E0A0E0B2E0F0
:10028000E2E4FAE100E00BBF02C007900D92AC3649
:10029000B107D9F726E0ACE6B5E001C01D92AB3757
:1002A000B207E1F711E0C5E3D1E000E006C0219715
:1002B0000109802FFE010E940E0DC433D10780E09A
:1002C0000807A9F70E944D050C941F0D0C9400001F
:1002D0008150823108F05AC0E82FF0E08827EC58AE
:1002E000FE4F8F4F0C940E0D9401980186018C01E6
:1002F0009001C6019B01A101A501AB01AF01B301B2
:10030000B901BD01C601C101C701CB0180918000C7
:100310008F77809380000895809180008F7DF9CF42
:1003200080918000877FF5CF84B58F7784BD089555
:1003300084B58F7DFBCF8091B0008F778093B00024
:1003400008958091B0008F7DF9CF809190008F77D4
:10035000809390000895809190008F7DF9CF8091D7
:100360009000877FF5CF8091A0008F778093A000C9
:1003700008958091A0008F7DF9CF8091A000877FA4
:10038000F5CF809120018F7780932001089580918F
:1003900020018F7DF9CF80912001877FF5CFCF930A
:1003A000DF93282F30E0F901EE5DFD4F8491F901D4
:1003B000E452FE4FD491F901EA56FE4FC491CC238A
:1003C000A1F081110E946801EC2FF0E0EE0FFF1FF9
:1003D000E458FE4FA591B491EC91ED2381E090E0BB
:1003E00009F480E0DF91CF91089580E090E0FACFAA
:1003F0001F93CF93DF93282F30E0F901EE5DFD4F7F
:100400008491F901E452FE4FD491F901EA56FE4F6E
:10041000C491CC23A9F0162F81110E946801EC2F02
:10042000F0E0EE0FFF1FEE59FE4FA591B4918FB78C
:10043000F894EC91111108C0D095DE23DC938FBFA6
:10044000DF91CF911F910895DE2BF8CFCF93DF93EB
:1004500090E0FC01E452FE4F24918A569E4FFC012D
:1004600084918823D1F090E0880F991FFC01E85B0C
:10047000FE4FA591B491FC01EE59FE4FC591D49168
:10048000623071F49FB7F8943C91822F809583235A
:100490008C93E8812E2B28839FBFDF91CF91089505
:1004A0008FB7F894EC912E2B2C938FBFF6CF3FB7DC
:1004B000F8948091DA059091DB05A091DC05B0916C
:1004C000DD0526B5A89B05C02F3F19F00196A11D9B
:1004D000B11D3FBFBA2FA92F982F8827BC01CD018E
:1004E000620F711D811D911D42E0660F771F881FED
:1004F000991F4A95D1F708958F929F92AF92BF921C
:10050000CF92DF92EF92FF926B017C010E94570223
:100510004B015C01C114D104E104F104B9F00E9463
:100520005702681979098A099B09683E7340810559
:10053000910580F321E0C21AD108E108F10888EEA4
:10054000880E83E0981EA11CB11CE4CFFF90EF90B1
:10055000DF90CF90BF90AF909F908F900895AF9213
:10056000BF92CF92DF92EF92FF920F931F93CF93A0
:10057000DF936C017B018B01040F151FEB015E0102
:10058000AE18BF08C017D10759F06991D601ED9197
:10059000FC910190F081E02DC6011995892B79F726
:1005A000C501DF91CF911F910F91FF90EF90DF90E8
:1005B000CF90BF90AF900895FC01538D448D252FAF
:1005C00030E0842F90E0821B930B541710F0CF96ED
:1005D000089501970895FC01918D828D981761F01F
:1005E000A28DAE0FBF2FB11D5D968C91928D9F5F36
:1005F0009F73928F90E008958FEF9FEF0895FC0115
:10060000918D828D981731F0828DE80FF11D858DC7
:1006100090E008958FEF9FEF0895FC01918D228D5A
:10062000892F90E0805C9F4F821B91098F739927DF
:1006300008958EED95E00E940D0321E0892B09F4C9
:1006400020E0822F0895FC01A48DA80FB92FB11DC1
:10065000A35ABF4F2C91848D90E001968F739927F8
:10066000848FA689B7892C93A089B1898C918370D6
:1006700080648C93938D848D981306C00288F389CF
:10068000E02D80818F7D80830895EF92FF920F93FC
:100690001F93CF93DF93EC0181E0888F9B8D8C8D2E
:1006A00098131AC0E889F989808185FF15C09FB722
:1006B000F894EE89FF896083E889F98980818370E5
:1006C000806480839FBF81E090E0DF91CF911F9194
:1006D0000F91FF90EF900895F62E0B8D10E00F5FB5
:1006E0001F4F0F731127E02E8C8D8E110CC00FB68B
:1006F00007FCFACFE889F989808185FFF5CFCE0123
:100700000E942303F1CFEB8DEC0FFD2FF11DE35A77
:10071000FF4FF0829FB7F8940B8FEA89FB898081A5
:100720008062CFCFCF93DF93EC01888D8823B9F01F
:10073000AA89BB89E889F9898C9185FD03C08081EC
:1007400086FD0DC00FB607FCF7CF8C9185FFF2CF69
:10075000808185FFEDCFCE010E942303E9CFDF9199
:10076000CF91089580E090E0892B29F00E94190331
:1007700081110E94000080E090E0892B49F080E028
:1007800090E0892B29F00E94000081110E94000056
:1007900080E090E0892B49F080E090E0892B29F0FF
:1007A0000E94000081110E94000080E090E0892BEF
:1007B00049F080E090E0892B29F00E94000081112F
:1007C0000C9400000895BF92CF92DF92EF92FF92B7
:1007D0000F931F93CF93DF9310926C0586E0B82E92
:1007E00001E093E7E92E95E0F92E10916C051E309B
:1007F00018F5B19EE0011124C359DA4F8A8188238C
:10080000B9F06A81C8808C2D0E94F8016A81D98074
:1008100060278D2D0E94F801C7010197F1F76A81C9
:1008200060278C2D0E94F8016A818D2D0E94F801AD
:100830001F5F10936C05D9CFDF91CF911F910F915E
:10084000FF90EF90DF90CF90BF900895FC01019052
:100850000020E9F73197AF01481B590BBC018EED21
:1008600095E00C94AF0287E993E00C9426048F92F4
:100870009F92AF92BF920F931F93CF93DF93CDB709
:10088000DEB7A1970FB6F894DEBF0FBECDBF19A299
:10089000423008F44AE08E010F5D1F4F842E912CE8
:1008A000B12CA12CA50194010E94DD0CE62FB90109
:1008B000CA01EA30F4F4E05DD801EE938D01232BF8
:1008C000242B252B79F790E080E0109719F0CD01CB
:1008D0000E942604A1960FB6F894DEBF0FBECDBFCE
:1008E000DF91CF911F910F91BF90AF909F908F900C
:1008F0000895E95CE1CFCF93DF93D0E0C0E00097AB
:1009000019F00E942604EC010E9433048C0F9D1FF5
:10091000DF91CF910895009711F00C94260490E098
:1009200080E00895CF93DF93682F70E090E080E03F
:100930004AE00E943704EC010E9433048C0F9D1F93
:10094000DF91CF9108951F920F920FB60F9211244D
:100950002F933F938F939F93AF93BF938091D6052F
:100960009091D705A091D805B091D9053091D505C2
:1009700023E0230F2D3758F50196A11DB11D2093BB
:10098000D5058093D6059093D705A093D805B0934D
:10099000D9058091DA059091DB05A091DC05B09135
:1009A000DD050196A11DB11D8093DA059093DB054D
:1009B000A093DC05B093DD05BF91AF919F918F911E
:1009C0003F912F910F900FBE0F901F90189526E822
:1009D000230F0296A11DB11DD2CF1F920F920FB609
:1009E0000F9211240BB60F922F933F934F935F9367
:1009F0006F937F938F939F93AF93BF93EF93FF93E7
:100A00008EED95E00E942303FF91EF91BF91AF918E
:100A10009F918F917F916F915F914F913F912F9116
:100A20000F900BBE0F900FBE0F901F9018951F9246
:100A30000F920FB60F9211240BB60F922F938F9334
:100A40009F93EF93FF93E091EE05F091EF05808186
:100A5000E091F405F091F50582FD1DC09081809133
:100A6000F7058F5F8F732091F805821741F0E091B1
:100A7000F705F0E0E252FA4F958F8093F705FF916A
:100A8000EF919F918F912F910F900BBE0F900FBE02
:100A90000F901F9018958081F2CFCF93DF93CDB741
:100AA000DEB762970FB6F894DEBF0FBECDBF789465
:100AB00084B5826084BD84B5816084BD85B5826063
:100AC00085BD85B5816085BD80916E008160809314
:100AD0006E0010928100809181008260809381007D
:100AE000809181008160809381008091800081608D
:100AF000809380008091B10084608093B1008091E8
:100B0000B00081608093B0008091910082608093FA
:100B1000910080919100816080939100809190007C
:100B20008160809390008091A10082608093A100F9
:100B30008091A10081608093A1008091A0008160DC
:100B40008093A00080912101826080932101809197
:100B50002101816080932101809120018160809337
:100B6000200180917A00846080937A0080917A00DD
:100B7000826080937A0080917A00816080937A000D
:100B800080917A00806880937A001092C100E09191
:100B9000EE05F091EF0582E08083E091EA05F091A7
:100BA000EB051082E091EC05F091ED0580E180838A
:100BB0001092F605E091F205F091F30586E080834E
:100BC000E091F005F091F105808180618083E091F2
:100BD000F005F091F105808188608083E091F00557
:100BE000F091F105808180688083E091F005F091BB
:100BF000F10580818F7D80838CE492E00E947B04EC
:100C000086E792E00E948B044AE063E070E080E0B7
:100C100090E00E94370486E892E00E948B044AE04C
:100C200066E070E080E090E00E9437040E943304A8
:100C30001092C20516E08091C205863008F048C0C7
:100C40000E9433041092C3058091C3058330D0F510
:100C500089E992E00E948B046091C30570E090E006
:100C600080E04AE00E9437048EEA92E00E948B0402
:100C70006091C20570E090E080E04AE00E94370495
:100C800087EB92E00E948B048091C305E091C2053E
:100C9000189FC0011124E80FF92FF11DEE0FFF1F5F
:100CA000E15EFD4F808191810E947B046AE070E0EB
:100CB00080E090E00E947C028091C3058F5F80936A
:100CC000C305C2CF8091C2058F5F8093C205B3CFA9
:100CD0000E9433041092C2058091C2058E3080F4C8
:100CE00081EC92E00E948B046AE070E080E090E08A
:100CF0000E947C028091C2058F5F8093C205ECCF79
:100D000083EC92E00E948B041092C2058091C20590
:100D1000893080F481EC92E00E948B046AE070E0FC
:100D200080E090E00E947C028091C2058F5F8093FA
:100D3000C205ECCF81EC92E00E947B041092C205C8
:100D40008091C205883080F481EC92E00E948B048F
:100D50006AE070E080E090E00E947C028091C20531
:100D60008F5F8093C205ECCF82ED92E00E948B04EE
:100D70001092C2058091C205883080F481EC92E027
:100D80000E948B046AE070E080E090E00E947C02A8
:100D90008091C2058F5F8093C205ECCF81EC92E019
:100DA0000E947B040E94530C26E930E040E050E0B2
:100DB0000E94AB0C6E5C7F4F8F4F9F4F0E947C0256
:100DC0001092C2058091C205843050F489E993E005
:100DD0000E947B048091C2058F5F8093C205F2CF91
:100DE0006AE070E080E090E00E947C0281EF92E097
:100DF0000E948B041092C2058091C2058A3080F453
:100E00008BE593E00E948B046AE070E080E090E064
:100E10000E947C028091C2058F5F8093C205ECCF57
:100E20008BE593E00E947B040E94530C26E930E09E
:100E300040E050E00E94AB0C6E5C7F4F8F4F9F4FA5
:100E40000E947C021092C2058091C205833000F599
:100E50008FE593E00E948B04E091C205F0E0ED5B2A
:100E6000FD4F80810E9492041091C205E12FF0E0B5
:100E7000ED5BFD4F62E080810E94260264E170E03C
:100E800080E090E00E947C021F5F1093C205DCCFDF
:100E90001092C2058091C205823040F40E94330452
:100EA0008091C2058F5F8093C205F4CF86E193E005
:100EB0000E948B041092C20526E0822E912CA12C58
:100EC000B12CC090C205D12CF12CE12C0E94530C06
:100ED000A50194010E94AB0C6C5F7F4F8F4F9F4F19
:100EE000C616D706E806F90684F48BE593E00E945F
:100EF0008B046AE070E080E090E00E947C028091C8
:100F0000C2058F5F8093C205DCCF8BE593E00E9422
:100F10007B046AE070E080E090E00E947C02109226
:100F2000C2058091C205863028F58FE593E00E94C6
:100F30008B04E091C205F0E0EA5BFD4F80810E94E6
:100F400092041091C205E12FF0E0EA5BFD4F0081B1
:100F500061E0802F0E94260264E170E080E090E072
:100F60000E947C0260E0802F0E94F8011F5F1093B6
:100F7000C205D7CF1092C2058091C205823050F4CD
:100F800089E993E00E947B048091C2058F5F809382
:100F9000C205F2CF8CE393E00E947B041092C2055D
:100FA0001092C30510926C0595E0F92E02E0EE2434
:100FB000E39416E0E0916C05EE3008F092C0E63064
:100FC00009F07FC0E092C2051092C3052091C205CE
:100FD00030E01E9FF0011124E359FA4FD901A45EBD
:100FE000BD4F8C918083A091C3058A2F90E0DC01D6
:100FF000AA5EBD4F4C9141831282129FD001139F74
:10100000B00D1124A80FB91FAA0FBB1FA15EBD4FC1
:101010008D919C91948383838DE593E00E948B0452
:10102000E0916C051E9FF0011124E359FA4F838172
:1010300094810E948B0488E693E00E948B04E091E7
:101040006C051E9FF0011124E359FA4F608170E096
:1010500090E080E04AE00E94370484E793E00E9439
:101060008B04E0916C051E9FF0011124E359FA4FA7
:1010700081810E949204D0906C051D9DC0011124B5
:101080009C0123593A4F5901F901908061E0892D63
:101090000E942602F501C18061E08C2D0E9426028B
:1010A00060E0892D0E94F80161E08C2D0E94F8011A
:1010B0008091C3058F5F8093C305D394D0926C0554
:1010C00079CFEB3019F40093C2057ECFEC3019F4E0
:1010D0000093C3057BCFED3009F078CFF092C305C4
:1010E00075CF82E893E00E948B041092C205F6E06F
:1010F000DF2EAEE0CA2E0091C205023008F060C0BB
:1011000010926C0510916C051E3028F5D19EC0011F
:1011100011249C0123593A4F7901F901B08061E013
:101120008B2D0E94F801F701F18060E08F2D0E9465
:10113000F8016EE170E080E090E00E947C0260E0E7
:101140008B2D0E94F80161E08F2D0E94F8011F5F36
:1011500010936C05D7CF6EE170E080E090E00E94C4
:101160007C02C0926C0510916C05112329F1D19E6F
:10117000C00111249C0123593A4F7901F901B08033
:1011800061E08B2D0E94F801F701F18060E08F2D66
:101190000E94F8016EE170E080E090E00E947C0225
:1011A00060E08B2D0E94F80161E08F2D0E94F80114
:1011B000115010936C05D7CF0F5F0093C2059BCFE2
:1011C0001092C205E6E0DE2E0091C205023008F062
:1011D00046C06AEF70E080E090E00E947C021092CE
:1011E0006C0510916C051E30A8F4D19EC00111242D
:1011F0009C0123593A4F790161E0F90180810E94F5
:10120000F80160E0F70181810E94F8011F5F1093EF
:101210006C05E7CF6AEF70E080E090E00E947C020E
:1012200010926C0510916C051E30A8F4D19EC0017F
:1012300011249C0123593A4F790160E0F901808122
:101240000E94F80161E0F70181810E94F8011F5FAF
:1012500010936C05E7CF0F5F0093C205B5CF8AE905
:1012600093E00E948B041092C20574E0872E912CAB
:10127000A12CB12CC090C205D12CF12CE12C0E94E4
:10128000530CA50194010E94AB0C6E5F7F4F8F4FF2
:101290009F4FC616D706E806F90684F48BE593E05F
:1012A0000E948B0464E170E080E090E00E947C0288
:1012B0008091C2058F5F8093C205DCCF83EB93E002
:1012C0000E948B048BE593E00E947B0464E170E054
:1012D00080E090E00E947C0289EB93E00E948B0406
:1012E0001092C20564E0862E912CA12CB12CC090E6
:1012F000C205D12CF12CE12C0E94530CA5019401C4
:101300000E94AB0C6E5F7F4F8F4F9F4FC616D70664
:10131000E806F90684F48BE593E00E948B0464E10F
:1013200070E080E090E00E947C028091C2058F5FB7
:101330008093C205DCCF1092C2058091C205823035
:1013400040F40E9433048091C2058F5F8093C205F0
:10135000F4CF84ED93E00E948B0495ECC92E95E0C8
:10136000D92E20E1322E3BE1832E33E0932E5524FB
:10137000539411E006E05E01FDE0AF0EB11C46E0C3
:10138000742E44244A945DE0652E1092C2058EEDC1
:1013900095E00E940D03181619060CF5F601232D91
:1013A00011922A95E9F78EED95E00E940D03892BA5
:1013B000B1F0C4010197F1F78EED95E00E94EB02C8
:1013C0009091C205E92FF0E0EB53FA4F80838A3009
:1013D00011F41093C4059F5F9093C205E4CF8091F0
:1013E000C405882309F484C11092C405F501202F97
:1013F00011922A95E9F7D98AC88AF501DE01179674
:10140000802F01900D928A95E1F76CED73E085ECE9
:1014100095E00E94160D892B79F5198786E0FE016B
:101420003796DE01119601900D928A95E1F78E8133
:101430008F3F09F041C18AEE94E00E947B04109234
:101440006C0520906C05FDE0F21508F451C1029D79
:10145000C00111249C0123593A4F790160E0F90140
:1014600080810E94F80161E0F70181810E94F8010A
:10147000239420926C05E5CF64EE73E085EC95E053
:101480000E94160D892B11F41986C8CF6DEE73E0FA
:1014900085EC95E00E94160D892B19F419871C879D
:1014A000BDCF67EF73E085EC95E00E94160D892BA8
:1014B00011F41986F4CF62E074E085EC95E00E94A7
:1014C000160D892B21F4198782E08C87A7CF6CE059
:1014D00074E085EC95E00E94160D892B11F41986B5
:1014E000F3CF67E174E085EC95E00E94160D892B3F
:1014F00019F4198783E0E9CF60E274E085EC95E0A8
:101500000E94160D892B11F41986F4CF6AE274E05B
:1015100085EC95E00E94160D892B19F4198784E05B
:10152000D4CF62E374E085EC95E00E94160D892B20
:1015300011F41986F4CF6BE374E085EC95E00E941A
:10154000160D892B19F4198785E0BFCF64E474E088
:1015500085EC95E00E94160D892B11F41986F4CFC5
:101560006EE474E085EC95E00E94160D892B19F469
:1015700019877C8653CF66E574E085EC95E00E9480
:10158000160D892B11F41986F4CF6FE574E085EC04
:1015900095E00E94160D892B19F4198787E095CFE5
:1015A00068E674E085EC95E00E94160D892B11F435
:1015B0001986F4CF62E774E085EC95E00E94160D81
:1015C000892B19F4198788E080CF6BE774E085ECEC
:1015D00095E00E94160D892B11F41986F4CF65E869
:1015E00074E085EC95E00E94160D892B19F419879B
:1015F00089E06BCF6FE874E085EC95E00E94160DF2
:10160000892B11F41986F4CF6AE974E085EC95E032
:101610000E94160D892B19F419878AE056CF64EAC7
:1016200074E085EC95E00E94160D892B11F4198663
:10163000F4CF6FEA74E085EC95E00E94160D892BDB
:1016400019F419878BE041CF69EB74E085EC95E0E4
:101650000E94160D892B11F41986F4CF64EC74E006
:1016600085EC95E00E94160D892B19F419878CE002
:101670002CCF6CEC74E085EC95E00E94160D892B64
:1016800011F41986F4CF65ED74E085EC95E00E94C5
:10169000160D892B19F419876C86C0CE6FED74E096
:1016A00085EC95E00E94160D892B11F41986F4CF74
:1016B0004C861B861A86B2CE2B81089FC00111244E
:1016C000AC0143595A4F7A01FA012283828188235F
:1016D00059F06B81652581810E94F8016B81F701CA
:1016E00080810E94F801ABCE82818111A8CEF1CF1A
:1016F0000E94E3031092C305F090C305F5E0FF15C7
:1017000008F455C01092C105E090C10525E02E15E2
:1017100060F0EE2DF0E0EA5BFD4F61E080810E9419
:10172000F801E394E092C105EFCFEF2DF0E0EA5B22
:10173000FD4F60E080810E94F8011092C205809107
:10174000C205833070F5E82EF12CF701ED5BFD4FFB
:101750002080822D0E94CF01892BE9F40E94E303AF
:10176000822D0E94CF01892BC9F3E091C3050E9D04
:10177000C0010F9D900D1124E80FF92FF11DEE0F00
:10178000FF1FE15EFD4F808191810E947B048EED01
:1017900095E00E9492038091C2058F5F8093C205FD
:1017A000CECF8091C3058F5F8093C305A5CF0E94E4
:1017B000B203EBCDEEEDF5E01382128288EE93E0FA
:1017C000A0E0B0E084839583A683B78388E092E0AD
:1017D0009183808385EC90E09587848784EC90E00A
:1017E0009787868780EC90E0918B808B81EC90E0EE
:1017F000938B828B82EC90E0958B848B86EC90E0CF
:10180000978B868B118E128E138E148E08958F9265
:101810009F92AF92BF92CF92DF92EF92FF92CF93BF
:10182000DF93EC01688179818A819B816115710563
:101830008105910521F464E279ED8BE597E02DE1D6
:1018400033EF41E050E00E94AB0C49015A019B018B
:10185000AC01A7EAB1E40E94CA0C6B017C01ACEEBA
:10186000B4EFA50194010E94D80CC60ED71EE81E45
:10187000F91EF7FE06C081E0C81AD108E10880E829
:10188000F80AC882D982EA82FB82C701B6019F7733
:10189000DF91CF91FF90EF90DF90CF90BF90AF900E
:1018A0009F908F9008958F929F92AF92BF92CF9208
:1018B000DF92EF92FF92609100027091010280919D
:1018C000020290910302611571058105910521F4D1
:1018D00064E279ED8BE597E02DE133EF41E050E0F4
:1018E0000E94AB0C49015A019B01AC01A7EAB1E48B
:1018F0000E94CA0C6B017C01ACEEB4EFA50194010F
:101900000E94D80CC60ED71EE81EF91EF7FE06C0B0
:1019100081E0C81AD108E10880E8F80AC092000204
:10192000D0920102E0920202F0920302C701B601D6
:101930009F77FF90EF90DF90CF90BF90AF909F90F8
:101940008F900895609300027093010280930202C9
:10195000909303020895052E97FB1EF400940E94B5
:10196000C20C57FD07D00E94DD0C07FC03D04EF4DB
:101970000C94C20C50954095309521953F4F4F4F98
:101980005F4F089590958095709561957F4F8F4F2B
:101990009F4F08950E94FF0CA59F900DB49F900D3E
:1019A000A49F800D911D11240895B7FF0C94CA0CBB
:1019B0000E94CA0C821B930B0895A1E21A2EAA1B47
:1019C000BB1BFD010DC0AA1FBB1FEE1FFF1FA217EF
:1019D000B307E407F50720F0A21BB30BE40BF50BEC
:1019E000661F771F881F991F1A9469F76095709575
:1019F000809590959B01AC01BD01CF010895A29FF8
:101A0000B001B39FC001A39F700D811D1124911DD2
:101A1000B29F700D811D1124911D0895EE0FFF1FBF
:101A2000881F8BBF0790F691E02D1994FB01DC0114
:101A30008D91019080190110D9F3990B0895F894B4
:021A4000FFCFD6
:101A420001000000000000004503AF02DC02920327
:101A52000D03EB02FF0229272523211F17191B075C
:101A6200050B05110517051C052005250529052E61
:101A720005330539053F0543054905530557055B00
:101A82000565051A18161C1E202224262D3E204B01
:101A92006579626F61726420617272617920776127
:101AA2007320636F6E666967757261746564207412
:101AB2006875733A20002153697A65206F66207237
:101AC2006F77733A20002053697A65206F6620632E
:101AD2006F6C756D6E733A200023204B6579207010
:101AE2006F736974696F6E3A20526F7720002043DA
:101AF2006F6C756D6E200020427574746F6E3A20A3
:101B0200002300204D41494E4B4559424F4152441A
:101B12002000204D434455204145524F534F4654D7
:101B220020413332302053494D554C41544F5220BD
:101B3200002320436F6E6669677572696E67207451
:101B42006865207075736820627574746F6E2069A1
:101B52006E70757473002320436F6E6669677572C9
:101B6200696E672074686520707573682062757489
:101B7200746F6E206F757470757473000A0D202374
:101B820020536574206C6564732070696E732061E4
:101B920073206F7574707574732E2E2E000A205385
:101BA20065742070696E200020416E6F646520703C
:101BB200696E200020436174686F64652070696EED
:101BC20020000A0A2054657374696E67206C65648C
:101BD200732E2E2E2E2E200D0A000A0A2053746117
:101BE2007274696E67204D61696E4B6579626F61CF
:101BF200726400446F6E6521000A0A2052656164B6
:101C02007920666F722070726573732062757474C6
:101C12006F6E21000A202D3E200A0D00454E472CF2
:101C22004F4E0A00454E472C4F46460A00424C454D
:101C320045442C4F4E0A00424C4545442C4F4646E3
:101C42000A0050524553532C4F4E0A0050524553EE
:101C5200532C4F46460A00454C45432C4F4E0A0032
:101C6200454C45432C4F46460A004859442C4F4E9A
:101C72000A004859442C4F46460A004655454C2C0A
:101C82004F4E0A004655454C2C4F46460A004150DD
:101C9200552C4F4E0A004150552C4F46460A0043E0
:101CA2004F4E442C4F4E0A00434F4E442C4F464653
:101CB2000A00444F4F522C4F4E0A00444F4F522CB1
:101CC2004F46460A005748454C4C2C4F4E0A005787
:101CD20048454C4C2C4F46460A00462F43544C2C48
:101CE2004F4E0A00462F43544C2C4F46460A00439F
:101CF2004C525F4C2C4F4E0A00434C525F4C2C4FBF
:101D020046460A005359532C4F4E0A005359532C3E
:101D12004F46460A00434C525F522C4F4E0A004334
:101D22004C525F522C4F46460A006572726F722007
:101D32002D20627574746F6E206E616D65206E6FFA
:101D4200742061626C6500454E4700424C45454433
:101D520000505245535300454C45430048594400F6
:101D62004655454C0041505500434F4E4400444FA8
:101D72004F52005748454C4C00462F43544C0041AB
:101D82004C4C00434C525F4C00544F20434F4E4644
:101D92004947005359530052434C00454D45522F79
:0C1DA20043414E4300434C525F5200008E
:00000001FF
