:100000000C9435010C9466010C9466010C94660105
:100010000C9466010C9466010C9466010C946601C4
:100020000C9466010C9466010C9466010C946601B4
:100030000C9466010C9466010C9466010C946601A4
:100040000C9466010C9466010C9466010C94660194
:100050000C9466010C9466010C9466010C9499044E
:100060000C9466010C940D050C94E3040C94660149
:100070000C9466010C9466010C9466010C94660164
:100080000C9466010C9466010C9466010C94660154
:100090000C9466010C9466010C9466010C94660144
:1000A0000C9466010C9466010C9466010C94660134
:1000B0000C9466010C9466010C9466010C94660124
:1000C0000C9466010C9466010C9466010C94660114
:1000D0000C9466010C9466010C9466010C94660104
:1000E0000C9466010C94EB020C9492030C94C101E5
:1000F0000C94A5010C949B010C94AB010C949401FD
:100100000C94B3010C94CB010C94C7010C94F90B23
:100110000C94AF020C9445030C9498010C94AF011D
:100120000C9490010C94A1010C94C6010C94FF0254
:100130000C940D030C94DC020C94B9010C94860110
:100140000C94BD010C948C010000210024002700B8
:100150002A002D00300033000101000004010701D6
:100160000A0100002200250028002B002E0031008B
:10017000340002010000050108010B01000020000D
:100180002300260029002C002F003200000100006F
:10019000030106010901050505050705080808080A
:1001A000020202020A0A080804040404010101010F
:1001B000010101010303030303030303040707070A
:1001C0000C0C0C0C0C0C0C0C0202020206060606AF
:1001D000060606060B0B0B0B0B0B0B0B010210207C
:1001E000200808102040102040800201020108046D
:1001F0000201010204081020408080402010080401
:100200000201800402018040201008040201080459
:10021000020101020408102040800102040810209D
:10022000408000000A0B02090C0D0E0807030401B0
:1002300000000000000000000000000000000000BE
:10024000000000000000000000000000000012118B
:10025000100000000000000000000000000000008E
:100260000000000000000000F90B11241FBECFEFBA
:10027000D1E2DEBFCDBF00E00CBF15E0A0E0B2E0F0
:10028000E0E8FAE100E00BBF02C007900D92A4384D
:10029000B107D9F726E0A4E8B5E001C01D92AB3D57
:1002A000B207E1F711E0C5E3D1E000E006C0219715
:1002B0000109802FFE010E942D0DC433D10780E07B
:1002C0000807A9F70E9443050C943E0D0C9400000A
:1002D0008150823108F05AC0E82FF0E08827EC58AE
:1002E000FE4F8F4F0C942D0D9401980186018C01C7
:1002F0009001C6019B01A101A501AB01AF01B301B2
:10030000B901BD01C601C101C701CB0180918000C7
:100310008F77809380000895809180008F7DF9CF42
:1003200080918000877FF5CF84B58F7784BD089555
:1003300084B58F7DFBCF8091B0008F778093B00024
:1003400008958091B0008F7DF9CF809190008F77D4
:10035000809390000895809190008F7DF9CF8091D7
:100360009000877FF5CF8091A0008F778093A000C9
:1003700008958091A0008F7DF9CF8091A000877FA4
:10038000F5CF809120018F7780932001089580918F
:1003900020018F7DF9CF80912001877FF5CFCF930A
:1003A000DF93282F30E0F901EE5DFD4F8491F901D4
:1003B000E452FE4FD491F901EA56FE4FC491CC238A
:1003C000A1F081110E946801EC2FF0E0EE0FFF1FF9
:1003D000E458FE4FA591B491EC91ED2381E090E0BB
:1003E00009F480E0DF91CF91089580E090E0FACFAA
:1003F0001F93CF93DF93282F30E0F901EE5DFD4F7F
:100400008491F901E452FE4FD491F901EA56FE4F6E
:10041000C491CC23A9F0162F81110E946801EC2F02
:10042000F0E0EE0FFF1FEE59FE4FA591B4918FB78C
:10043000F894EC91111108C0D095DE23DC938FBFA6
:10044000DF91CF911F910895DE2BF8CFCF93DF93EB
:1004500090E0FC01E452FE4F24918A569E4FFC012D
:1004600084918823D1F090E0880F991FFC01E85B0C
:10047000FE4FA591B491FC01EE59FE4FC591D49168
:10048000623071F49FB7F8943C91822F809583235A
:100490008C93E8812E2B28839FBFDF91CF91089505
:1004A0008FB7F894EC912E2B2C938FBFF6CF3FB7DC
:1004B000F89480913A0690913B06A0913C06B09149
:1004C0003D0626B5A89B05C02F3F19F00196A11D3A
:1004D000B11D3FBFBA2FA92F982F8827BC01CD018E
:1004E000620F711D811D911D42E0660F771F881FED
:1004F000991F4A95D1F708958F929F92AF92BF921C
:10050000CF92DF92EF92FF926B017C010E94570223
:100510004B015C01C114D104E104F104B9F00E9463
:100520005702681979098A099B09683E7340810559
:10053000910580F321E0C21AD108E108F10888EEA4
:10054000880E83E0981EA11CB11CE4CFFF90EF90B1
:10055000DF90CF90BF90AF909F908F900895AF9213
:10056000BF92CF92DF92EF92FF920F931F93CF93A0
:10057000DF936C017B018B01040F151FEB015E0102
:10058000AE18BF08C017D10759F06991D601ED9197
:10059000FC910190F081E02DC6011995892B79F726
:1005A000C501DF91CF911F910F91FF90EF90DF90E8
:1005B000CF90BF90AF900895FC01538D448D252FAF
:1005C00030E0842F90E0821B930B541710F0CF96ED
:1005D000089501970895FC01918D828D981761F01F
:1005E000A28DAE0FBF2FB11D5D968C91928D9F5F36
:1005F0009F73928F90E008958FEF9FEF0895FC0115
:10060000918D828D981731F0828DE80FF11D858DC7
:1006100090E008958FEF9FEF0895FC01918D228D5A
:10062000892F90E0805C9F4F821B91098F739927DF
:1006300008958EE396E00E940D0321E0892B09F4D2
:1006400020E0822F0895FC01A48DA80FB92FB11DC1
:10065000A35ABF4F2C91848D90E001968F739927F8
:10066000848FA689B7892C93A089B1898C918370D6
:1006700080648C93938D848D981306C00288F389CF
:10068000E02D80818F7D80830895EF92FF920F93FC
:100690001F93CF93DF93EC0181E0888F9B8D8C8D2E
:1006A00098131AC0E889F989808185FF15C09FB722
:1006B000F894EE89FF896083E889F98980818370E5
:1006C000806480839FBF81E090E0DF91CF911F9194
:1006D0000F91FF90EF900895F62E0B8D10E00F5FB5
:1006E0001F4F0F731127E02E8C8D8E110CC00FB68B
:1006F00007FCFACFE889F989808185FFF5CFCE0123
:100700000E942303F1CFEB8DEC0FFD2FF11DE35A77
:10071000FF4FF0829FB7F8940B8FEA89FB898081A5
:100720008062CFCFCF93DF93EC01888D8823B9F01F
:10073000AA89BB89E889F9898C9185FD03C08081EC
:1007400086FD0DC00FB607FCF7CF8C9185FFF2CF69
:10075000808185FFEDCFCE010E942303E9CFDF9199
:10076000CF91089580E090E0892B29F00E94190331
:1007700081110E94000080E090E0892B49F080E028
:1007800090E0892B29F00E94000081110E94000056
:1007900080E090E0892B49F080E090E0892B29F0FF
:1007A0000E94000081110E94000080E090E0892BEF
:1007B00049F080E090E0892B29F00E94000081112F
:1007C0000C9400000895BF92CF92DF92EF92FF92B7
:1007D0000F931F93CF93DF931092CC0586E0B82E32
:1007E00001E093E7E92E95E0F92E1091CC051E303B
:1007F00018F5B19EE0011124C353DA4F8A81882392
:10080000B9F06A81C8808C2D0E94F8016A81D98074
:1008100060278D2D0E94F801C7010197F1F76A81C9
:1008200060278C2D0E94F8016A818D2D0E94F801AD
:100830001F5F1093CC05D9CFDF91CF911F910F91FE
:10084000FF90EF90DF90CF90BF900895FC01019052
:100850000020E9F73197AF01481B590BBC018EE32B
:1008600096E00C94AF0280EB93E00C9426048F92F8
:100870009F92AF92BF920F931F93CF93DF93CDB709
:10088000DEB7A1970FB6F894DEBF0FBECDBF19A299
:10089000423008F44AE08E010F5D1F4F842E912CE8
:1008A000B12CA12CA50194010E94FC0CE62FB901EA
:1008B000CA01EA30F4F4E05DD801EE938D01232BF8
:1008C000242B252B79F790E080E0109719F0CD01CB
:1008D0000E942604A1960FB6F894DEBF0FBECDBFCE
:1008E000DF91CF911F910F91BF90AF909F908F900C
:1008F0000895E95CE1CFCF93DF93D0E0C0E00097AB
:1009000019F00E942604EC010E9433048C0F9D1FF5
:10091000DF91CF910895009711F00C94260490E098
:1009200080E00895682F70E090E080E04AE00C9449
:1009300037041F920F920FB60F9211242F933F93FB
:100940008F939F93AF93BF93809136069091370614
:10095000A0913806B09139063091350623E0230F77
:100960002D3758F50196A11DB11D209335068093B2
:10097000360690933706A0933806B09339068091D7
:100980003A0690913B06A0913C06B0913D06019637
:10099000A11DB11D80933A0690933B06A0933C069F
:1009A000B0933D06BF91AF919F918F913F912F9151
:1009B0000F900FBE0F901F90189526E8230F0296F8
:1009C000A11DB11DD2CF1F920F920FB60F9211240D
:1009D0000BB60F922F933F934F935F936F937F9339
:1009E0008F939F93AF93BF93EF93FF938EE396E024
:1009F0000E942303FF91EF91BF91AF919F918F913F
:100A00007F916F915F914F913F912F910F900BBE0E
:100A10000F900FBE0F901F9018951F920F920FB658
:100A20000F9211240BB60F922F938F939F93EF93F6
:100A3000FF93E0914E06F0914F068081E0915406BD
:100A4000F091550682FD1DC09081809157068F5F01
:100A50008F7320915806821741F0E0915706F0E01D
:100A6000E25CF94F958F80935706FF91EF919F912C
:100A70008F912F910F900BBE0F900FBE0F901F9074
:100A800018958081F2CFCF93DF93CDB7DEB7629711
:100A90000FB6F894DEBF0FBECDBF789484B58260E8
:100AA00084BD84B5816084BD85B5826085BD85B512
:100AB000816085BD80916E00816080936E00109290
:100AC000810080918100826080938100809181000B
:100AD000816080938100809180008160809380009C
:100AE0008091B10084608093B1008091B0008160FA
:100AF0008093B000809191008260809391008091FA
:100B0000910081608093910080919000816080933A
:100B100090008091A10082608093A1008091A1004B
:100B200081608093A1008091A00081608093A000EB
:100B30008091210182608093210180912101816057
:100B40008093210180912001816080932001809118
:100B50007A00846080937A0080917A00826080932A
:100B60007A0080917A00816080937A0080917A0087
:100B7000806880937A001092C100E0914E06F09157
:100B80004F0682E08083E0914A06F0914B06108286
:100B9000E0914C06F0914D0680E18083109256065C
:100BA000E0915206F091530686E08083E091500672
:100BB000F0915106808180618083E0915006F09130
:100BC0005106808188608083E0915006F091510643
:100BD000808180688083E0915006F0915106808189
:100BE0008F7D80838CE492E00E947B0486E792E014
:100BF0000E948B044AE063E070E080E090E00E9495
:100C0000370486E892E00E948B044AE066E070E0D8
:100C100080E090E00E9437040E9433041092220684
:100C200016E080912206863008F040C00E9433040E
:100C30001092230680912306833090F589E992E093
:100C40000E948B04809123060E9492048EEA92E017
:100C50000E948B04809122060E94920487EB92E00E
:100C60000E948B0480912306E0912206189FC00108
:100C70001124E80FF92FF11DEE0FFF1FE15EFD4F6C
:100C8000808191810E947B046AE070E080E090E0C6
:100C90000E947C02809123068F5F80932306CACF37
:100CA000809122068F5F80932206BBCF0E9433047F
:100CB00010922206809122068E3080F481EC92E020
:100CC0000E948B046AE070E080E090E00E947C0269
:100CD000809122068F5F80932206ECCF83EC92E016
:100CE0000E948B041092220680912206893080F4A3
:100CF00081EC92E00E948B046AE070E080E090E07A
:100D00000E947C02809122068F5F80932206ECCFA6
:100D100081EC92E00E947B041092220680912206D0
:100D2000883080F481EC92E00E948B046AE070E0ED
:100D300080E090E00E947C02809122068F5F809389
:100D40002206ECCF82ED92E00E948B0410922206E4
:100D500080912206883080F481EC92E00E948B041E
:100D60006AE070E080E090E00E947C0280912206C0
:100D70008F5F80932206ECCF81EC92E00E947B048F
:100D80000E94720C26E930E040E050E00E94CA0C5C
:100D90006E5C7F4F8F4F9F4F0E947C021092220605
:100DA00080912206843050F482EB93E00E947B0411
:100DB000809122068F5F80932206F2CF6AE070E076
:100DC00080E090E00E947C0281EF92E00E948B0420
:100DD00010922206809122068A3080F484E793E004
:100DE0000E948B046AE070E080E090E00E947C0248
:100DF000809122068F5F80932206ECCF84E793E0F8
:100E00000E947B040E94720C26E930E040E050E032
:100E10000E94CA0C6E5C7F4F8F4F9F4F0E947C02D6
:100E20001092CC05E091CE05F091CF0582E1DF0173
:100E30001D928A95E9F71092220616E0809122060B
:100E4000833008F090C010922306809123068630EC
:100E500008F083C086E193E00E948B046091CC058A
:100E600070E06F5F7F4F072E000C880B990B4AE0F4
:100E70000E943704E091CC05B4E0EB9FF00111240F
:100E8000EC57FA4FA0912206B0E0AD5BBD4F8C91BC
:100E900080838AE293E00E948B04E091CC0524E0F9
:100EA000E29FF0011124EC57FA4F80810E949204D6
:100EB000E091CC0534E0E39FF0011124EC57FA4FA8
:100EC000A0912306B0E0AA5BBD4F8C91818387E39C
:100ED00093E00E948B04E091CC0544E0E49FF00194
:100EE0001124EC57FA4F81810E949204A091CC0505
:100EF00054E0A59FD0011124AC57BA4F809122062F
:100F0000E0912306189FC0011124E80FF92FF11D6D
:100F1000EE0FFF1FE15EFD4F8081918113969C9340
:100F20008E93129787E493E00E948B04E091CC05A6
:100F300084E0E89FF0011124EC57FA4F82819381FD
:100F40000E947B048091CC058F5F8093CC058091BB
:100F500023068F5F8093230678CF809122068F5FD0
:100F6000809322066BCF1092CC051091CC051231E4
:100F700010F5A4E01A9FC0011124FC01EC57FA4FB0
:100F80007F0162E080810E94260261E0D701119614
:100F90008C910E942602E0912106B4E0EB9FF001C3
:100FA0001124EC57FA4F61E081810E94F8011F5F24
:100FB0001093CC05DACFE0912406F09125068EE05F
:100FC000DF011D928A95E9F785E593E00E947B0495
:100FD00010922206109223061092CC0595E0F92E6D
:100FE00002E0EE24E39416E0E091CC05EE3008F048
:100FF00090C0E63009F07DC0E092220610922306F0
:101000002091220630E01E9FF0011124E353FA4F95
:10101000D901A45EBD4F8C918083A09123068A2FB5
:1010200090E0DC01AA5EBD4F4C9141831282129F79
:10103000D001139FB00D1124A80FB91FAA0FBB1F19
:10104000A15EBD4F8D919C919483838386E793E04D
:101050000E948B04E091CC051E9FF0011124E35304
:10106000FA4F838194810E948B0481E893E00E946F
:101070008B04E091CC051E9FF0011124E353FA4F3D
:1010800080810E9492048DE893E00E948B04E0919D
:10109000CC051E9FF0011124E353FA4F81810E9479
:1010A00092040E943304D090CC051D9DC0011124F0
:1010B000FC01E353FA4F5F01908061E0892D0E94AB
:1010C0002602D5011196CC9061E08C2D0E9426025B
:1010D00060E0892D0E94F80161E08C2D0E94F801EA
:1010E000809123068F5F80932306D394D092CC0502
:1010F0007BCFEB3019F40093220680CFEC3019F44B
:10110000009323067DCFED3009F07ACFF0922306CD
:1011100077CF8BE993E00E948B0410922206F6E0D1
:10112000DF2EAEE0CA2E00912206023008F060C029
:101130001092CC051091CC051E3028F5D19EC0012F
:101140001124FC01E353FA4F7F01B08061E08B2D45
:101150000E94F801D7011196FC9060E08F2D0E944B
:10116000F8016EE170E080E090E00E947C0260E0B7
:101170008B2D0E94F80161E08F2D0E94F8011F5F06
:101180001093CC05D7CF6EE170E080E090E00E9434
:101190007C02C092CC051091CC05112329F1D19E7F
:1011A000C0011124FC01E353FA4F7F01B08061E0DC
:1011B0008B2D0E94F801D7011196FC9060E08F2DD5
:1011C0000E94F8016EE170E080E090E00E947C02F5
:1011D00060E08B2D0E94F80161E08F2D0E94F801E4
:1011E00011501093CC05D7CF0F5F009322069BCFF1
:1011F00010922206E6E0DE2E00912206023008F070
:1012000046C06AEF70E080E090E00E947C0210929D
:10121000CC051091CC051E30A8F4D19EC00111243C
:10122000FC01E353FA4F7F0161E080810E94F801E5
:1012300060E0D70111968C910E94F8011F5F109316
:10124000CC05E7CF6AEF70E080E090E00E947C027E
:101250001092CC051091CC051E30A8F4D19EC0018F
:101260001124FC01E353FA4F7F0160E080810E946A
:10127000F80161E0D70111968C910E94F8011F5F7F
:101280001093CC05E7CF0F5F00932206B5CF83EB19
:1012900093E00E948B041092220674E0872E912C1A
:1012A000A12CB12CC0902206D12CF12CE12C0E9453
:1012B000720CA50194010E94CA0C6E5F7F4F8F4F84
:1012C0009F4FC616D706E806F90684F484E793E034
:1012D0000E948B0464E170E080E090E00E947C0258
:1012E000809122068F5F80932206DCCF8CEC93E006
:1012F0000E948B0484E793E00E947B0464E170E029
:1013000080E090E00E947C0282ED93E00E948B04DA
:101310001092220664E0862E912CA12CB12CC09054
:101320002206D12CF12CE12C0E94720CA501940113
:101330000E94CA0C6E5F7F4F8F4F9F4FC616D70615
:10134000E806F90684F484E793E00E948B0464E1E4
:1013500070E080E090E00E947C02809122068F5F26
:1013600080932206DCCF10922206809122068230E2
:1013700040F40E943304809122068F5F80932206FE
:10138000F4CF8DEE93E00E948B0495E2C92E96E097
:10139000D92E20E1322E3BE1832E33E0932E5524CB
:1013A000539411E006E05E01BDE0AB0EB11C46E0D7
:1013B000742E44244A945DE0652E109222068EE33A
:1013C00096E00E940D03181619060CF5F601232D60
:1013D00011922A95E9F78EE396E00E940D03892B7E
:1013E000B1F0C4010197F1F78EE396E00E94EB02A1
:1013F00090912206E92FF0E0EB5DF94F80838A306F
:1014000011F4109324069F5F90932206E4CF8091FD
:101410002406882309F48BC110922406D501E02FFD
:101420001D92EA95E9F7D98AC88AF501DE01179677
:10143000802F01900D928A95E1F765EF73E085E2C8
:1014400096E00E94350D892B79F5198786E0FE011B
:101450003796DE01119601900D928A95E1F78E8103
:101460008F3F09F041C183E095E00E947B04109218
:10147000CC052090CC05FDE0F21508F458C1029D82
:10148000C00111249C0123533A4F790160E0D90136
:101490008C910E94F80161E0F70181810E94F801BE
:1014A00023942092CC05E5CF6DEF73E085E296E0C2
:1014B0000E94350D892B11F41986C8CF66E074E0BF
:1014C00085E296E00E94350D892B19F419871C8757
:1014D000BDCF60E174E085E296E00E94350D892B76
:1014E00011F41986F4CF6BE174E085E296E00E9476
:1014F000350D892B21F4198782E08C87A7CF65E20F
:1015000074E085E296E00E94350D892B11F419866E
:10151000F3CF60E374E085E296E00E94350D892BFD
:1015200019F4198783E0E9CF69E374E085E296E076
:101530000E94350D892B11F41986F4CF63E474E011
:1015400085E296E00E94350D892B19F4198784E015
:10155000D4CF6BE474E085E296E00E94350D892BD0
:1015600011F41986F4CF64E574E085E296E00E94F8
:10157000350D892B19F4198785E0BFCF6DE574E02F
:1015800085E296E00E94350D892B11F41986F4CF7F
:1015900067E674E085E296E00E94350D892B19F428
:1015A00019877C8653CF6FE674E085E296E00E944F
:1015B000350D892B11F41986F4CF68E774E085E2C4
:1015C00096E00E94350D892B19F4198787E095CF95
:1015D00061E874E085E296E00E94350D892B11F4F4
:1015E0001986F4CF6BE874E085E296E00E94350D31
:1015F000892B19F4198788E080CF64E974E085E2CB
:1016000096E00E94350D892B11F41986F4CF6EE90E
:1016100074E085E296E00E94350D892B19F4198754
:1016200089E06BCF68EA74E085E296E00E94350DB0
:10163000892B11F41986F4CF63EB74E085E296E010
:101640000E94350D892B19F419878AE056CF6DEB6E
:1016500074E085E296E00E94350D892B11F419861D
:10166000F4CF68EC74E085E296E00E94350D892B9A
:1016700019F419878BE041CF62ED74E085E296E0C2
:101680000E94350D892B11F41986F4CF6DED74E0AD
:1016900085E296E00E94350D892B19F419878CE0BC
:1016A0002CCF65EE74E085E296E00E94350D892B23
:1016B00011F41986F4CF6EEE74E085E296E00E9494
:1016C000350D892B19F419876C86C0CE68EF74E04C
:1016D00085E296E00E94350D892B11F41986F4CF2E
:1016E0004C861B861A86B2CE2B81089FC00111241E
:1016F000AC0143535A4F7A01DA0112962C93129798
:1017000012968C911297882361F06B816525119652
:101710008C910E94F8016B81F70180810E94F80191
:10172000A6CE12968C9112978111A1CEEECF0E9477
:10173000E30310922306F0902306F5E0FF1508F46A
:1017400055C010922106E090210625E02E1560F08C
:10175000EE2DF0E0EA5BFD4F61E080810E94F80130
:10176000E394E0922106EFCFEF2DF0E0EA5BFD4F2E
:1017700060E080810E94F80110922206809122068A
:10178000833070F5E82EF12CF701ED5BFD4F2080E2
:10179000822D0E94CF01892BE9F40E94E303822D60
:1017A0000E94CF01892BC9F3E09123060E9DC00151
:1017B0000F9D900D1124E80FF92FF11DEE0FFF1F63
:1017C000E15EFD4F808191810E947B048EE396E073
:1017D0000E949203809122068F5F80932206CECFD3
:1017E000809123068F5F80932306A5CF0E94B203CA
:1017F000E4CDEEE3F6E01382128288EE93E0A0E0FF
:10180000B0E084839583A683B78388E092E09183D8
:10181000808385EC90E09587848784EC90E09787BF
:10182000868780EC90E0918B808B81EC90E0938BAD
:10183000828B82EC90E0958B848B86EC90E0978B8A
:10184000868B118E128E138E148E08958F929F9216
:10185000AF92BF92CF92DF92EF92FF92CF93DF933E
:10186000EC01688179818A819B816115710581050F
:10187000910521F464E279ED8BE597E02DE133EFFA
:1018800041E050E00E94CA0C49015A019B01AC01A1
:10189000A7EAB1E40E94E90C6B017C01ACEEB4EF65
:1018A000A50194010E94F70CC60ED71EE81EF91E72
:1018B000F7FE06C081E0C81AD108E10880E8F80AFE
:1018C000C882D982EA82FB82C701B6019F77DF9185
:1018D000CF91FF90EF90DF90CF90BF90AF909F900F
:1018E0008F9008958F929F92AF92BF92CF92DF9286
:1018F000EF92FF92609100027091010280910202CA
:1019000090910302611571058105910521F464E24E
:1019100079ED8BE597E02DE133EF41E050E00E9457
:10192000CA0C49015A019B01AC01A7EAB1E40E942B
:10193000E90C6B017C01ACEEB4EFA50194010E94AF
:10194000F70CC60ED71EE81EF91EF7FE06C081E092
:10195000C81AD108E10880E8F80AC0920002D092C3
:101960000102E0920202F0920302C701B6019F77E2
:10197000FF90EF90DF90CF90BF90AF909F908F90AF
:101980000895609300027093010280930202909385
:1019900003020895052E97FB1EF400940E94E10CAB
:1019A00057FD07D00E94FC0C07FC03D04EF40C94AA
:1019B000E10C50954095309521953F4F4F4F5F4F2B
:1019C000089590958095709561957F4F8F4F9F4FAB
:1019D00008950E941E0DA59F900DB49F900DA49F89
:1019E000800D911D11240895B7FF0C94E90C0E94FD
:1019F000E90C821B930B0895A1E21A2EAA1BBB1BB4
:101A0000FD010DC0AA1FBB1FEE1FFF1FA217B307CA
:101A1000E407F50720F0A21BB30BE40BF50B661FE0
:101A2000771F881F991F1A9469F7609570958095A4
:101A300090959B01AC01BD01CF010895A29FB0011B
:101A4000B39FC001A39F700D811D1124911DB29FF2
:101A5000700D811D1124911D0895EE0FFF1F881F29
:101A60008BBF0790F691E02D1994FB01DC018D915D
:101A7000019080190110D9F3990B0895F894FFCFC4
:101A800001000000000000004503AF02DC029203E9
:101A90000D03EB02FF0229272523211F17191B2005
:101AA0000524052A053005350539053E054205475B
:101AB000054C05520558055C0562056C05700574FA
:101AC000057E051A18161C1E202224262D3E204BAA
:101AD0006579626F617264206172726179207761E9
:101AE0007320636F6E6669677572617465642074D4
:101AF0006875733A20002153697A65206F662072F9
:101B00006F77733A20002053697A65206F662063EF
:101B10006F6C756D6E733A200023204B65792070D1
:101B20006F736974696F6E3A20526F77200020439B
:101B30006F6C756D6E200020427574746F6E3A2064
:101B4000002300204D41494E4B4559424F415244DC
:101B50002000204D434455204145524F534F465499
:101B600020413332302053494D554C41544F52207F
:101B7000002320436F6E6669677572696E67207413
:101B80006865207075736820627574746F6E206963
:101B90006E70757473000A0A0D2023206B6579201E
:101BA000696E646578202D3E200020536574207294
:101BB0006F77202D3E20002053657420636F6C7575
:101BC0006D6E202D3E200020536574206E616D6582
:101BD000202D3E20000A0D202320536574206C65C3
:101BE00064732070696E73206173206F75747075F3
:101BF00074732E2E2E000A205365742070696E2097
:101C00000020416E6F64652070696E200020436182
:101C100074686F64652070696E20000A0A2054653C
:101C20007374696E67206C6564732E2E2E2E2E20C1
:101C30000D0A000A0A205374617274696E67204DA0
:101C400061696E4B6579626F61726400446F6E65A5
:101C500021000A0A20526561647920666F72207043
:101C60007265737320627574746F6E21000A202D83
:101C70003E200A0D00454E472C4F4E0A00454E4768
:101C80002C4F46460A00424C4545442C4F4E0A0014
:101C9000424C4545442C4F46460A0050524553534A
:101CA0002C4F4E0A0050524553532C4F46460A00C3
:101CB000454C45432C4F4E0A00454C45432C4F465E
:101CC000460A004859442C4F4E0A004859442C4FAC
:101CD00046460A004655454C2C4F4E0A004655458F
:101CE0004C2C4F46460A004150552C4F4E0A00419D
:101CF00050552C4F46460A00434F4E442C4F4E0A37
:101D000000434F4E442C4F46460A00444F4F522C3E
:101D10004F4E0A00444F4F522C4F46460A00574838
:101D2000454C4C2C4F4E0A005748454C4C2C4F46C6
:101D3000460A00462F43544C2C4F4E0A00462F4370
:101D4000544C2C4F46460A00434C525F4C2C4F4E8D
:101D50000A00434C525F4C2C4F46460A00535953DD
:101D60002C4F4E0A005359532C4F46460A00434C01
:101D7000525F522C4F4E0A00434C525F522C4F463A
:101D8000460A004552524F52202D20627574746FDE
:101D90006E206E616D65206E6F742061626C6500EF
:101DA000454E4700424C4545440050524553530070
:101DB000454C454300485944004655454C00415068
:101DC0005500434F4E4400444F4F52005748454C36
:101DD0004C00462F43544C00414C4C00434C525F46
:101DE0004C00544F20434F4E46494700535953002F
:101DF00052434C00454D45522F43414E4300434C06
:041E0000525F5200DB
:00000001FF
