:100000000C9435010C9466010C9466010C94660105
:100010000C9466010C9466010C9466010C946601C4
:100020000C9466010C9466010C9466010C946601B4
:100030000C9466010C9466010C9466010C946601A4
:100040000C9466010C9466010C9466010C94660194
:100050000C9466010C9466010C9466010C94F003F8
:100060000C9466010C9464040C943A040C9466019C
:100070000C9466010C9466010C9466010C94660164
:100080000C9466010C9466010C9466010C94660154
:100090000C9466010C9466010C9466010C94660144
:1000A0000C9466010C9466010C9466010C94660134
:1000B0000C9466010C9466010C9466010C94660124
:1000C0000C9466010C9466010C9466010C94660114
:1000D0000C9466010C9466010C9466010C94660104
:1000E0000C9466010C9450080C949B010C945502DE
:1000F0000C94C7010C9486010C94A5010C94A101E9
:100100000C94AF010C94C6010C9490010C94C101A5
:100110000C948C010C94AB010C94A5020C949801E6
:100120000C94B3010C9482020C94EB020C94910297
:100130000C9438030C94CB010C94BD010C949401E5
:100140000C94B3020C94B901000021002400270094
:100150002A002D00300033000101000004010701D6
:100160000A01000020002300260029002C002F0097
:100170003200000100000301060109010000220015
:10018000250028002B002E00310034000201000061
:10019000050108010B010505050507050808080804
:1001A000020202020A0A080804040404010101010F
:1001B000010101010303030303030303040707070A
:1001C0000C0C0C0C0C0C0C0C0202020206060606AF
:1001D000060606060B0B0B0B0B0B0B0B010210207C
:1001E000200808102040102040800201020108046D
:1001F0000201010204081020408080402010080401
:100200000201800402018040201008040201080459
:10021000020101020408102040800102040810209D
:10022000408000000A0B02090C0D0E0807030401B0
:1002300000000000000000000000000000000000BE
:10024000000000000000000000000000000012118B
:10025000100000000000000000000000000000008E
:100260000000000000000000500811241FBECFEF66
:10027000D1E2DEBFCDBF00E00CBF13E0A0E0B2E0F2
:10028000ECE1F3E100E00BBF02C007900D92AA3A47
:10029000B107D9F724E0AAEAB3E001C01D92A33563
:1002A000B207E1F711E0C5E3D1E000E006C0219715
:1002B0000109802FFE010E948409C433D10780E028
:1002C0000807A9F70E949A040C948C090C9400006A
:1002D0008150823108F05AC0E82FF0E08827EC58AE
:1002E000FE4F8F4F0C9484099401980186018C0174
:1002F0009001C6019B01A101A501AB01AF01B301B2
:10030000B901BD01C601C101C701CB0180918000C7
:100310008F77809380000895809180008F7DF9CF42
:1003200080918000877FF5CF84B58F7784BD089555
:1003300084B58F7DFBCF8091B0008F778093B00024
:1003400008958091B0008F7DF9CF809190008F77D4
:10035000809390000895809190008F7DF9CF8091D7
:100360009000877FF5CF8091A0008F778093A000C9
:1003700008958091A0008F7DF9CF8091A000877FA4
:10038000F5CF809120018F7780932001089580918F
:1003900020018F7DF9CF80912001877FF5CF1F93BA
:1003A000CF93DF93282F30E0F901EE5DFD4F84916C
:1003B000F901E452FE4FD491F901EA56FE4FC4917F
:1003C000CC23A9F0162F81110E946801EC2FF0E0D8
:1003D000EE0FFF1FE458FE4FA591B4918FB7F8942C
:1003E000EC91111108C0D095DE23DC938FBFDF9113
:1003F000CF911F910895DE2BF8CF3FB7F8948091ED
:10040000B2039091B303A091B403B091B50326B5A4
:10041000A89B05C02F3F19F00196A11DB11D3FBF3C
:10042000BA2FA92F982F8827BC01CD01620F711D0B
:10043000811D911D42E0660F771F881F991F4A9505
:10044000D1F708958F929F92AF92BF92CF92DF9291
:10045000EF92FF926B017C010E94FD014B015C0158
:10046000C114D104E104F104B9F00E94FD0168193E
:1004700079098A099B09683E73408105910580F3DB
:1004800021E0C21AD108E108F10888EE880E83E065
:10049000981EA11CB11CE4CFFF90EF90DF90CF908D
:1004A000BF90AF909F908F900895AF92BF92CF92E0
:1004B000DF92EF92FF920F931F93CF93DF936C0124
:1004C0007B018B01040F151FEB015E01AE18BF0805
:1004D000C017D10759F06991D601ED91FC910190B7
:1004E000F081E02DC6011995892B79F7C501DF91BF
:1004F000CF911F910F91FF90EF90DF90CF90BF9021
:10050000AF900895FC01538D448D252F30E0842F4A
:1005100090E0821B930B541710F0CF96089501972B
:100520000895FC01918D828D981761F0A28DAE0F18
:10053000BF2FB11D5D968C91928D9F5F9F73928F9F
:1005400090E008958FEF9FEF0895FC01918D828DCB
:10055000981731F0828DE80FF11D858D90E0089598
:100560008FEF9FEF0895FC01918D228D892F90E0F0
:10057000805C9F4F821B91098F739927089586EBAA
:1005800093E00E94B30221E0892B09F420E0822F3E
:100590000895FC01A48DA80FB92FB11DA35ABF4F18
:1005A0002C91848D90E001968F739927848FA68972
:1005B000B7892C93A089B1898C91837080648C93C6
:1005C000938D848D981306C00288F389E02D808175
:1005D0008F7D80830895EF92FF920F931F93CF93A7
:1005E000DF93EC0181E0888F9B8D8C8D98131AC06E
:1005F000E889F989808185FF15C09FB7F894EE8955
:10060000FF896083E889F9898081837080648083B1
:100610009FBF81E090E0DF91CF911F910F91FF90FC
:10062000EF900895F62E0B8D10E00F5F1F4F0F73A4
:100630001127E02E8C8D8E110CC00FB607FCFACF5F
:10064000E889F989808185FFF5CFCE010E94C90232
:10065000F1CFEB8DEC0FFD2FF11DE35AFF4FF08230
:100660009FB7F8940B8FEA89FB8980818062CFCF96
:10067000CF93DF93EC01888D8823B9F0AA89BB89D9
:10068000E889F9898C9185FD03C0808186FD0DC0C4
:100690000FB607FCF7CF8C9185FFF2CF808185FFE5
:1006A000EDCFCE010E94C902E9CFDF91CF9108952D
:1006B00080E090E0892B29F00E94BF0281110E9406
:1006C000000080E090E0892B49F080E090E0892BE9
:1006D00029F00E94000081110E94000080E090E05B
:1006E000892B49F080E090E0892B29F00E940000DE
:1006F00081110E94000080E090E0892B49F080E0A9
:1007000090E0892B29F00E94000081110C940000D8
:100710000895FC0101900020E9F73197AF01481BD3
:10072000590BBC0186EB93E00C94550283E492E0F4
:100730000C9489038F929F92AF92BF920F931F9355
:10074000CF93DF93CDB7DEB7A1970FB6F894DEBF96
:100750000FBECDBF19A2423008F44AE08E010F5DF2
:100760001F4F842E912CB12CA12CA50194010E9425
:100770005309E62FB901CA01EA30F4F4E05DD8016B
:10078000EE938D01232B242B252B79F790E080E02D
:10079000109719F0CD010E948903A1960FB6F89425
:1007A000DEBF0FBECDBFDF91CF911F910F91BF90E4
:1007B000AF909F908F900895E95CE1CFCF93DF9346
:1007C000D0E0C0E0009719F00E948903EC010E947C
:1007D00096038C0F9D1FDF91CF9108950C94890390
:1007E0001F920F920FB60F9211242F933F938F9366
:1007F0009F93AF93BF938091AE039091AF03A0916D
:10080000B003B091B1033091AD0323E0230F2D3736
:1008100058F50196A11DB11D2093AD038093AE0341
:100820009093AF03A093B003B093B1038091B20350
:100830009091B303A091B403B091B5030196A11DAB
:10084000B11D8093B2039093B303A093B403B0930C
:10085000B503BF91AF919F918F913F912F910F90D1
:100860000FBE0F901F90189526E8230F0296A11D2A
:10087000B11DD2CF1F920F920FB60F9211240BB65B
:100880000F922F933F934F935F936F937F938F9329
:100890009F93AF93BF93EF93FF9386EB93E00E94F8
:1008A000C902FF91EF91BF91AF919F918F917F917D
:1008B0006F915F914F913F912F910F900BBE0F90D1
:1008C0000FBE0F901F9018951F920F920FB60F92A8
:1008D00011240BB60F922F938F939F93EF93FF9357
:1008E000E091C603F091C7038081E091CC03F091C1
:1008F000CD0382FD1DC090818091CF038F5F8F73E8
:100900002091D003821741F0E091CF03F0E0EA5448
:10091000FC4F958F8093CF03FF91EF919F918F9123
:100920002F910F900BBE0F900FBE0F901F90189538
:100930008081F2CF789484B5826084BD84B5816073
:1009400084BD85B5826085BD85B5816085BD80919A
:100950006E00816080936E00109281008091810012
:10096000826080938100809181008160809381000A
:10097000809180008160809380008091B1008460CC
:100980008093B1008091B00081608093B00080912D
:1009900091008260809391008091910081608093AA
:1009A0009100809190008160809390008091A100DF
:1009B00082608093A1008091A10081608093A1005A
:1009C0008091A00081608093A000809121018260CD
:1009D0008093210180912101816080932101809188
:1009E000200181608093200180917A00846080934F
:1009F0007A0080917A00826080937A0080917A00F8
:100A0000816080937A0080917A00806880937A0078
:100A10001092C100E091C603F091C70382E0808389
:100A2000E091C203F091C3031082E091C403F091FE
:100A3000C50380E180831092CE03E091CA03F09158
:100A4000CB0386E08083E091C803F091C9038081E5
:100A500080618083E091C803F091C9038081886040
:100A60008083E091C803F091C9038081806880830E
:100A7000E091C803F091C90380818F7D808386E473
:100A800092E00E94DE0380E792E00E94EE034AE0DB
:100A900063E070E080E090E00E949A0380E892E0DA
:100AA0000E94EE034AE066E070E080E090E00E9481
:100AB0009A030E9496031092AB03C6E08091AB03A9
:100AC000863008F048C00E9496031092AC038091D3
:100AD000AC038330D0F583E992E00E94EE0360918D
:100AE000AC0370E090E080E04AE00E949A0388EA5C
:100AF00092E00E94EE036091AB0370E090E080E032
:100B00004AE00E949A0381EB92E00E94EE038091FA
:100B1000AC03E091AB03C89FC0011124E80FF92F8B
:100B2000F11DEE0FFF1FEA5EFD4F808191810E9453
:100B3000DE0364E170E080E090E00E942202809198
:100B4000AC038F5F8093AC03C2CF8091AB038F5F08
:100B50008093AB03B3CF0E9496031092AB038091B6
:100B6000AB038E3080F48BEB92E00E94EE036AE0E0
:100B700070E080E090E00E9422028091AB038F5FE2
:100B80008093AB03ECCF8DEB92E00E94EE031092CA
:100B9000AB038091AB03893080F48BEB92E00E9431
:100BA000EE036AE070E080E090E00E942202809113
:100BB000AB038F5F8093AB03ECCF8BEB92E00E9493
:100BC000DE031092AB038091AB03883080F48BEB93
:100BD00092E00E94EE036AE070E080E090E00E9404
:100BE00022028091AB038F5F8093AB03ECCF8CEC40
:100BF00092E00E94EE031092AB038091AB03883029
:100C000080F48BEB92E00E94EE036AE070E080E0FB
:100C100090E00E9422028091AB038F5F8093AB0330
:100C2000ECCF8BEB92E00E94DE030E94C90824EF18
:100C300031E040E050E00E9421096C507E4F8F4F20
:100C40009F4F0E9422021092AB038091AB0384302D
:100C500050F485E492E00E94DE038091AB038F5F45
:100C60008093AB03F2CF6AE070E080E090E00E94F6
:100C700022028BEE92E00E94EE031092AB03809171
:100C8000AB038A3080F48AEF92E00E94EE036AE0C0
:100C900070E080E090E00E9422028091AB038F5FC1
:100CA0008093AB03ECCF8AEF92E00E94DE030E94B8
:100CB000C9082EEE32E040E050E00E942109665063
:100CC0007F4F8F4F9F4F0E9422021092AB03809163
:100CD000AB03833008F047C08CEF92E00E94EE0334
:100CE000E091AB03F0E0E65CFD4F608170E090E0E6
:100CF00080E04AE00E949A030E949603E091AB03D1
:100D0000F0E0E65CFD4F808190E0FC01E452FE4F94
:100D100024918A569E4FFC0184918823C1F090E073
:100D2000880F991FFC01E85BFE4FC591D491FC012F
:100D3000E458FE4FA591B4919FB7F8943881822F63
:100D4000809583238883EC91E22BEC939FBF64E62C
:100D500070E080E090E00E9422028091AB038F5F00
:100D60008093AB03B4CF1092AB038091AB0382307E
:100D700040F40E9496038091AB038F5F8093AB0396
:100D8000F4CF85E093E00E94EE031092AB0356E0AF
:100D9000852E912CA12CB12CC090AB03D12CF12C21
:100DA000E12C0E94C908A50194010E9421096C5FF1
:100DB0007F4F8F4F9F4FC616D706E806F90684F47B
:100DC0008AEF92E00E94EE0364E670E080E090E03B
:100DD0000E9422028091AB038F5F8093AB03DCCF34
:100DE0008AEF92E00E94DE0368EE73E080E090E01C
:100DF0000E9422021092AB038091AB03863008F070
:100E00004AC08CEF92E00E94EE03E091AB03F0E069
:100E1000E35CFD4F608170E090E080E04AE00E947A
:100E20009A030E949603E091AB03F0E0E35CFD4F70
:100E3000808190E0FC01E452FE4F24918A569E4F3F
:100E4000FC018491882399F090E0880F991FFC01A0
:100E5000E85BFE4FA591B491FC01E458FE4F8591EB
:100E600094918FB7F894EC91E22BEC938FBF64E6EA
:100E700070E080E090E00E942202C091AB03EC2F72
:100E8000F0E0E35CFD4F60E080810E94CF01CF5F26
:100E9000C093AB03B1CF1092AB038091AB03823010
:100EA00050F485E492E00E94DE038091AB038F5FF3
:100EB0008093AB03F2CF85E193E00E94EE031092A2
:100EC000AB0334E1832E912CA12CB12CC090AB0349
:100ED000D12CF12CE12C0E94C908A50194010E949B
:100EE0002109665F7F4F8F4F9F4FC616D706E806D2
:100EF000F90684F48AEF92E00E94EE036AEF70E054
:100F000080E090E00E9422028091AB038F5F80938B
:100F1000AB03DCCF8BE293E00E94EE038AEF92E01A
:100F20000E94DE0368EE73E080E090E00E942202FF
:100F300081E393E00E94EE031092AB0326E0822E41
:100F4000912CA12CB12CC090AB03D12CF12CE12C15
:100F50000E94C908A50194010E9421096C5F7F4F7E
:100F60008F4F9F4FC616D706E806F90684F48AEF1E
:100F700092E00E94EE0362E370E080E090E00E9465
:100F800022028091AB038F5F8093AB03DCCF109282
:100F9000AB038091AB03833040F40E9496038091B1
:100FA000AB038F5F8093AB03F4CF89E493E00E949F
:100FB000EE0306E01092AC03C091AC03C63008F01B
:100FC0006CC01092AA03D091AA03D63060F4ED2F22
:100FD000F0E0E35CFD4F61E080810E94CF01DF5FC4
:100FE000D093AA03F0CFEC2FF0E0E35CFD4F60E07C
:100FF00080810E94CF011092AB03C091AB03C3303C
:1010000008F045C0D0E0FE01E65CFD4F208130E0F5
:10101000F901EE5DFD4F8491F901E452FE4FF49029
:10102000F901EA56FE4F1491111122C0E091AC0370
:101030000C9FC0010D9F900D1124E80FF92FF11D99
:10104000EE0FFF1FEA5EFD4F808191810E94DE035B
:1010500064EF71E080E090E00E94220286EB93E072
:101060000E9438038091AB038F5F8093AB03C5CFA1
:1010700081110E946801E12FF0E0EE0FFF1FEE5991
:10108000FE4FA591B491EC91FE2281F2EBCF8091BD
:10109000AC038F5F8093AC038FCF0E9458038ACF3D
:1010A000E6EBF3E01382128288EE93E0A0E0B0E07A
:1010B00084839583A683B78388E092E091838083BD
:1010C00085EC90E09587848784EC90E0978786870D
:1010D00080EC90E0918B808B81EC90E0938B828B05
:1010E00082EC90E0958B848B86EC90E0978B868BDE
:1010F000118E128E138E148E08958F929F92AF923E
:10110000BF92CF92DF92EF92FF92CF93DF93EC01E9
:10111000688179818A819B816115710581059105BD
:1011200021F464E279ED8BE597E02DE133EF41E0C6
:1011300050E00E94210949015A019B01AC01A7EA34
:10114000B1E40E9440096B017C01ACEEB4EFA50153
:1011500094010E944E09C60ED71EE81EF91EF7FE26
:1011600006C081E0C81AD108E10880E8F80AC88200
:10117000D982EA82FB82C701B6019F77DF91CF91C6
:10118000FF90EF90DF90CF90BF90AF909F908F90A7
:1011900008958F929F92AF92BF92CF92DF92EF927B
:1011A000FF92609100027091010280910202909181
:1011B0000302611571058105910521F464E279ED61
:1011C0008BE597E02DE133EF41E050E00E942109EB
:1011D00049015A019B01AC01A7EAB1E40E94400910
:1011E0006B017C01ACEEB4EFA50194010E944E09A5
:1011F000C60ED71EE81EF91EF7FE06C081E0C81A0B
:10120000D108E10880E8F80AC0920002D0920102F9
:10121000E0920202F0920302C701B6019F77FF90AD
:10122000EF90DF90CF90BF90AF909F908F900895F8
:101230006093000270930102809302029093030274
:101240000895052E97FB1EF400940E94380957FD5F
:1012500007D00E94530907FC03D04EF40C943809C0
:1012600050954095309521953F4F4F4F5F4F0895D2
:1012700090958095709561957F4F8F4F9F4F089502
:101280000E947509A59F900DB49F900DA49F800D9D
:10129000911D11240895B7FF0C9440090E94400944
:1012A000821B930B0895A1E21A2EAA1BBB1BFD0102
:1012B0000DC0AA1FBB1FEE1FFF1FA217B307E40735
:1012C000F50720F0A21BB30BE40BF50B661F771F8D
:1012D000881F991F1A9469F760957095809590956D
:1012E0009B01AC01BD01CF010895A29FB001B39F46
:1012F000C001A39F700D811D1124911DB29F700D1F
:10130000811D1124911D0895EE0FFF1F881F8BBFB3
:0C1310000790F691E02D1994F894FFCF9F
:10131C000100000000000000EB02550282023803BD
:10132C00B3029102A5024D03510357035D036203FF
:10133C0066036B036F03740379037F0385038903CF
:10134C008D0397039B039F0389031A18161C1E20F9
:10135C002224260D0A002D3E204B6579626F6172A6
:10136C00642061727261792077617320636F6E669D
:10137C00696775726174656420746875733A2000CE
:10138C002153697A65206F6620726F77733A20005B
:10139C002053697A65206F6620636F6C756D6E7370
:1013AC003A200023204B657920706F736974696F44
:1013BC006E3A20526F77200020436F6C756D6E2053
:1013CC000020427574746F6E3A20002300204D414A
:1013DC00494E4B4559424F4152442000204D434405
:1013EC0055204145524F534F465420413332302003
:1013FC0053494D554C41544F5220005365747469F8
:10140C006E6720696E70757473002E0053657420BE
:10141C0070696E200053657474696E67206F757403
:10142C0070757473005374617274696E67204D61CA
:10143C00696E4B6579626F61726400446F6E6521F1
:10144C0000526561647920666F72207072657373E7
:10145C0020627574746F6E21002D3E2000454E473E
:10146C0000424C45454400505245535300454C45B1
:10147C004300485944004655454C004150550043E3
:10148C004F4E4400444F4F52005748454C4C004679
:10149C002F43544C00414C4C00434C5200544F20B1
:1014AC00434F4E464947005359530052434C004555
:0A14BC004D45522F43414E430000FE
:00000001FF
