:100000000C9462000C948A000C948A000C948A0070
:100010000C948A000C948A000C948A000C948A0038
:100020000C948A000C948A000C948A000C948A0028
:100030000C948A000C948A000C948A000C948A0018
:100040000C94E2020C948A000C9452030C942C033E
:100050000C948A000C948A000C948A000C948A00F8
:100060000C948A000C948A000000000024002700F1
:100070002A000000000023002600290000000000E4
:10008000250028002B0004040404040404040202D4
:100090000202020203030303030301020408102007
:1000A0004080010204081020010204081020000012
:1000B0000008000201000003040700000000000027
:1000C0000000450711241FBECFEFD8E0DEBFCDBF33
:1000D00011E0A0E0B1E0E2E0F1E102C005900D9294
:1000E000AE3EB107D9F722E0AEEEB1E001C01D92FD
:1000F000AA39B207E1F710E0C2E6D0E004C02197C8
:10010000FE010E947908C136D107C9F70E94840315
:100110000C947F080C940000833081F028F4813027
:1001200099F08230A9F008958730A9F08830C9F09D
:100130008430B1F4809180008F7D03C08091800075
:100140008F7780938000089584B58F7784BD08955C
:1001500084B58F7DFBCF8091B0008F778093B00006
:1001600008958091B0008F7DF9CF1F93CF93DF93D7
:10017000282F30E0F901E255FF4F8491F901E6564E
:10018000FF4FD491F901EA57FF4FC491CC23A9F056
:10019000162F81110E948C00EC2FF0E0EE0FFF1F54
:1001A000E458FF4FA591B4918FB7F894EC911111D9
:1001B00008C0D095DE23DC938FBFDF91CF911F91D4
:1001C0000895DE2BF8CF3FB7F8948091F901909114
:1001D000FA01A091FB01B091FC0126B5A89B05C0D6
:1001E0002F3F19F00196A11DB11D3FBFBA2FA92FB6
:1001F000982F8827BC01CD01620F711D811D911DB3
:1002000042E0660F771F881F991F4A95D1F708951E
:100210008F929F92AF92BF92CF92DF92EF92FF9216
:100220006B017C010E94E3004B015C01C114D1040D
:10023000E104F104B9F00E94E300681979098A0920
:100240009B09683E73408105910580F321E0C21A45
:10025000D108E108F10888EE880E83E0981EA11C01
:10026000B11CE4CFFF90EF90DF90CF90BF90AF90A4
:100270009F908F900895AF92BF92CF92DF92EF92AE
:10028000FF920F931F93CF93DF936C017B018B0140
:10029000040F151FEB015E01AE18BF08C017D10790
:1002A00059F06991D601ED91FC910190F081E02D1A
:1002B000C6010995892B79F7C501DF91CF911F916F
:1002C0000F91FF90EF90DF90CF90BF90AF90089587
:1002D000FC01538D448D252F30E0842F90E0821B4C
:1002E000930B541710F0CF96089501970895FC01D1
:1002F000918D828D981761F0A28DAE0FBF2FB11D29
:100300005D968C91928D9F5F9F73928F90E0089580
:100310008FEF9FEF0895FC01918D828D981731F03A
:10032000828DE80FF11D858D90E008958FEF9FEF8E
:100330000895FC01918D228D892F90E0805C9F4F64
:10034000821B91098F73992708958DEF91E00E9488
:10035000990121E0892B09F420E0822F089580E0A3
:1003600090E0892B29F00E94A50181110C940000D6
:100370000895FC01A48DA80FB92FB11DA35ABF4F3A
:100380002C91848D90E001968F739927848FA68994
:10039000B7892C93A089B1898C91837080648C93E8
:1003A000938D848D981306C00288F389E02D808197
:1003B0008F7D80830895EF92FF920F931F93CF93C9
:1003C000DF93EC0181E0888F9B8D8C8D98131AC090
:1003D000E889F989808185FF15C09FB7F894EE8977
:1003E000FF896083E889F9898081837080648083D4
:1003F0009FBF81E090E0DF91CF911F910F91FF901F
:10040000EF900895F62E0B8D10E00F5F1F4F0F73C6
:100410001127E02E8C8D8E110CC00FB607FCFACF81
:10042000E889F989808185FFF5CFCE010E94B90165
:10043000F1CFEB8DEC0FFD2FF11DE35AFF4FF08252
:100440009FB7F8940B8FEA89FB8980818062CFCFB8
:10045000CF93DF93EC01888D8823B9F0AA89BB89FB
:10046000E889F9898C9185FD03C0808186FD0DC0E6
:100470000FB607FCF7CF8C9185FFF2CF808185FF07
:10048000EDCFCE010E94B901E9CFDF91CF91089560
:10049000FC0101900020E9F73197AF01481B590B8F
:1004A000BC018DEF91E00C943B018F929F92AF9233
:1004B000BF920F931F93CF93DF93CDB7DEB7A19772
:1004C0000FB6F894DEBF0FBECDBF19A2423008F4BC
:1004D0004AE08E010F5D1F4F842E912CB12CA12C70
:1004E000A50194010E944808E62FB901CA01EA302B
:1004F000F4F4E05DD801EE938D01232B242B252B02
:1005000079F790E080E0109719F0CD010E94480241
:10051000A1960FB6F894DEBF0FBECDBFDF91CF918D
:100520001F910F91BF90AF909F908F900895E95CBD
:10053000E1CFCF92DF92EF92FF92CF93DF936B01E7
:100540007C016DE28DEF91E00E94DB01EC016627FA
:100550007727CB016C197D098E099F094AE00E941B
:1005600055028C0F9D1FDF91CF91FF90EF90DF9090
:10057000CF900895CF93DF930E944802EC0188E466
:1005800091E00E9448028C0F9D1FDF91CF9108954A
:100590000C944802CF93DF93BC01990F880B990B01
:1005A00097FF0CC00E949902EC0188E491E00E9440
:1005B00048028C0F9D1FDF91CF9108954AE00E9461
:1005C0005502F2CF1F920F920FB60F9211242F9364
:1005D0003F938F939F93AF93BF938091F501909139
:1005E000F601A091F701B091F8013091F40123E0F8
:1005F000230F2D3758F50196A11DB11D2093F4014D
:100600008093F5019093F601A093F701B093F80160
:100610008091F9019091FA01A091FB01B091FC0148
:100620000196A11DB11D8093F9019093FA01A09349
:10063000FB01B093FC01BF91AF919F918F913F91CE
:100640002F910F900FBE0F901F90189526E8230F43
:100650000296A11DB11DD2CF1F920F920FB60F921D
:1006600011242F933F934F935F936F937F938F93B7
:100670009F93AF93BF93EF93FF938DEF91E00E9411
:10068000B901FF91EF91BF91AF919F918F917F91B0
:100690006F915F914F913F912F910F900FBE0F90EF
:1006A0001F9018951F920F920FB60F9211242F933F
:1006B0008F939F93EF93FF93E0910D02F0910E02C1
:1006C0008081E0911302F091140282FD1BC09081A1
:1006D000809116028F5F8F7320911702821741F06D
:1006E000E0911602F0E0E350FE4F958F80931602E2
:1006F000FF91EF919F918F912F910F900FBE0F90CF
:100700001F9018958081F4CF789484B5826084BD61
:1007100084B5816084BD85B5826085BD85B5816005
:1007200085BD80916E00816080936E001092810083
:10073000809181008260809381008091810081603E
:1007400080938100809180008160809380008091FF
:10075000B10084608093B1008091B000816080938B
:10076000B00080917A00846080937A0080917A0052
:10077000826080937A0080917A00816080937A0011
:1007800080917A00806880937A001092C100E09195
:100790000D02F0910E0282E08083E0910902F09157
:1007A0000A021082E0910B02F0910C0280E180833A
:1007B00010921502E0911102F091120286E08083FE
:1007C000E0910F02F0911002808180618083E091BE
:1007D0000F02F0911002808188608083E0910F0207
:1007E000F0911002808180688083E0910F02F09187
:1007F000100280818F7D80831092F1011092F001B0
:100800008091F0019091F1010E97A4F48BE491E0B6
:100810000E94C8026AE070E080E090E00E94080157
:100820008091F0019091F10101969093F1018093F4
:10083000F001E6CF8DE491E00E94C8021092F10130
:100840001092F0018091F0019091F1010997A4F4C8
:100850008BE491E00E94C8026AE070E080E090E0E2
:100860000E9408018091F0019091F101019690930E
:10087000F1018093F001E6CF8BE491E00E94BA028F
:100880001092F1011092F0018091F0019091F1012C
:100890000897A4F48BE491E00E94C8026AE070E03B
:1008A00080E090E00E9408018091F0019091F101B8
:1008B00001969093F1018093F001E6CF8CE591E0F1
:1008C0000E94C8021092F1011092F0018091F00193
:1008D0009091F1010897A4F48BE491E00E94C80282
:1008E0006AE070E080E090E00E9408018091F001F1
:1008F0009091F10101969093F1018093F001E6CF80
:100900008BE491E00E94BA020E94BE0724EF31E01E
:1009100040E050E00E9416086C507E4F8F4F9F4F72
:100920000E9408011092F1011092F0018091F001F3
:100930009091F101049774F48AE491E00E94BA0264
:100940008091F0019091F10101969093F1018093D3
:10095000F001ECCF6AE070E080E090E00E940801D6
:100960008BE791E00E94C8021092F1011092F00111
:100970008091F0019091F1010A97A4F48AE891E046
:100980000E94C8026AEF70E080E090E00E940801D7
:100990008091F0019091F10101969093F101809383
:1009A000F001E6CF8AE891E00E94BA020E94BE07F9
:1009B0002EEE32E040E050E00E94160866507F4F75
:1009C0008F4F9F4F0E9408011092F1011092F00189
:1009D0008091F0019091F1010F9708F04DC08CE8E3
:1009E00091E00E94C802E091F001F091F101EE0F58
:1009F000FF1FEA5EFE4F808191810E94CA02E09152
:100A0000F001F091F101EE0FFF1FEA5EFE4F8081D1
:100A100091819927FC01E656FF4F24918A579F4FF9
:100A2000FC0184918823C1F090E0880F991FFC019C
:100A3000E859FF4FC591D491FC01E458FF4FA591AF
:100A4000B4919FB7F8943881822F8095832388834F
:100A5000EC91E22BEC939FBF64E170E080E090E0CA
:100A60000E9408018091F0019091F101019690930C
:100A7000F1018093F001ACCF1092F1011092F001DE
:100A80008091F0019091F101029774F48AE491E071
:100A90000E94BA028091F0019091F1010196909329
:100AA000F1018093F001ECCF85E991E00E94C8024A
:100AB0001092F1011092F00116E0C12ED12CE12C20
:100AC000F12C8090F0019090F101092C000CAA0803
:100AD000BB080E94BE07A70196010E9416086C5F22
:100AE0007F4F8F4F9F4F86169706A806B906A4F42E
:100AF0008AE891E00E94C8026AEF70E080E090E02E
:100B00000E9408018091F0019091F101019690936B
:100B1000F1018093F001D5CF8AE891E00E94BA02FA
:100B200068EE73E080E090E00E9408011092F1010D
:100B30001092F0018091F0019091F1010A9708F074
:100B400051C08CE891E00E94C802E091F001F09160
:100B5000F101EE0FFF1FEC5CFE4F808191810E943E
:100B6000CA02E091F001F091F101EE0FFF1FEC5C81
:100B7000FE4F808191819927FC01E656FF4F249119
:100B80008A579F4FFC018491882399F090E0880F49
:100B9000991FFC01E859FF4FA591B491FC01E4585D
:100BA000FF4F859194918FB7F894EC91E22BEC93E1
:100BB0008FBF64E170E080E090E00E940801C09186
:100BC000F001D091F101FE01EE0FFF1FEC5CFE4F32
:100BD00060E080810E94B5002196D093F101C0931E
:100BE000F001A8CF1092F1011092F0018091F00174
:100BF0009091F101029774F48AE491E00E94BA02A4
:100C00008091F0019091F10101969093F101809310
:100C1000F001ECCF85EA91E00E94C8021092F10148
:100C20001092F00174E1C72ED12CE12CF12C8090B0
:100C3000F0019090F101092C000CAA08BB080E9459
:100C4000BE07A70196010E941608665F7F4F8F4F6F
:100C50009F4F86169706A806B906A4F48AE891E085
:100C60000E94C8026AEF70E080E090E00E940801F4
:100C70008091F0019091F10101969093F1018093A0
:100C8000F001D5CF8BEB91E00E94C8028AE891E099
:100C90000E94BA0268EE73E080E090E00E940801D2
:100CA00081EC91E00E94C8021092F1011092F001D3
:100CB00066E0C62ED12CE12CF12C8090F0019090B2
:100CC000F101092C000CAA08BB080E94BE07A7016D
:100CD00096010E9416086C5F7F4F8F4F9F4F8616BC
:100CE0009706A806B906A4F48AE891E00E94C80213
:100CF00062E370E080E090E00E9408018091F001E2
:100D00009091F10101969093F1018093F001D5CF7C
:100D10008AE891E00E94BA02C0E0D0E01092F301AC
:100D20001092F2010091F2011091F3010A301105C5
:100D300008F0A0C01092EF011092EE01E090EE01D9
:100D4000F090EF01FAE0EF16F10488F4F701EE0FEE
:100D5000FF1FEC5CFE4F61E080810E94B5008FEFC9
:100D6000E81AF80AF092EF01E092EE01E7CF000FE7
:100D7000111FF801EC5CFE4F60E080810E94B5001D
:100D80001092F1011092F0018091F0019091F10127
:100D90008F30910508F064C0880F991FFC01EA5E4E
:100DA000FE4F208131813327F901E255FF4F8491B5
:100DB000F901E656FF4F0491F901EA57FF4F1491EC
:100DC000111131C08FEC91E00E94C802E091F20154
:100DD000F091F301EE0FFF1FEC5CFE4F608171811B
:100DE000072E000C880B990B97FF36C00E949902C2
:100DF00087EE91E00E94C802E091F001F091F101CC
:100E0000EE0FFF1FEA5EFE4F808191810E94CA02B1
:100E100064EF71E080E090E00E9408018DEF91E0C6
:100E20000E9428020FC081110E948C00E12FF0E087
:100E3000EE0FFF1FEE58FF4FA591B491EC910E23DA
:100E400009F4C0CF8091F0019091F1010196909347
:100E5000F1018093F00198CF4AE00E945502C8CF7B
:100E60008091F2019091F30101969093F3018093A8
:100E7000F20158CF209709F451CF0E94A501882391
:100E800009F44CCF0E94000049CFEDEFF1E013824E
:100E9000128288EE93E0A0E0B0E084839583A6837D
:100EA000B78388E091E09183808385EC90E095871B
:100EB000848784EC90E09787868780EC90E0918B24
:100EC000808B81EC90E0938B828B82EC90E0958B11
:100ED000848B86EC90E0978B868B118E128E138E0E
:100EE000148E08958F929F92AF92BF92CF92DF920D
:100EF000EF92FF92CF93DF93EC01688179818A8131
:100F00009B81611571058105910521F464E279EDFC
:100F10008BE597E02DE133EF41E050E00E941608A9
:100F200049015A019B01AC01A7EAB1E40E943508CE
:100F30006B017C01ACEEB4EFA50194010E94430863
:100F4000C60ED71EE81EF91EF7FE06C081E0C81ABD
:100F5000D108E10880E8F80AC882D982EA82FB82D7
:100F6000C701B6019F77DF91CF91FF90EF90DF909F
:100F7000CF90BF90AF909F908F9008958F929F9247
:100F8000AF92BF92CF92DF92EF92FF9260910001F9
:100F90007091010180910201909103016115710529
:100FA0008105910521F464E279ED8BE597E02DE16F
:100FB00033EF41E050E00E94160849015A019B01BD
:100FC000AC01A7EAB1E40E9435086B017C01ACEEEC
:100FD000B4EFA50194010E944308C60ED71EE81E77
:100FE000F91EF7FE06C081E0C81AD108E10880E8C2
:100FF000F80AC0920001D0920101E0920201F09241
:101000000301C701B6019F77FF90EF90DF90CF906B
:10101000BF90AF909F908F90089560930001709360
:10102000010180930201909303010895052E97FB1F
:101030001EF400940E942D0857FD07D00E94480816
:1010400007FC03D04EF40C942D0850954095309534
:1010500021953F4F4F4F5F4F089590958095709524
:1010600061957F4F8F4F9F4F08950E946A08A59FFB
:10107000900DB49F900DA49F800D911D1124089593
:10108000B7FF0C9435080E943508821B930B089516
:10109000A1E21A2EAA1BBB1BFD010DC0AA1FBB1F7C
:1010A000EE1FFF1FA217B307E407F50720F0A21BEE
:1010B000B30BE40BF50B661F771F881F991F1A945B
:1010C00069F760957095809590959B01AC01BD0185
:1010D000CF010895A29FB001B39FC001A39F700DDF
:1010E000811D1124911DB29F700D811D1124911D30
:1010F0000895EE0FFF1F0590F491E02D0994F894E8
:02110000FFCF1F
:101102000100000000000000DB013B016801280231
:10111200990177018B0135003400320030002E0036
:101122002C002A00280026001700250019002300A1
:101132001B0021002400220020001E001C001A00B7
:10114200180016001D001F000D0A002300204D414B
:10115200494E4B4559424F4152442000204D434491
:1011620055204145524F534F46542041333230208F
:1011720053494D554C41544F522000536574746984
:101182006E6720696E70757473002E00536574204B
:1011920070696E200053657474696E67206F757490
:1011A20070757473005374617274696E67204D6157
:1011B200696E4B6579626F61726400446F6E65217E
:1011C20000507265737320627574746F6E210042F1
:1011D2007574746F6E207072657373656420436FEB
:0E11E2006C756D6E3A200020526F773A200037
:00000001FF
